{
  "_format": "hh-sol-artifact-1",
  "contractName": "ConditionalTokens",
  "sourceName": "contracts/core/ConditionalTokens.sol",
  "abi": [
    {
      "inputs": [],
      "stateMutability": "nonpayable",
      "type": "constructor"
    },
    {
      "inputs": [
        {
          "internalType": "address",
          "name": "sender",
          "type": "address"
        },
        {
          "internalType": "uint256",
          "name": "balance",
          "type": "uint256"
        },
        {
          "internalType": "uint256",
          "name": "needed",
          "type": "uint256"
        },
        {
          "internalType": "uint256",
          "name": "tokenId",
          "type": "uint256"
        }
      ],
      "name": "ERC1155InsufficientBalance",
      "type": "error"
    },
    {
      "inputs": [
        {
          "internalType": "address",
          "name": "approver",
          "type": "address"
        }
      ],
      "name": "ERC1155InvalidApprover",
      "type": "error"
    },
    {
      "inputs": [
        {
          "internalType": "uint256",
          "name": "idsLength",
          "type": "uint256"
        },
        {
          "internalType": "uint256",
          "name": "valuesLength",
          "type": "uint256"
        }
      ],
      "name": "ERC1155InvalidArrayLength",
      "type": "error"
    },
    {
      "inputs": [
        {
          "internalType": "address",
          "name": "operator",
          "type": "address"
        }
      ],
      "name": "ERC1155InvalidOperator",
      "type": "error"
    },
    {
      "inputs": [
        {
          "internalType": "address",
          "name": "receiver",
          "type": "address"
        }
      ],
      "name": "ERC1155InvalidReceiver",
      "type": "error"
    },
    {
      "inputs": [
        {
          "internalType": "address",
          "name": "sender",
          "type": "address"
        }
      ],
      "name": "ERC1155InvalidSender",
      "type": "error"
    },
    {
      "inputs": [
        {
          "internalType": "address",
          "name": "operator",
          "type": "address"
        },
        {
          "internalType": "address",
          "name": "owner",
          "type": "address"
        }
      ],
      "name": "ERC1155MissingApprovalForAll",
      "type": "error"
    },
    {
      "inputs": [
        {
          "internalType": "address",
          "name": "owner",
          "type": "address"
        }
      ],
      "name": "OwnableInvalidOwner",
      "type": "error"
    },
    {
      "inputs": [
        {
          "internalType": "address",
          "name": "account",
          "type": "address"
        }
      ],
      "name": "OwnableUnauthorizedAccount",
      "type": "error"
    },
    {
      "inputs": [],
      "name": "ReentrancyGuardReentrantCall",
      "type": "error"
    },
    {
      "inputs": [],
      "name": "ZeroAddress",
      "type": "error"
    },
    {
      "inputs": [],
      "name": "ZeroAmount",
      "type": "error"
    },
    {
      "anonymous": false,
      "inputs": [
        {
          "indexed": true,
          "internalType": "address",
          "name": "account",
          "type": "address"
        },
        {
          "indexed": true,
          "internalType": "address",
          "name": "operator",
          "type": "address"
        },
        {
          "indexed": false,
          "internalType": "bool",
          "name": "approved",
          "type": "bool"
        }
      ],
      "name": "ApprovalForAll",
      "type": "event"
    },
    {
      "anonymous": false,
      "inputs": [
        {
          "indexed": true,
          "internalType": "bytes32",
          "name": "conditionId",
          "type": "bytes32"
        },
        {
          "indexed": true,
          "internalType": "address",
          "name": "oracle",
          "type": "address"
        },
        {
          "indexed": false,
          "internalType": "bytes32",
          "name": "questionId",
          "type": "bytes32"
        },
        {
          "indexed": false,
          "internalType": "uint256",
          "name": "outcomeSlotCount",
          "type": "uint256"
        }
      ],
      "name": "ConditionCreation",
      "type": "event"
    },
    {
      "anonymous": false,
      "inputs": [
        {
          "indexed": true,
          "internalType": "address",
          "name": "previousOwner",
          "type": "address"
        },
        {
          "indexed": true,
          "internalType": "address",
          "name": "newOwner",
          "type": "address"
        }
      ],
      "name": "OwnershipTransferred",
      "type": "event"
    },
    {
      "anonymous": false,
      "inputs": [
        {
          "indexed": true,
          "internalType": "bytes32",
          "name": "conditionId",
          "type": "bytes32"
        },
        {
          "indexed": false,
          "internalType": "uint256[]",
          "name": "payoutNumerators",
          "type": "uint256[]"
        },
        {
          "indexed": false,
          "internalType": "bytes32",
          "name": "winningPositionId",
          "type": "bytes32"
        }
      ],
      "name": "PayoutReported",
      "type": "event"
    },
    {
      "anonymous": false,
      "inputs": [
        {
          "indexed": true,
          "internalType": "bytes32",
          "name": "conditionId",
          "type": "bytes32"
        },
        {
          "indexed": true,
          "internalType": "address",
          "name": "holder",
          "type": "address"
        },
        {
          "indexed": false,
          "internalType": "uint256",
          "name": "amount",
          "type": "uint256"
        }
      ],
      "name": "PositionSplit",
      "type": "event"
    },
    {
      "anonymous": false,
      "inputs": [
        {
          "indexed": true,
          "internalType": "bytes32",
          "name": "conditionId",
          "type": "bytes32"
        },
        {
          "indexed": true,
          "internalType": "address",
          "name": "holder",
          "type": "address"
        },
        {
          "indexed": false,
          "internalType": "uint256",
          "name": "amount",
          "type": "uint256"
        }
      ],
      "name": "PositionsMerged",
      "type": "event"
    },
    {
      "anonymous": false,
      "inputs": [
        {
          "indexed": true,
          "internalType": "bytes32",
          "name": "conditionId",
          "type": "bytes32"
        },
        {
          "indexed": true,
          "internalType": "address",
          "name": "owner",
          "type": "address"
        },
        {
          "indexed": false,
          "internalType": "uint256",
          "name": "indexSet",
          "type": "uint256"
        }
      ],
      "name": "PositionsRedeemed",
      "type": "event"
    },
    {
      "anonymous": false,
      "inputs": [
        {
          "indexed": true,
          "internalType": "address",
          "name": "operator",
          "type": "address"
        },
        {
          "indexed": true,
          "internalType": "address",
          "name": "from",
          "type": "address"
        },
        {
          "indexed": true,
          "internalType": "address",
          "name": "to",
          "type": "address"
        },
        {
          "indexed": false,
          "internalType": "uint256[]",
          "name": "ids",
          "type": "uint256[]"
        },
        {
          "indexed": false,
          "internalType": "uint256[]",
          "name": "values",
          "type": "uint256[]"
        }
      ],
      "name": "TransferBatch",
      "type": "event"
    },
    {
      "anonymous": false,
      "inputs": [
        {
          "indexed": true,
          "internalType": "address",
          "name": "operator",
          "type": "address"
        },
        {
          "indexed": true,
          "internalType": "address",
          "name": "from",
          "type": "address"
        },
        {
          "indexed": true,
          "internalType": "address",
          "name": "to",
          "type": "address"
        },
        {
          "indexed": false,
          "internalType": "uint256",
          "name": "id",
          "type": "uint256"
        },
        {
          "indexed": false,
          "internalType": "uint256",
          "name": "value",
          "type": "uint256"
        }
      ],
      "name": "TransferSingle",
      "type": "event"
    },
    {
      "anonymous": false,
      "inputs": [
        {
          "indexed": false,
          "internalType": "string",
          "name": "value",
          "type": "string"
        },
        {
          "indexed": true,
          "internalType": "uint256",
          "name": "id",
          "type": "uint256"
        }
      ],
      "name": "URI",
      "type": "event"
    },
    {
      "inputs": [
        {
          "internalType": "address",
          "name": "",
          "type": "address"
        }
      ],
      "name": "authorized",
      "outputs": [
        {
          "internalType": "bool",
          "name": "",
          "type": "bool"
        }
      ],
      "stateMutability": "view",
      "type": "function"
    },
    {
      "inputs": [
        {
          "internalType": "address",
          "name": "account",
          "type": "address"
        },
        {
          "internalType": "uint256",
          "name": "id",
          "type": "uint256"
        }
      ],
      "name": "balanceOf",
      "outputs": [
        {
          "internalType": "uint256",
          "name": "",
          "type": "uint256"
        }
      ],
      "stateMutability": "view",
      "type": "function"
    },
    {
      "inputs": [
        {
          "internalType": "address",
          "name": "holder",
          "type": "address"
        },
        {
          "internalType": "bytes32",
          "name": "conditionId",
          "type": "bytes32"
        },
        {
          "internalType": "uint256",
          "name": "outcomeIndex",
          "type": "uint256"
        }
      ],
      "name": "balanceOf",
      "outputs": [
        {
          "internalType": "uint256",
          "name": "",
          "type": "uint256"
        }
      ],
      "stateMutability": "view",
      "type": "function"
    },
    {
      "inputs": [
        {
          "internalType": "address[]",
          "name": "accounts",
          "type": "address[]"
        },
        {
          "internalType": "uint256[]",
          "name": "ids",
          "type": "uint256[]"
        }
      ],
      "name": "balanceOfBatch",
      "outputs": [
        {
          "internalType": "uint256[]",
          "name": "",
          "type": "uint256[]"
        }
      ],
      "stateMutability": "view",
      "type": "function"
    },
    {
      "inputs": [
        {
          "internalType": "address[]",
          "name": "holders",
          "type": "address[]"
        },
        {
          "internalType": "bytes32[]",
          "name": "conditionIds",
          "type": "bytes32[]"
        },
        {
          "internalType": "uint256[]",
          "name": "indices",
          "type": "uint256[]"
        }
      ],
      "name": "balanceOfBatch",
      "outputs": [
        {
          "internalType": "uint256[]",
          "name": "balances",
          "type": "uint256[]"
        }
      ],
      "stateMutability": "view",
      "type": "function"
    },
    {
      "inputs": [
        {
          "internalType": "address",
          "name": "holder",
          "type": "address"
        },
        {
          "internalType": "bytes32",
          "name": "conditionId",
          "type": "bytes32"
        },
        {
          "internalType": "uint256",
          "name": "outcomeIndex",
          "type": "uint256"
        },
        {
          "internalType": "uint256",
          "name": "amount",
          "type": "uint256"
        }
      ],
      "name": "burnPosition",
      "outputs": [],
      "stateMutability": "nonpayable",
      "type": "function"
    },
    {
      "inputs": [
        {
          "internalType": "bytes32",
          "name": "",
          "type": "bytes32"
        }
      ],
      "name": "conditionResolved",
      "outputs": [
        {
          "internalType": "bool",
          "name": "",
          "type": "bool"
        }
      ],
      "stateMutability": "view",
      "type": "function"
    },
    {
      "inputs": [
        {
          "internalType": "bytes32",
          "name": "",
          "type": "bytes32"
        }
      ],
      "name": "conditions",
      "outputs": [
        {
          "internalType": "address",
          "name": "oracle",
          "type": "address"
        },
        {
          "internalType": "bytes32",
          "name": "questionId",
          "type": "bytes32"
        },
        {
          "internalType": "uint256",
          "name": "outcomeSlotCount",
          "type": "uint256"
        }
      ],
      "stateMutability": "view",
      "type": "function"
    },
    {
      "inputs": [
        {
          "internalType": "address",
          "name": "oracle",
          "type": "address"
        },
        {
          "internalType": "bytes32",
          "name": "questionId",
          "type": "bytes32"
        },
        {
          "internalType": "uint256",
          "name": "outcomeSlotCount",
          "type": "uint256"
        },
        {
          "internalType": "uint256[]",
          "name": "payoutNumerators",
          "type": "uint256[]"
        }
      ],
      "name": "createCondition",
      "outputs": [],
      "stateMutability": "nonpayable",
      "type": "function"
    },
    {
      "inputs": [
        {
          "internalType": "bytes32",
          "name": "conditionId",
          "type": "bytes32"
        },
        {
          "internalType": "address",
          "name": "oracle",
          "type": "address"
        },
        {
          "internalType": "bytes32",
          "name": "questionId",
          "type": "bytes32"
        },
        {
          "internalType": "uint256",
          "name": "outcomeSlotCount",
          "type": "uint256"
        },
        {
          "internalType": "uint256[]",
          "name": "payoutNumerators",
          "type": "uint256[]"
        }
      ],
      "name": "createConditionWithId",
      "outputs": [],
      "stateMutability": "nonpayable",
      "type": "function"
    },
    {
      "inputs": [
        {
          "internalType": "bytes32",
          "name": "conditionId",
          "type": "bytes32"
        }
      ],
      "name": "getCondition",
      "outputs": [
        {
          "internalType": "address",
          "name": "oracle",
          "type": "address"
        },
        {
          "internalType": "bytes32",
          "name": "questionId",
          "type": "bytes32"
        },
        {
          "internalType": "uint256",
          "name": "outcomeSlotCount",
          "type": "uint256"
        }
      ],
      "stateMutability": "view",
      "type": "function"
    },
    {
      "inputs": [
        {
          "internalType": "address",
          "name": "oracle",
          "type": "address"
        },
        {
          "internalType": "bytes32",
          "name": "questionId",
          "type": "bytes32"
        },
        {
          "internalType": "uint256",
          "name": "outcomeSlotCount",
          "type": "uint256"
        }
      ],
      "name": "getConditionId",
      "outputs": [
        {
          "internalType": "bytes32",
          "name": "",
          "type": "bytes32"
        }
      ],
      "stateMutability": "pure",
      "type": "function"
    },
    {
      "inputs": [
        {
          "internalType": "bytes32",
          "name": "conditionId",
          "type": "bytes32"
        }
      ],
      "name": "getPayoutDenominator",
      "outputs": [
        {
          "internalType": "uint256",
          "name": "",
          "type": "uint256"
        }
      ],
      "stateMutability": "view",
      "type": "function"
    },
    {
      "inputs": [
        {
          "internalType": "bytes32",
          "name": "conditionId",
          "type": "bytes32"
        },
        {
          "internalType": "uint256",
          "name": "outcomeIndex",
          "type": "uint256"
        }
      ],
      "name": "getPositionId",
      "outputs": [
        {
          "internalType": "bytes32",
          "name": "",
          "type": "bytes32"
        }
      ],
      "stateMutability": "pure",
      "type": "function"
    },
    {
      "inputs": [
        {
          "internalType": "address",
          "name": "account",
          "type": "address"
        },
        {
          "internalType": "address",
          "name": "operator",
          "type": "address"
        }
      ],
      "name": "isApprovedForAll",
      "outputs": [
        {
          "internalType": "bool",
          "name": "",
          "type": "bool"
        }
      ],
      "stateMutability": "view",
      "type": "function"
    },
    {
      "inputs": [
        {
          "internalType": "bytes32",
          "name": "conditionId",
          "type": "bytes32"
        }
      ],
      "name": "isConditionResolved",
      "outputs": [
        {
          "internalType": "bool",
          "name": "",
          "type": "bool"
        }
      ],
      "stateMutability": "view",
      "type": "function"
    },
    {
      "inputs": [
        {
          "internalType": "address",
          "name": "holder",
          "type": "address"
        },
        {
          "internalType": "bytes32",
          "name": "conditionId",
          "type": "bytes32"
        },
        {
          "internalType": "uint256",
          "name": "amount",
          "type": "uint256"
        }
      ],
      "name": "mergePositions",
      "outputs": [],
      "stateMutability": "nonpayable",
      "type": "function"
    },
    {
      "inputs": [
        {
          "internalType": "address",
          "name": "holder",
          "type": "address"
        },
        {
          "internalType": "bytes32",
          "name": "conditionId",
          "type": "bytes32"
        },
        {
          "internalType": "uint256",
          "name": "outcomeIndex",
          "type": "uint256"
        },
        {
          "internalType": "uint256",
          "name": "amount",
          "type": "uint256"
        }
      ],
      "name": "mintPosition",
      "outputs": [],
      "stateMutability": "nonpayable",
      "type": "function"
    },
    {
      "inputs": [],
      "name": "owner",
      "outputs": [
        {
          "internalType": "address",
          "name": "",
          "type": "address"
        }
      ],
      "stateMutability": "view",
      "type": "function"
    },
    {
      "inputs": [
        {
          "internalType": "bytes32",
          "name": "",
          "type": "bytes32"
        }
      ],
      "name": "payoutDenominators",
      "outputs": [
        {
          "internalType": "uint256",
          "name": "",
          "type": "uint256"
        }
      ],
      "stateMutability": "view",
      "type": "function"
    },
    {
      "inputs": [
        {
          "internalType": "address",
          "name": "owner",
          "type": "address"
        },
        {
          "internalType": "bytes32",
          "name": "conditionId",
          "type": "bytes32"
        },
        {
          "internalType": "uint256",
          "name": "indexSet",
          "type": "uint256"
        }
      ],
      "name": "redeemPositions",
      "outputs": [],
      "stateMutability": "nonpayable",
      "type": "function"
    },
    {
      "inputs": [],
      "name": "renounceOwnership",
      "outputs": [],
      "stateMutability": "nonpayable",
      "type": "function"
    },
    {
      "inputs": [
        {
          "internalType": "address",
          "name": "from",
          "type": "address"
        },
        {
          "internalType": "address",
          "name": "to",
          "type": "address"
        },
        {
          "internalType": "uint256[]",
          "name": "ids",
          "type": "uint256[]"
        },
        {
          "internalType": "uint256[]",
          "name": "values",
          "type": "uint256[]"
        },
        {
          "internalType": "bytes",
          "name": "data",
          "type": "bytes"
        }
      ],
      "name": "safeBatchTransferFrom",
      "outputs": [],
      "stateMutability": "nonpayable",
      "type": "function"
    },
    {
      "inputs": [
        {
          "internalType": "address",
          "name": "from",
          "type": "address"
        },
        {
          "internalType": "address",
          "name": "to",
          "type": "address"
        },
        {
          "internalType": "uint256",
          "name": "id",
          "type": "uint256"
        },
        {
          "internalType": "uint256",
          "name": "value",
          "type": "uint256"
        },
        {
          "internalType": "bytes",
          "name": "data",
          "type": "bytes"
        }
      ],
      "name": "safeTransferFrom",
      "outputs": [],
      "stateMutability": "nonpayable",
      "type": "function"
    },
    {
      "inputs": [
        {
          "internalType": "address",
          "name": "operator",
          "type": "address"
        },
        {
          "internalType": "bool",
          "name": "approved",
          "type": "bool"
        }
      ],
      "name": "setApprovalForAll",
      "outputs": [],
      "stateMutability": "nonpayable",
      "type": "function"
    },
    {
      "inputs": [
        {
          "internalType": "address",
          "name": "addr",
          "type": "address"
        },
        {
          "internalType": "bool",
          "name": "state",
          "type": "bool"
        }
      ],
      "name": "setAuthorized",
      "outputs": [],
      "stateMutability": "nonpayable",
      "type": "function"
    },
    {
      "inputs": [
        {
          "internalType": "bytes32",
          "name": "conditionId",
          "type": "bytes32"
        },
        {
          "internalType": "uint256[]",
          "name": "payoutNumerators",
          "type": "uint256[]"
        }
      ],
      "name": "setPayoutResults",
      "outputs": [],
      "stateMutability": "nonpayable",
      "type": "function"
    },
    {
      "inputs": [
        {
          "internalType": "string",
          "name": "newUri",
          "type": "string"
        }
      ],
      "name": "setURI",
      "outputs": [],
      "stateMutability": "nonpayable",
      "type": "function"
    },
    {
      "inputs": [
        {
          "internalType": "address",
          "name": "holder",
          "type": "address"
        },
        {
          "internalType": "bytes32",
          "name": "conditionId",
          "type": "bytes32"
        },
        {
          "internalType": "uint256",
          "name": "amount",
          "type": "uint256"
        }
      ],
      "name": "splitPosition",
      "outputs": [],
      "stateMutability": "nonpayable",
      "type": "function"
    },
    {
      "inputs": [
        {
          "internalType": "bytes4",
          "name": "interfaceId",
          "type": "bytes4"
        }
      ],
      "name": "supportsInterface",
      "outputs": [
        {
          "internalType": "bool",
          "name": "",
          "type": "bool"
        }
      ],
      "stateMutability": "view",
      "type": "function"
    },
    {
      "inputs": [
        {
          "internalType": "uint256",
          "name": "",
          "type": "uint256"
        }
      ],
      "name": "totalSupply",
      "outputs": [
        {
          "internalType": "uint256",
          "name": "",
          "type": "uint256"
        }
      ],
      "stateMutability": "view",
      "type": "function"
    },
    {
      "inputs": [
        {
          "internalType": "address",
          "name": "newOwner",
          "type": "address"
        }
      ],
      "name": "transferOwnership",
      "outputs": [],
      "stateMutability": "nonpayable",
      "type": "function"
    },
    {
      "inputs": [
        {
          "internalType": "uint256",
          "name": "",
          "type": "uint256"
        }
      ],
      "name": "uri",
      "outputs": [
        {
          "internalType": "string",
          "name": "",
          "type": "string"
        }
      ],
      "stateMutability": "view",
      "type": "function"
    },
    {
      "inputs": [],
      "name": "uri",
      "outputs": [
        {
          "internalType": "string",
          "name": "",
          "type": "string"
        }
      ],
      "stateMutability": "view",
      "type": "function"
    }
  ],
  "bytecode": "0x608060405234801561001057600080fd5b503360405180602001604052806000815250610031816100c160201b60201c565b50600073ffffffffffffffffffffffffffffffffffffffff168173ffffffffffffffffffffffffffffffffffffffff16036100a45760006040517f1e4fbdf700000000000000000000000000000000000000000000000000000000815260040161009b91906101db565b60405180910390fd5b6100b3816100d460201b60201c565b506001600481905550610518565b80600290816100d09190610446565b5050565b6000600360009054906101000a900473ffffffffffffffffffffffffffffffffffffffff16905081600360006101000a81548173ffffffffffffffffffffffffffffffffffffffff021916908373ffffffffffffffffffffffffffffffffffffffff1602179055508173ffffffffffffffffffffffffffffffffffffffff168173ffffffffffffffffffffffffffffffffffffffff167f8be0079c531659141344cd1fd0a4f28419497f9722a3daafe3b4186f6b6457e060405160405180910390a35050565b600073ffffffffffffffffffffffffffffffffffffffff82169050919050565b60006101c58261019a565b9050919050565b6101d5816101ba565b82525050565b60006020820190506101f060008301846101cc565b92915050565b600081519050919050565b7f4e487b7100000000000000000000000000000000000000000000000000000000600052604160045260246000fd5b7f4e487b7100000000000000000000000000000000000000000000000000000000600052602260045260246000fd5b6000600282049050600182168061027757607f821691505b60208210810361028a57610289610230565b5b50919050565b60008190508160005260206000209050919050565b60006020601f8301049050919050565b600082821b905092915050565b6000600883026102f27fffffffffffffffffffffffffffffffffffffffffffffffffffffffffffffffff826102b5565b6102fc86836102b5565b95508019841693508086168417925050509392505050565b6000819050919050565b6000819050919050565b600061034361033e61033984610314565b61031e565b610314565b9050919050565b6000819050919050565b61035d83610328565b6103716103698261034a565b8484546102c2565b825550505050565b600090565b610386610379565b610391818484610354565b505050565b5b818110156103b5576103aa60008261037e565b600181019050610397565b5050565b601f8211156103fa576103cb81610290565b6103d4846102a5565b810160208510156103e3578190505b6103f76103ef856102a5565b830182610396565b50505b505050565b600082821c905092915050565b600061041d600019846008026103ff565b1980831691505092915050565b6000610436838361040c565b9150826002028217905092915050565b61044f826101f6565b67ffffffffffffffff81111561046857610467610201565b5b610472825461025f565b61047d8282856103b9565b600060209050601f8311600181146104b0576000841561049e578287015190505b6104a8858261042a565b865550610510565b601f1984166104be86610290565b60005b828110156104e6578489015182556001820191506020850194506020810190506104c1565b8683101561050357848901516104ff601f89168261040c565b8355505b6001600288020188555050505b505050505050565b614f36806105276000396000f3fe608060405234801561001057600080fd5b50600436106101955760003560e01c8062fdd58e1461019a57806301463597146101ca57806301ffc9a7146101e657806302fe5305146102165780630e89341c146102325780631ad685d8146102625780631d66c0711461027e5780632934a0ee1461029a578063296ed2cb146102cc5780632eb2c2d6146102e85780633196b45f14610304578063346801f71461033457806335c0c25e146103505780633badcb30146103805780634e1273f41461039c57806353f8c602146103cc578063711bf9b2146103fc578063715018a614610418578063777dbc0014610422578063852c6ae2146104525780638da5cb5b1461048257806394dfeed0146104a05780639c261677146104d2578063a22cb46514610502578063aef887931461051e578063b91816111461054e578063bafce2dd1461057e578063bd85b0391461059a578063dd142562146105ca578063e7af2b8d146105e6578063e985e9c514610616578063eac989f814610646578063f242432a14610664578063f2fde38b14610680575b600080fd5b6101b460048036038101906101af9190613538565b61069c565b6040516101c19190613587565b60405180910390f35b6101e460048036038101906101df91906135d8565b6106f6565b005b61020060048036038101906101fb9190613697565b610857565b60405161020d91906136df565b60405180910390f35b610230600480360381019061022b9190613840565b610939565b005b61024c60048036038101906102479190613889565b61095d565b6040516102599190613935565b60405180910390f35b61027c60048036038101906102779190613a1f565b6109f1565b005b61029860048036038101906102939190613a7b565b610ce5565b005b6102b460048036038101906102af9190613ace565b610ff0565b6040516102c393929190613b19565b60405180910390f35b6102e660048036038101906102e191906135d8565b61109d565b005b61030260048036038101906102fd9190613bf1565b61123f565b005b61031e60048036038101906103199190613ace565b6112e7565b60405161032b91906136df565b60405180910390f35b61034e60048036038101906103499190613cc0565b611311565b005b61036a60048036038101906103659190613ace565b611679565b60405161037791906136df565b60405180910390f35b61039a60048036038101906103959190613d43565b611699565b005b6103b660048036038101906103b19190613e9d565b6119d2565b6040516103c39190613fd3565b60405180910390f35b6103e660048036038101906103e19190613ace565b611adb565b6040516103f39190613587565b60405180910390f35b61041660048036038101906104119190614021565b611af3565b005b610420611b4e565b005b61043c60048036038101906104379190614124565b611b62565b6040516104499190613fd3565b60405180910390f35b61046c60048036038101906104679190613a7b565b611c8d565b60405161047991906141cb565b60405180910390f35b61048a611cc3565b60405161049791906141e6565b60405180910390f35b6104ba60048036038101906104b59190613ace565b611ced565b6040516104c993929190613b19565b60405180910390f35b6104ec60048036038101906104e79190614201565b611d37565b6040516104f991906141cb565b60405180910390f35b61051c60048036038101906105179190614021565b611d6a565b005b61053860048036038101906105339190613ace565b611d80565b6040516105459190613587565b60405180910390f35b61056860048036038101906105639190614241565b611d9d565b60405161057591906136df565b60405180910390f35b61059860048036038101906105939190613a7b565b611dbd565b005b6105b460048036038101906105af9190613889565b611ff5565b6040516105c19190613587565b60405180910390f35b6105e460048036038101906105df9190613a7b565b61200d565b005b61060060048036038101906105fb9190613a7b565b6122a3565b60405161060d9190613587565b60405180910390f35b610630600480360381019061062b919061426e565b6122c1565b60405161063d91906136df565b60405180910390f35b61064e612355565b60405161065b9190613935565b60405180910390f35b61067e600480360381019061067991906142ae565b6123e7565b005b61069a60048036038101906106959190614241565b61248f565b005b600080600083815260200190815260200160002060008473ffffffffffffffffffffffffffffffffffffffff1673ffffffffffffffffffffffffffffffffffffffff16815260200190815260200160002054905092915050565b8373ffffffffffffffffffffffffffffffffffffffff163373ffffffffffffffffffffffffffffffffffffffff1614806107795750600960003373ffffffffffffffffffffffffffffffffffffffff1673ffffffffffffffffffffffffffffffffffffffff16815260200190815260200160002060009054906101000a900460ff165b6107b8576040517f08c379a00000000000000000000000000000000000000000000000000000000081526004016107af90614391565b60405180910390fd5b6107c181612515565b60006107cd8484612552565b9050816107da868361069c565b101561081b576040517f08c379a0000000000000000000000000000000000000000000000000000000008152600401610812906143fd565b60405180910390fd5b8160086000838152602001908152602001600020600082825461083e919061444c565b92505081905550610850858284612588565b5050505050565b60007fd9b67a26000000000000000000000000000000000000000000000000000000007bffffffffffffffffffffffffffffffffffffffffffffffffffffffff1916827bffffffffffffffffffffffffffffffffffffffffffffffffffffffff1916148061092257507f0e89341c000000000000000000000000000000000000000000000000000000007bffffffffffffffffffffffffffffffffffffffffffffffffffffffff1916827bffffffffffffffffffffffffffffffffffffffffffffffffffffffff1916145b8061093257506109318261262f565b5b9050919050565b610941612699565b80600a9081610950919061468c565b5061095a81612720565b50565b60606002805461096c906144af565b80601f0160208091040260200160405190810160405280929190818152602001828054610998906144af565b80156109e55780601f106109ba576101008083540402835291602001916109e5565b820191906000526020600020905b8154815290600101906020018083116109c857829003601f168201915b50505050509050919050565b600960003373ffffffffffffffffffffffffffffffffffffffff1673ffffffffffffffffffffffffffffffffffffffff16815260200190815260200160002060009054906101000a900460ff16610a7d576040517f08c379a0000000000000000000000000000000000000000000000000000000008152600401610a7490614391565b60405180910390fd5b816000600560008381526020019081526020016000206002015403610ad7576040517f08c379a0000000000000000000000000000000000000000000000000000000008152600401610ace906147aa565b60405180910390fd5b826006600082815260200190815260200160002060009054906101000a900460ff1615610b39576040517f08c379a0000000000000000000000000000000000000000000000000000000008152600401610b3090614816565b60405180910390fd5b6005600085815260200190815260200160002060020154835114610b92576040517f08c379a0000000000000000000000000000000000000000000000000000000008152600401610b8990614882565b60405180910390fd5b600080600090505b8451811015610bd857848181518110610bb657610bb56148a2565b5b602002602001015182610bc991906148d1565b91508080600101915050610b9a565b50610be281612515565b80600760008781526020019081526020016000208190555060016006600087815260200190815260200160002060006101000a81548160ff021916908315150217905550600084600181518110610c3c57610c3b6148a2565b5b602002602001015185600081518110610c5857610c576148a2565b5b60200260200101511015610c6d576001610c70565b60005b60ff16905060008682604051602001610c8a929190614947565b604051602081830303815290604052805190602001209050867fe2a7b4d3c007049325f7e880f8a70591b9568bd93ca405a1454b5a844b4050c38783604051610cd4929190614973565b60405180910390a250505050505050565b600960003373ffffffffffffffffffffffffffffffffffffffff1673ffffffffffffffffffffffffffffffffffffffff16815260200190815260200160002060009054906101000a900460ff16610d71576040517f08c379a0000000000000000000000000000000000000000000000000000000008152600401610d6890614391565b60405180910390fd5b816000600560008381526020019081526020016000206002015403610dcb576040517f08c379a0000000000000000000000000000000000000000000000000000000008152600401610dc2906147aa565b60405180910390fd5b6006600084815260200190815260200160002060009054906101000a900460ff16610e2b576040517f08c379a0000000000000000000000000000000000000000000000000000000008152600401610e22906149ef565b60405180910390fd5b600082118015610e3c575060038211155b610e7b576040517f08c379a0000000000000000000000000000000000000000000000000000000008152600401610e7290614a5b565b60405180910390fd5b6000600267ffffffffffffffff811115610e9857610e97613715565b5b604051908082528060200260200182016040528015610ec65781602001602082028036833780820191505090505b5090506001831681600081518110610ee157610ee06148a2565b5b60200260200101818152505060018084901c1681600181518110610f0857610f076148a2565b5b60200260200101818152505060005b6002811015610f99576000816001901b851614610f8c576000610f3a8683612552565b90506000610f48888361069c565b90506000811115610f8957610f5e888383612588565b80600860008481526020019081526020016000206000828254610f81919061444c565b925050819055505b50505b8080600101915050610f17565b508473ffffffffffffffffffffffffffffffffffffffff16847ff0b52913ed1e437081a06965a2bc57c14df11a1d9459d7519eaa1d9f8ce4647b85604051610fe19190613587565b60405180910390a35050505050565b600080600080600560008681526020019081526020016000206040518060600160405290816000820160009054906101000a900473ffffffffffffffffffffffffffffffffffffffff1673ffffffffffffffffffffffffffffffffffffffff1673ffffffffffffffffffffffffffffffffffffffff168152602001600182015481526020016002820154815250509050806000015181602001518260400151935093509350509193909250565b600960003373ffffffffffffffffffffffffffffffffffffffff1673ffffffffffffffffffffffffffffffffffffffff16815260200190815260200160002060009054906101000a900460ff16611129576040517f08c379a000000000000000000000000000000000000000000000000000000000815260040161112090614391565b60405180910390fd5b826000600560008381526020019081526020016000206002015403611183576040517f08c379a000000000000000000000000000000000000000000000000000000000815260040161117a906147aa565b60405180910390fd5b600560008581526020019081526020016000206002015483106111db576040517f08c379a00000000000000000000000000000000000000000000000000000000081526004016111d290614ac7565b60405180910390fd5b6111e482612515565b60006111f08585612552565b90508260086000838152602001908152602001600020600082825461121591906148d1565b9250508190555061123786828560405180602001604052806000815250612733565b505050505050565b60006112496127cc565b90508073ffffffffffffffffffffffffffffffffffffffff168673ffffffffffffffffffffffffffffffffffffffff161415801561128e575061128c86826122c1565b155b156112d25780866040517fe237d9220000000000000000000000000000000000000000000000000000000081526004016112c9929190614ae7565b60405180910390fd5b6112df86868686866127d4565b505050505050565b60006006600083815260200190815260200160002060009054906101000a900460ff169050919050565b600960003373ffffffffffffffffffffffffffffffffffffffff1673ffffffffffffffffffffffffffffffffffffffff16815260200190815260200160002060009054906101000a900460ff1661139d576040517f08c379a000000000000000000000000000000000000000000000000000000000815260040161139490614391565b60405180910390fd5b600282146113e0576040517f08c379a00000000000000000000000000000000000000000000000000000000081526004016113d790614b5c565b60405180910390fd5b6002815114611424576040517f08c379a000000000000000000000000000000000000000000000000000000000815260040161141b90614bc8565b60405180910390fd5b6114488160008151811061143b5761143a6148a2565b5b6020026020010151612515565b61146c8160018151811061145f5761145e6148a2565b5b6020026020010151612515565b600084848460405160200161148393929190614c30565b60405160208183030381529060405280519060200120905060006005600083815260200190815260200160002060020154146114f4576040517f08c379a00000000000000000000000000000000000000000000000000000000081526004016114eb90614cb9565b60405180910390fd5b60008260018151811061150a576115096148a2565b5b602002602001015183600081518110611526576115256148a2565b5b602002602001015161153891906148d1565b905060405180606001604052808773ffffffffffffffffffffffffffffffffffffffff168152602001868152602001858152506005600084815260200190815260200160002060008201518160000160006101000a81548173ffffffffffffffffffffffffffffffffffffffff021916908373ffffffffffffffffffffffffffffffffffffffff160217905550602082015181600101556040820151816002015590505080600760008481526020019081526020016000208190555060006006600084815260200190815260200160002060006101000a81548160ff0219169083151502179055508573ffffffffffffffffffffffffffffffffffffffff16827f21297a479a37037be297ad754ccc27f15e468d653db19b89277736b89d8cab828787604051611669929190614cd9565b60405180910390a3505050505050565b60066020528060005260406000206000915054906101000a900460ff1681565b600960003373ffffffffffffffffffffffffffffffffffffffff1673ffffffffffffffffffffffffffffffffffffffff16815260200190815260200160002060009054906101000a900460ff16611725576040517f08c379a000000000000000000000000000000000000000000000000000000000815260040161171c90614391565b60405180910390fd5b60028214611768576040517f08c379a000000000000000000000000000000000000000000000000000000000815260040161175f90614b5c565b60405180910390fd5b60028151146117ac576040517f08c379a00000000000000000000000000000000000000000000000000000000081526004016117a390614bc8565b60405180910390fd5b6117d0816000815181106117c3576117c26148a2565b5b6020026020010151612515565b6117f4816001815181106117e7576117e66148a2565b5b6020026020010151612515565b600060056000878152602001908152602001600020600201541461184d576040517f08c379a000000000000000000000000000000000000000000000000000000000815260040161184490614cb9565b60405180910390fd5b600081600181518110611863576118626148a2565b5b60200260200101518260008151811061187f5761187e6148a2565b5b602002602001015161189191906148d1565b905060405180606001604052808673ffffffffffffffffffffffffffffffffffffffff168152602001858152602001848152506005600088815260200190815260200160002060008201518160000160006101000a81548173ffffffffffffffffffffffffffffffffffffffff021916908373ffffffffffffffffffffffffffffffffffffffff160217905550602082015181600101556040820151816002015590505080600760008881526020019081526020016000208190555060006006600088815260200190815260200160002060006101000a81548160ff0219169083151502179055508473ffffffffffffffffffffffffffffffffffffffff16867f21297a479a37037be297ad754ccc27f15e468d653db19b89277736b89d8cab8286866040516119c2929190614cd9565b60405180910390a3505050505050565b60608151835114611a1e57815183516040517f5b059991000000000000000000000000000000000000000000000000000000008152600401611a15929190614d02565b60405180910390fd5b6000835167ffffffffffffffff811115611a3b57611a3a613715565b5b604051908082528060200260200182016040528015611a695781602001602082028036833780820191505090505b50905060005b8451811015611ad057611aa6611a8e82876128cc90919063ffffffff16565b611aa183876128e090919063ffffffff16565b61069c565b828281518110611ab957611ab86148a2565b5b602002602001018181525050806001019050611a6f565b508091505092915050565b60076020528060005260406000206000915090505481565b80600960008473ffffffffffffffffffffffffffffffffffffffff1673ffffffffffffffffffffffffffffffffffffffff16815260200190815260200160002060006101000a81548160ff0219169083151502179055505050565b611b56612699565b611b6060006128f4565b565b60608251845114611ba8576040517f08c379a0000000000000000000000000000000000000000000000000000000008152600401611b9f90614882565b60405180910390fd5b835167ffffffffffffffff811115611bc357611bc2613715565b5b604051908082528060200260200182016040528015611bf15781602001602082028036833780820191505090505b50905060005b8451811015611c8557611c59858281518110611c1657611c156148a2565b5b6020026020010151858381518110611c3157611c306148a2565b5b6020026020010151858481518110611c4c57611c4b6148a2565b5b60200260200101516122a3565b828281518110611c6c57611c6b6148a2565b5b6020026020010181815250508080600101915050611bf7565b509392505050565b6000838383604051602001611ca493929190614c30565b6040516020818303038152906040528051906020012090509392505050565b6000600360009054906101000a900473ffffffffffffffffffffffffffffffffffffffff16905090565b60056020528060005260406000206000915090508060000160009054906101000a900473ffffffffffffffffffffffffffffffffffffffff16908060010154908060020154905083565b60008282604051602001611d4c929190614947565b60405160208183030381529060405280519060200120905092915050565b611d7c611d756127cc565b83836129ba565b5050565b600060076000838152602001908152602001600020549050919050565b60096020528060005260406000206000915054906101000a900460ff1681565b600960003373ffffffffffffffffffffffffffffffffffffffff1673ffffffffffffffffffffffffffffffffffffffff16815260200190815260200160002060009054906101000a900460ff16611e49576040517f08c379a0000000000000000000000000000000000000000000000000000000008152600401611e4090614391565b60405180910390fd5b816000600560008381526020019081526020016000206002015403611ea3576040517f08c379a0000000000000000000000000000000000000000000000000000000008152600401611e9a906147aa565b60405180910390fd5b826006600082815260200190815260200160002060009054906101000a900460ff1615611f05576040517f08c379a0000000000000000000000000000000000000000000000000000000008152600401611efc90614816565b60405180910390fd5b611f0e83612515565b6000611f1b856001612552565b905083611f28878361069c565b1015611f69576040517f08c379a0000000000000000000000000000000000000000000000000000000008152600401611f60906143fd565b60405180910390fd5b611f74868286612588565b83600860008381526020019081526020016000206000828254611f97919061444c565b925050819055508573ffffffffffffffffffffffffffffffffffffffff16857fedfbd7f1d04be408754f9188f04050834c4a3c666ec2f072cd984184a7f6172f86604051611fe59190613587565b60405180910390a3505050505050565b60086020528060005260406000206000915090505481565b600960003373ffffffffffffffffffffffffffffffffffffffff1673ffffffffffffffffffffffffffffffffffffffff16815260200190815260200160002060009054906101000a900460ff16612099576040517f08c379a000000000000000000000000000000000000000000000000000000000815260040161209090614391565b60405180910390fd5b8160006005600083815260200190815260200160002060020154036120f3576040517f08c379a00000000000000000000000000000000000000000000000000000000081526004016120ea906147aa565b60405180910390fd5b826006600082815260200190815260200160002060009054906101000a900460ff1615612155576040517f08c379a000000000000000000000000000000000000000000000000000000000815260040161214c90614816565b60405180910390fd5b61215e83612515565b61216785612b2a565b6000612174856000612552565b90506000612183866001612552565b905084612190888461069c565b10156121d1576040517f08c379a00000000000000000000000000000000000000000000000000000000081526004016121c8906143fd565b60405180910390fd5b6121dc878387612588565b846008600084815260200190815260200160002060008282546121ff919061444c565b9250508190555061222187828760405180602001604052806000815250612733565b8460086000838152602001908152602001600020600082825461224491906148d1565b925050819055508673ffffffffffffffffffffffffffffffffffffffff16867f350f90cf5a85929a7a6253f377d4a176450441fa6871167f699a8803cdc1cbc3876040516122929190613587565b60405180910390a350505050505050565b60006122b8846122b38585612552565b61069c565b90509392505050565b6000600160008473ffffffffffffffffffffffffffffffffffffffff1673ffffffffffffffffffffffffffffffffffffffff16815260200190815260200160002060008373ffffffffffffffffffffffffffffffffffffffff1673ffffffffffffffffffffffffffffffffffffffff16815260200190815260200160002060009054906101000a900460ff16905092915050565b6060600a8054612364906144af565b80601f0160208091040260200160405190810160405280929190818152602001828054612390906144af565b80156123dd5780601f106123b2576101008083540402835291602001916123dd565b820191906000526020600020905b8154815290600101906020018083116123c057829003601f168201915b5050505050905090565b60006123f16127cc565b90508073ffffffffffffffffffffffffffffffffffffffff168673ffffffffffffffffffffffffffffffffffffffff1614158015612436575061243486826122c1565b155b1561247a5780866040517fe237d922000000000000000000000000000000000000000000000000000000008152600401612471929190614ae7565b60405180910390fd5b6124878686868686612b93565b505050505050565b612497612699565b600073ffffffffffffffffffffffffffffffffffffffff168173ffffffffffffffffffffffffffffffffffffffff16036125095760006040517f1e4fbdf700000000000000000000000000000000000000000000000000000000815260040161250091906141e6565b60405180910390fd5b612512816128f4565b50565b6000810361254f576040517f1f2a200500000000000000000000000000000000000000000000000000000000815260040160405180910390fd5b50565b60008282604051602001612567929190614947565b6040516020818303038152906040528051906020012060001c905092915050565b600073ffffffffffffffffffffffffffffffffffffffff168373ffffffffffffffffffffffffffffffffffffffff16036125fa5760006040517f01a835140000000000000000000000000000000000000000000000000000000081526004016125f191906141e6565b60405180910390fd5b6000806126078484612c9e565b91509150612628856000848460405180602001604052806000815250612cce565b5050505050565b60007f01ffc9a7000000000000000000000000000000000000000000000000000000007bffffffffffffffffffffffffffffffffffffffffffffffffffffffff1916827bffffffffffffffffffffffffffffffffffffffffffffffffffffffff1916149050919050565b6126a16127cc565b73ffffffffffffffffffffffffffffffffffffffff166126bf611cc3565b73ffffffffffffffffffffffffffffffffffffffff161461271e576126e26127cc565b6040517f118cdaa700000000000000000000000000000000000000000000000000000000815260040161271591906141e6565b60405180910390fd5b565b806002908161272f919061468c565b5050565b600073ffffffffffffffffffffffffffffffffffffffff168473ffffffffffffffffffffffffffffffffffffffff16036127a55760006040517f57f447ce00000000000000000000000000000000000000000000000000000000815260040161279c91906141e6565b60405180910390fd5b6000806127b28585612c9e565b915091506127c4600087848487612cce565b505050505050565b600033905090565b600073ffffffffffffffffffffffffffffffffffffffff168473ffffffffffffffffffffffffffffffffffffffff16036128465760006040517f57f447ce00000000000000000000000000000000000000000000000000000000815260040161283d91906141e6565b60405180910390fd5b600073ffffffffffffffffffffffffffffffffffffffff168573ffffffffffffffffffffffffffffffffffffffff16036128b85760006040517f01a835140000000000000000000000000000000000000000000000000000000081526004016128af91906141e6565b60405180910390fd5b6128c58585858585612cce565b5050505050565b600060208202602084010151905092915050565b600060208202602084010151905092915050565b6000600360009054906101000a900473ffffffffffffffffffffffffffffffffffffffff16905081600360006101000a81548173ffffffffffffffffffffffffffffffffffffffff021916908373ffffffffffffffffffffffffffffffffffffffff1602179055508173ffffffffffffffffffffffffffffffffffffffff168173ffffffffffffffffffffffffffffffffffffffff167f8be0079c531659141344cd1fd0a4f28419497f9722a3daafe3b4186f6b6457e060405160405180910390a35050565b600073ffffffffffffffffffffffffffffffffffffffff168273ffffffffffffffffffffffffffffffffffffffff1603612a2c5760006040517fced3e100000000000000000000000000000000000000000000000000000000008152600401612a2391906141e6565b60405180910390fd5b80600160008573ffffffffffffffffffffffffffffffffffffffff1673ffffffffffffffffffffffffffffffffffffffff16815260200190815260200160002060008473ffffffffffffffffffffffffffffffffffffffff1673ffffffffffffffffffffffffffffffffffffffff16815260200190815260200160002060006101000a81548160ff0219169083151502179055508173ffffffffffffffffffffffffffffffffffffffff168373ffffffffffffffffffffffffffffffffffffffff167f17307eab39ab6107e8899845ad3d59bd9653f200f220920489ca2b5937696c3183604051612b1d91906136df565b60405180910390a3505050565b600073ffffffffffffffffffffffffffffffffffffffff168173ffffffffffffffffffffffffffffffffffffffff1603612b90576040517fd92e233d00000000000000000000000000000000000000000000000000000000815260040160405180910390fd5b50565b600073ffffffffffffffffffffffffffffffffffffffff168473ffffffffffffffffffffffffffffffffffffffff1603612c055760006040517f57f447ce000000000000000000000000000000000000000000000000000000008152600401612bfc91906141e6565b60405180910390fd5b600073ffffffffffffffffffffffffffffffffffffffff168573ffffffffffffffffffffffffffffffffffffffff1603612c775760006040517f01a83514000000000000000000000000000000000000000000000000000000008152600401612c6e91906141e6565b60405180910390fd5b600080612c848585612c9e565b91509150612c958787848487612cce565b50505050505050565b60608060405191506001825283602083015260408201905060018152826020820152604081016040529250929050565b612cda85858585612d80565b600073ffffffffffffffffffffffffffffffffffffffff168473ffffffffffffffffffffffffffffffffffffffff1614612d79576000612d186127cc565b90506001845103612d68576000612d396000866128e090919063ffffffff16565b90506000612d516000866128e090919063ffffffff16565b9050612d61838989858589613128565b5050612d77565b612d768187878787876132dc565b5b505b5050505050565b8051825114612dca57815181516040517f5b059991000000000000000000000000000000000000000000000000000000008152600401612dc1929190614d02565b60405180910390fd5b6000612dd46127cc565b905060005b8351811015612fe3576000612df782866128e090919063ffffffff16565b90506000612e0e83866128e090919063ffffffff16565b9050600073ffffffffffffffffffffffffffffffffffffffff168873ffffffffffffffffffffffffffffffffffffffff1614612f3b57600080600084815260200190815260200160002060008a73ffffffffffffffffffffffffffffffffffffffff1673ffffffffffffffffffffffffffffffffffffffff16815260200190815260200160002054905081811015612ee357888183856040517f03dee4c5000000000000000000000000000000000000000000000000000000008152600401612eda9493929190614d2b565b60405180910390fd5b81810360008085815260200190815260200160002060008b73ffffffffffffffffffffffffffffffffffffffff1673ffffffffffffffffffffffffffffffffffffffff16815260200190815260200160002081905550505b600073ffffffffffffffffffffffffffffffffffffffff168773ffffffffffffffffffffffffffffffffffffffff1614612fd6578060008084815260200190815260200160002060008973ffffffffffffffffffffffffffffffffffffffff1673ffffffffffffffffffffffffffffffffffffffff1681526020019081526020016000206000828254612fce91906148d1565b925050819055505b5050806001019050612dd9565b5060018351036130a25760006130036000856128e090919063ffffffff16565b9050600061301b6000856128e090919063ffffffff16565b90508573ffffffffffffffffffffffffffffffffffffffff168773ffffffffffffffffffffffffffffffffffffffff168473ffffffffffffffffffffffffffffffffffffffff167fc3d58168c5ae7397731d063d5bbf3d657854427343f4c083240f7aacaa2d0f628585604051613093929190614d02565b60405180910390a45050613121565b8373ffffffffffffffffffffffffffffffffffffffff168573ffffffffffffffffffffffffffffffffffffffff168273ffffffffffffffffffffffffffffffffffffffff167f4a39dc06d4c0dbc64b70af90fd698a233a518aa5d07e595d983b8c0526c8f7fb8686604051613118929190614d70565b60405180910390a45b5050505050565b60008473ffffffffffffffffffffffffffffffffffffffff163b11156132d4578373ffffffffffffffffffffffffffffffffffffffff1663f23a6e6187878686866040518663ffffffff1660e01b8152600401613189959493929190614dfc565b6020604051808303816000875af19250505080156131c557506040513d601f19601f820116820180604052508101906131c29190614e6b565b60015b613249573d80600081146131f5576040519150601f19603f3d011682016040523d82523d6000602084013e6131fa565b606091505b50600081510361324157846040517f57f447ce00000000000000000000000000000000000000000000000000000000815260040161323891906141e6565b60405180910390fd5b805160208201fd5b63f23a6e6160e01b7bffffffffffffffffffffffffffffffffffffffffffffffffffffffff1916817bffffffffffffffffffffffffffffffffffffffffffffffffffffffff1916146132d257846040517f57f447ce0000000000000000000000000000000000000000000000000000000081526004016132c991906141e6565b60405180910390fd5b505b505050505050565b60008473ffffffffffffffffffffffffffffffffffffffff163b1115613488578373ffffffffffffffffffffffffffffffffffffffff1663bc197c8187878686866040518663ffffffff1660e01b815260040161333d959493929190614e98565b6020604051808303816000875af192505050801561337957506040513d601f19601f820116820180604052508101906133769190614e6b565b60015b6133fd573d80600081146133a9576040519150601f19603f3d011682016040523d82523d6000602084013e6133ae565b606091505b5060008151036133f557846040517f57f447ce0000000000000000000000000000000000000000000000000000000081526004016133ec91906141e6565b60405180910390fd5b805160208201fd5b63bc197c8160e01b7bffffffffffffffffffffffffffffffffffffffffffffffffffffffff1916817bffffffffffffffffffffffffffffffffffffffffffffffffffffffff19161461348657846040517f57f447ce00000000000000000000000000000000000000000000000000000000815260040161347d91906141e6565b60405180910390fd5b505b505050505050565b6000604051905090565b600080fd5b600080fd5b600073ffffffffffffffffffffffffffffffffffffffff82169050919050565b60006134cf826134a4565b9050919050565b6134df816134c4565b81146134ea57600080fd5b50565b6000813590506134fc816134d6565b92915050565b6000819050919050565b61351581613502565b811461352057600080fd5b50565b6000813590506135328161350c565b92915050565b6000806040838503121561354f5761354e61349a565b5b600061355d858286016134ed565b925050602061356e85828601613523565b9150509250929050565b61358181613502565b82525050565b600060208201905061359c6000830184613578565b92915050565b6000819050919050565b6135b5816135a2565b81146135c057600080fd5b50565b6000813590506135d2816135ac565b92915050565b600080600080608085870312156135f2576135f161349a565b5b6000613600878288016134ed565b9450506020613611878288016135c3565b935050604061362287828801613523565b925050606061363387828801613523565b91505092959194509250565b60007fffffffff0000000000000000000000000000000000000000000000000000000082169050919050565b6136748161363f565b811461367f57600080fd5b50565b6000813590506136918161366b565b92915050565b6000602082840312156136ad576136ac61349a565b5b60006136bb84828501613682565b91505092915050565b60008115159050919050565b6136d9816136c4565b82525050565b60006020820190506136f460008301846136d0565b92915050565b600080fd5b600080fd5b6000601f19601f8301169050919050565b7f4e487b7100000000000000000000000000000000000000000000000000000000600052604160045260246000fd5b61374d82613704565b810181811067ffffffffffffffff8211171561376c5761376b613715565b5b80604052505050565b600061377f613490565b905061378b8282613744565b919050565b600067ffffffffffffffff8211156137ab576137aa613715565b5b6137b482613704565b9050602081019050919050565b82818337600083830152505050565b60006137e36137de84613790565b613775565b9050828152602081018484840111156137ff576137fe6136ff565b5b61380a8482856137c1565b509392505050565b600082601f830112613827576138266136fa565b5b81356138378482602086016137d0565b91505092915050565b6000602082840312156138565761385561349a565b5b600082013567ffffffffffffffff8111156138745761387361349f565b5b61388084828501613812565b91505092915050565b60006020828403121561389f5761389e61349a565b5b60006138ad84828501613523565b91505092915050565b600081519050919050565b600082825260208201905092915050565b60005b838110156138f05780820151818401526020810190506138d5565b60008484015250505050565b6000613907826138b6565b61391181856138c1565b93506139218185602086016138d2565b61392a81613704565b840191505092915050565b6000602082019050818103600083015261394f81846138fc565b905092915050565b600067ffffffffffffffff82111561397257613971613715565b5b602082029050602081019050919050565b600080fd5b600061399b61399684613957565b613775565b905080838252602082019050602084028301858111156139be576139bd613983565b5b835b818110156139e757806139d38882613523565b8452602084019350506020810190506139c0565b5050509392505050565b600082601f830112613a0657613a056136fa565b5b8135613a16848260208601613988565b91505092915050565b60008060408385031215613a3657613a3561349a565b5b6000613a44858286016135c3565b925050602083013567ffffffffffffffff811115613a6557613a6461349f565b5b613a71858286016139f1565b9150509250929050565b600080600060608486031215613a9457613a9361349a565b5b6000613aa2868287016134ed565b9350506020613ab3868287016135c3565b9250506040613ac486828701613523565b9150509250925092565b600060208284031215613ae457613ae361349a565b5b6000613af2848285016135c3565b91505092915050565b613b04816134c4565b82525050565b613b13816135a2565b82525050565b6000606082019050613b2e6000830186613afb565b613b3b6020830185613b0a565b613b486040830184613578565b949350505050565b600067ffffffffffffffff821115613b6b57613b6a613715565b5b613b7482613704565b9050602081019050919050565b6000613b94613b8f84613b50565b613775565b905082815260208101848484011115613bb057613baf6136ff565b5b613bbb8482856137c1565b509392505050565b600082601f830112613bd857613bd76136fa565b5b8135613be8848260208601613b81565b91505092915050565b600080600080600060a08688031215613c0d57613c0c61349a565b5b6000613c1b888289016134ed565b9550506020613c2c888289016134ed565b945050604086013567ffffffffffffffff811115613c4d57613c4c61349f565b5b613c59888289016139f1565b935050606086013567ffffffffffffffff811115613c7a57613c7961349f565b5b613c86888289016139f1565b925050608086013567ffffffffffffffff811115613ca757613ca661349f565b5b613cb388828901613bc3565b9150509295509295909350565b60008060008060808587031215613cda57613cd961349a565b5b6000613ce8878288016134ed565b9450506020613cf9878288016135c3565b9350506040613d0a87828801613523565b925050606085013567ffffffffffffffff811115613d2b57613d2a61349f565b5b613d37878288016139f1565b91505092959194509250565b600080600080600060a08688031215613d5f57613d5e61349a565b5b6000613d6d888289016135c3565b9550506020613d7e888289016134ed565b9450506040613d8f888289016135c3565b9350506060613da088828901613523565b925050608086013567ffffffffffffffff811115613dc157613dc061349f565b5b613dcd888289016139f1565b9150509295509295909350565b600067ffffffffffffffff821115613df557613df4613715565b5b602082029050602081019050919050565b6000613e19613e1484613dda565b613775565b90508083825260208201905060208402830185811115613e3c57613e3b613983565b5b835b81811015613e655780613e5188826134ed565b845260208401935050602081019050613e3e565b5050509392505050565b600082601f830112613e8457613e836136fa565b5b8135613e94848260208601613e06565b91505092915050565b60008060408385031215613eb457613eb361349a565b5b600083013567ffffffffffffffff811115613ed257613ed161349f565b5b613ede85828601613e6f565b925050602083013567ffffffffffffffff811115613eff57613efe61349f565b5b613f0b858286016139f1565b9150509250929050565b600081519050919050565b600082825260208201905092915050565b6000819050602082019050919050565b613f4a81613502565b82525050565b6000613f5c8383613f41565b60208301905092915050565b6000602082019050919050565b6000613f8082613f15565b613f8a8185613f20565b9350613f9583613f31565b8060005b83811015613fc6578151613fad8882613f50565b9750613fb883613f68565b925050600181019050613f99565b5085935050505092915050565b60006020820190508181036000830152613fed8184613f75565b905092915050565b613ffe816136c4565b811461400957600080fd5b50565b60008135905061401b81613ff5565b92915050565b600080604083850312156140385761403761349a565b5b6000614046858286016134ed565b92505060206140578582860161400c565b9150509250929050565b600067ffffffffffffffff82111561407c5761407b613715565b5b602082029050602081019050919050565b60006140a061409b84614061565b613775565b905080838252602082019050602084028301858111156140c3576140c2613983565b5b835b818110156140ec57806140d888826135c3565b8452602084019350506020810190506140c5565b5050509392505050565b600082601f83011261410b5761410a6136fa565b5b813561411b84826020860161408d565b91505092915050565b60008060006060848603121561413d5761413c61349a565b5b600084013567ffffffffffffffff81111561415b5761415a61349f565b5b61416786828701613e6f565b935050602084013567ffffffffffffffff8111156141885761418761349f565b5b614194868287016140f6565b925050604084013567ffffffffffffffff8111156141b5576141b461349f565b5b6141c1868287016139f1565b9150509250925092565b60006020820190506141e06000830184613b0a565b92915050565b60006020820190506141fb6000830184613afb565b92915050565b600080604083850312156142185761421761349a565b5b6000614226858286016135c3565b925050602061423785828601613523565b9150509250929050565b6000602082840312156142575761425661349a565b5b6000614265848285016134ed565b91505092915050565b600080604083850312156142855761428461349a565b5b6000614293858286016134ed565b92505060206142a4858286016134ed565b9150509250929050565b600080600080600060a086880312156142ca576142c961349a565b5b60006142d8888289016134ed565b95505060206142e9888289016134ed565b94505060406142fa88828901613523565b935050606061430b88828901613523565b925050608086013567ffffffffffffffff81111561432c5761432b61349f565b5b61433888828901613bc3565b9150509295509295909350565b7f43543a206e6f7420617574686f72697a65640000000000000000000000000000600082015250565b600061437b6012836138c1565b915061438682614345565b602082019050919050565b600060208201905081810360008301526143aa8161436e565b9050919050565b7f43543a20696e73756666696369656e742062616c616e63650000000000000000600082015250565b60006143e76018836138c1565b91506143f2826143b1565b602082019050919050565b60006020820190508181036000830152614416816143da565b9050919050565b7f4e487b7100000000000000000000000000000000000000000000000000000000600052601160045260246000fd5b600061445782613502565b915061446283613502565b925082820390508181111561447a5761447961441d565b5b92915050565b7f4e487b7100000000000000000000000000000000000000000000000000000000600052602260045260246000fd5b600060028204905060018216806144c757607f821691505b6020821081036144da576144d9614480565b5b50919050565b60008190508160005260206000209050919050565b60006020601f8301049050919050565b600082821b905092915050565b6000600883026145427fffffffffffffffffffffffffffffffffffffffffffffffffffffffffffffffff82614505565b61454c8683614505565b95508019841693508086168417925050509392505050565b6000819050919050565b600061458961458461457f84613502565b614564565b613502565b9050919050565b6000819050919050565b6145a38361456e565b6145b76145af82614590565b848454614512565b825550505050565b600090565b6145cc6145bf565b6145d781848461459a565b505050565b5b818110156145fb576145f06000826145c4565b6001810190506145dd565b5050565b601f82111561464057614611816144e0565b61461a846144f5565b81016020851015614629578190505b61463d614635856144f5565b8301826145dc565b50505b505050565b600082821c905092915050565b600061466360001984600802614645565b1980831691505092915050565b600061467c8383614652565b9150826002028217905092915050565b614695826138b6565b67ffffffffffffffff8111156146ae576146ad613715565b5b6146b882546144af565b6146c38282856145ff565b600060209050601f8311600181146146f657600084156146e4578287015190505b6146ee8582614670565b865550614756565b601f198416614704866144e0565b60005b8281101561472c57848901518255600182019150602085019450602081019050614707565b868310156147495784890151614745601f891682614652565b8355505b6001600288020188555050505b505050505050565b7f43543a20636f6e646974696f6e206e6f74206578697374730000000000000000600082015250565b60006147946018836138c1565b915061479f8261475e565b602082019050919050565b600060208201905081810360008301526147c381614787565b9050919050565b7f43543a20616c7265616479207265736f6c766564000000000000000000000000600082015250565b60006148006014836138c1565b915061480b826147ca565b602082019050919050565b6000602082019050818103600083015261482f816147f3565b9050919050565b7f43543a206c656e677468206d69736d6174636800000000000000000000000000600082015250565b600061486c6013836138c1565b915061487782614836565b602082019050919050565b6000602082019050818103600083015261489b8161485f565b9050919050565b7f4e487b7100000000000000000000000000000000000000000000000000000000600052603260045260246000fd5b60006148dc82613502565b91506148e783613502565b92508282019050808211156148ff576148fe61441d565b5b92915050565b6000819050919050565b61492061491b826135a2565b614905565b82525050565b6000819050919050565b61494161493c82613502565b614926565b82525050565b6000614953828561490f565b6020820191506149638284614930565b6020820191508190509392505050565b6000604082019050818103600083015261498d8185613f75565b905061499c6020830184613b0a565b9392505050565b7f43543a206e6f74207265736f6c76656400000000000000000000000000000000600082015250565b60006149d96010836138c1565b91506149e4826149a3565b602082019050919050565b60006020820190508181036000830152614a08816149cc565b9050919050565b7f43543a20696e76616c696420696e646578536574000000000000000000000000600082015250565b6000614a456014836138c1565b9150614a5082614a0f565b602082019050919050565b60006020820190508181036000830152614a7481614a38565b9050919050565b7f43543a20696e76616c6964206f7574636f6d6500000000000000000000000000600082015250565b6000614ab16013836138c1565b9150614abc82614a7b565b602082019050919050565b60006020820190508181036000830152614ae081614aa4565b9050919050565b6000604082019050614afc6000830185613afb565b614b096020830184613afb565b9392505050565b7f43543a206f6e6c792062696e6172790000000000000000000000000000000000600082015250565b6000614b46600f836138c1565b9150614b5182614b10565b602082019050919050565b60006020820190508181036000830152614b7581614b39565b9050919050565b7f43543a206e6565642032206f7574636f6d657300000000000000000000000000600082015250565b6000614bb26013836138c1565b9150614bbd82614b7c565b602082019050919050565b60006020820190508181036000830152614be181614ba5565b9050919050565b60008160601b9050919050565b6000614c0082614be8565b9050919050565b6000614c1282614bf5565b9050919050565b614c2a614c25826134c4565b614c07565b82525050565b6000614c3c8286614c19565b601482019150614c4c828561490f565b602082019150614c5c8284614930565b602082019150819050949350505050565b7f43543a20616c7265616479206578697374730000000000000000000000000000600082015250565b6000614ca36012836138c1565b9150614cae82614c6d565b602082019050919050565b60006020820190508181036000830152614cd281614c96565b9050919050565b6000604082019050614cee6000830185613b0a565b614cfb6020830184613578565b9392505050565b6000604082019050614d176000830185613578565b614d246020830184613578565b9392505050565b6000608082019050614d406000830187613afb565b614d4d6020830186613578565b614d5a6040830185613578565b614d676060830184613578565b95945050505050565b60006040820190508181036000830152614d8a8185613f75565b90508181036020830152614d9e8184613f75565b90509392505050565b600081519050919050565b600082825260208201905092915050565b6000614dce82614da7565b614dd88185614db2565b9350614de88185602086016138d2565b614df181613704565b840191505092915050565b600060a082019050614e116000830188613afb565b614e1e6020830187613afb565b614e2b6040830186613578565b614e386060830185613578565b8181036080830152614e4a8184614dc3565b90509695505050505050565b600081519050614e658161366b565b92915050565b600060208284031215614e8157614e8061349a565b5b6000614e8f84828501614e56565b91505092915050565b600060a082019050614ead6000830188613afb565b614eba6020830187613afb565b8181036040830152614ecc8186613f75565b90508181036060830152614ee08185613f75565b90508181036080830152614ef48184614dc3565b9050969550505050505056fea264697066735822122001cc0cd0ac3c36f416f8abdf1b92ce446ce2dbdc77ab8975f8d0048f1f8d6b2e64736f6c634300081a0033",
  "linkReferences": {},
  "deployedLinkReferences": {}
}