{
  "_format": "hh-sol-artifact-1",
  "contractName": "Market",
  "sourceName": "contracts/core/Market.sol",
  "abi": [
    {
      "inputs": [],
      "stateMutability": "nonpayable",
      "type": "constructor"
    },
    {
      "inputs": [],
      "name": "AlreadyInitialized",
      "type": "error"
    },
    {
      "inputs": [],
      "name": "BuySharesFOKNotFillable",
      "type": "error"
    },
    {
      "inputs": [],
      "name": "BuySharesFOKNotFilledOnchain",
      "type": "error"
    },
    {
      "inputs": [],
      "name": "BuySharesOnchainCostExceeded",
      "type": "error"
    },
    {
      "inputs": [],
      "name": "BuySharesPreviewCostExceeded",
      "type": "error"
    },
    {
      "inputs": [],
      "name": "CanNotCancel",
      "type": "error"
    },
    {
      "inputs": [],
      "name": "EscrowOutcomeMismatch",
      "type": "error"
    },
    {
      "inputs": [],
      "name": "EscrowUnderfilled",
      "type": "error"
    },
    {
      "inputs": [],
      "name": "InvalidTimeRange",
      "type": "error"
    },
    {
      "inputs": [],
      "name": "MarketNotActive",
      "type": "error"
    },
    {
      "inputs": [],
      "name": "NotSettlementManager",
      "type": "error"
    },
    {
      "inputs": [],
      "name": "NotYourOrder",
      "type": "error"
    },
    {
      "inputs": [],
      "name": "ReentrancyGuardReentrantCall",
      "type": "error"
    },
    {
      "inputs": [
        {
          "internalType": "address",
          "name": "token",
          "type": "address"
        }
      ],
      "name": "SafeERC20FailedOperation",
      "type": "error"
    },
    {
      "inputs": [],
      "name": "SellSharesBelowMinReceive",
      "type": "error"
    },
    {
      "inputs": [],
      "name": "SettlementManagerLookupFailed",
      "type": "error"
    },
    {
      "inputs": [],
      "name": "ZeroAddress",
      "type": "error"
    },
    {
      "inputs": [],
      "name": "ZeroAmount",
      "type": "error"
    },
    {
      "anonymous": false,
      "inputs": [
        {
          "indexed": true,
          "internalType": "uint64",
          "name": "orderId",
          "type": "uint64"
        }
      ],
      "name": "OrderCancelled",
      "type": "event"
    },
    {
      "anonymous": false,
      "inputs": [
        {
          "indexed": true,
          "internalType": "address",
          "name": "taker",
          "type": "address"
        },
        {
          "indexed": false,
          "internalType": "bool",
          "name": "isYes",
          "type": "bool"
        },
        {
          "indexed": false,
          "internalType": "uint128",
          "name": "filled",
          "type": "uint128"
        },
        {
          "indexed": false,
          "internalType": "uint128",
          "name": "avgPrice",
          "type": "uint128"
        }
      ],
      "name": "OrderFilled",
      "type": "event"
    },
    {
      "anonymous": false,
      "inputs": [
        {
          "indexed": true,
          "internalType": "address",
          "name": "maker",
          "type": "address"
        },
        {
          "indexed": false,
          "internalType": "bool",
          "name": "isYes",
          "type": "bool"
        },
        {
          "indexed": false,
          "internalType": "uint128",
          "name": "price",
          "type": "uint128"
        },
        {
          "indexed": false,
          "internalType": "uint128",
          "name": "amount",
          "type": "uint128"
        }
      ],
      "name": "OrderPlaced",
      "type": "event"
    },
    {
      "anonymous": false,
      "inputs": [
        {
          "indexed": true,
          "internalType": "address",
          "name": "user",
          "type": "address"
        },
        {
          "indexed": true,
          "internalType": "bytes32",
          "name": "conditionId",
          "type": "bytes32"
        }
      ],
      "name": "Redeemed",
      "type": "event"
    },
    {
      "anonymous": false,
      "inputs": [
        {
          "indexed": true,
          "internalType": "address",
          "name": "maker",
          "type": "address"
        },
        {
          "indexed": false,
          "internalType": "bool",
          "name": "isYes",
          "type": "bool"
        },
        {
          "indexed": false,
          "internalType": "uint128",
          "name": "price",
          "type": "uint128"
        },
        {
          "indexed": false,
          "internalType": "uint128",
          "name": "amount",
          "type": "uint128"
        },
        {
          "indexed": true,
          "internalType": "uint64",
          "name": "orderId",
          "type": "uint64"
        }
      ],
      "name": "ShareSellOrderPlaced",
      "type": "event"
    },
    {
      "inputs": [
        {
          "internalType": "uint128",
          "name": "amount",
          "type": "uint128"
        }
      ],
      "name": "burnSharesForCollateral",
      "outputs": [],
      "stateMutability": "nonpayable",
      "type": "function"
    },
    {
      "inputs": [
        {
          "internalType": "bool",
          "name": "isYes",
          "type": "bool"
        },
        {
          "internalType": "uint128",
          "name": "amount",
          "type": "uint128"
        },
        {
          "internalType": "uint128",
          "name": "maxCost",
          "type": "uint128"
        },
        {
          "internalType": "bool",
          "name": "fillOrKill",
          "type": "bool"
        }
      ],
      "name": "buyShares",
      "outputs": [
        {
          "internalType": "uint128",
          "name": "filled",
          "type": "uint128"
        },
        {
          "internalType": "uint128",
          "name": "cost",
          "type": "uint128"
        }
      ],
      "stateMutability": "nonpayable",
      "type": "function"
    },
    {
      "inputs": [
        {
          "internalType": "uint64[]",
          "name": "orderIds",
          "type": "uint64[]"
        }
      ],
      "name": "cancelOrder",
      "outputs": [],
      "stateMutability": "nonpayable",
      "type": "function"
    },
    {
      "inputs": [],
      "name": "collateral",
      "outputs": [
        {
          "internalType": "contract IERC20",
          "name": "",
          "type": "address"
        }
      ],
      "stateMutability": "view",
      "type": "function"
    },
    {
      "inputs": [],
      "name": "conditionId",
      "outputs": [
        {
          "internalType": "bytes32",
          "name": "",
          "type": "bytes32"
        }
      ],
      "stateMutability": "view",
      "type": "function"
    },
    {
      "inputs": [],
      "name": "conditionalTokens",
      "outputs": [
        {
          "internalType": "contract IConditionalTokens",
          "name": "",
          "type": "address"
        }
      ],
      "stateMutability": "view",
      "type": "function"
    },
    {
      "inputs": [],
      "name": "endTime",
      "outputs": [
        {
          "internalType": "uint64",
          "name": "",
          "type": "uint64"
        }
      ],
      "stateMutability": "view",
      "type": "function"
    },
    {
      "inputs": [],
      "name": "factory",
      "outputs": [
        {
          "internalType": "address",
          "name": "",
          "type": "address"
        }
      ],
      "stateMutability": "view",
      "type": "function"
    },
    {
      "inputs": [],
      "name": "fee",
      "outputs": [
        {
          "internalType": "uint256",
          "name": "",
          "type": "uint256"
        }
      ],
      "stateMutability": "view",
      "type": "function"
    },
    {
      "inputs": [
        {
          "components": [
            {
              "internalType": "uint64",
              "name": "marketId",
              "type": "uint64"
            },
            {
              "internalType": "bool",
              "name": "isYes",
              "type": "bool"
            },
            {
              "internalType": "uint128",
              "name": "limitPrice",
              "type": "uint128"
            },
            {
              "internalType": "uint128",
              "name": "amount",
              "type": "uint128"
            }
          ],
          "internalType": "struct IMatchingEngine.TakerOrder[]",
          "name": "orders",
          "type": "tuple[]"
        }
      ],
      "name": "fillOrders",
      "outputs": [
        {
          "internalType": "uint128[]",
          "name": "filleds",
          "type": "uint128[]"
        },
        {
          "internalType": "uint128[]",
          "name": "avgPrices",
          "type": "uint128[]"
        }
      ],
      "stateMutability": "nonpayable",
      "type": "function"
    },
    {
      "inputs": [
        {
          "internalType": "contract IERC20",
          "name": "_collateral",
          "type": "address"
        },
        {
          "internalType": "bytes32",
          "name": "_conditionId",
          "type": "bytes32"
        },
        {
          "internalType": "uint256",
          "name": "_fee",
          "type": "uint256"
        },
        {
          "internalType": "uint64",
          "name": "_startTime",
          "type": "uint64"
        },
        {
          "internalType": "uint64",
          "name": "_endTime",
          "type": "uint64"
        },
        {
          "internalType": "uint64",
          "name": "_marketId",
          "type": "uint64"
        },
        {
          "internalType": "contract IOrderBook",
          "name": "_orderBook",
          "type": "address"
        },
        {
          "internalType": "contract IMatchingEngine",
          "name": "_matchingEngine",
          "type": "address"
        },
        {
          "internalType": "contract IConditionalTokens",
          "name": "_conditionalTokens",
          "type": "address"
        }
      ],
      "name": "initialize",
      "outputs": [],
      "stateMutability": "nonpayable",
      "type": "function"
    },
    {
      "inputs": [],
      "name": "marketId",
      "outputs": [
        {
          "internalType": "uint64",
          "name": "",
          "type": "uint64"
        }
      ],
      "stateMutability": "view",
      "type": "function"
    },
    {
      "inputs": [],
      "name": "matchingEngine",
      "outputs": [
        {
          "internalType": "contract IMatchingEngine",
          "name": "",
          "type": "address"
        }
      ],
      "stateMutability": "view",
      "type": "function"
    },
    {
      "inputs": [
        {
          "internalType": "uint128",
          "name": "amount",
          "type": "uint128"
        }
      ],
      "name": "mintSharesViaCollateral",
      "outputs": [],
      "stateMutability": "nonpayable",
      "type": "function"
    },
    {
      "inputs": [
        {
          "internalType": "address",
          "name": "",
          "type": "address"
        },
        {
          "internalType": "address",
          "name": "",
          "type": "address"
        },
        {
          "internalType": "uint256[]",
          "name": "",
          "type": "uint256[]"
        },
        {
          "internalType": "uint256[]",
          "name": "",
          "type": "uint256[]"
        }
      ],
      "name": "onERC1155BatchReceived",
      "outputs": [
        {
          "internalType": "bytes4",
          "name": "",
          "type": "bytes4"
        }
      ],
      "stateMutability": "pure",
      "type": "function"
    },
    {
      "inputs": [
        {
          "internalType": "address",
          "name": "",
          "type": "address"
        },
        {
          "internalType": "address",
          "name": "",
          "type": "address"
        },
        {
          "internalType": "uint256",
          "name": "",
          "type": "uint256"
        },
        {
          "internalType": "uint256",
          "name": "",
          "type": "uint256"
        },
        {
          "internalType": "bytes",
          "name": "",
          "type": "bytes"
        }
      ],
      "name": "onERC1155Received",
      "outputs": [
        {
          "internalType": "bytes4",
          "name": "",
          "type": "bytes4"
        }
      ],
      "stateMutability": "pure",
      "type": "function"
    },
    {
      "inputs": [],
      "name": "orderBook",
      "outputs": [
        {
          "internalType": "contract IOrderBook",
          "name": "",
          "type": "address"
        }
      ],
      "stateMutability": "view",
      "type": "function"
    },
    {
      "inputs": [
        {
          "internalType": "address",
          "name": "to",
          "type": "address"
        },
        {
          "internalType": "uint256",
          "name": "amount",
          "type": "uint256"
        }
      ],
      "name": "payoutCollateral",
      "outputs": [],
      "stateMutability": "nonpayable",
      "type": "function"
    },
    {
      "inputs": [
        {
          "internalType": "bool",
          "name": "isYes",
          "type": "bool"
        },
        {
          "internalType": "uint128",
          "name": "price",
          "type": "uint128"
        },
        {
          "internalType": "uint128",
          "name": "amount",
          "type": "uint128"
        }
      ],
      "name": "placeOrder",
      "outputs": [
        {
          "internalType": "uint64",
          "name": "orderId",
          "type": "uint64"
        }
      ],
      "stateMutability": "nonpayable",
      "type": "function"
    },
    {
      "inputs": [
        {
          "internalType": "bool",
          "name": "isYes",
          "type": "bool"
        },
        {
          "internalType": "uint128",
          "name": "price",
          "type": "uint128"
        },
        {
          "internalType": "uint128",
          "name": "amount",
          "type": "uint128"
        }
      ],
      "name": "placeSellOrder",
      "outputs": [
        {
          "internalType": "uint64",
          "name": "orderId",
          "type": "uint64"
        }
      ],
      "stateMutability": "nonpayable",
      "type": "function"
    },
    {
      "inputs": [
        {
          "internalType": "address",
          "name": "user",
          "type": "address"
        }
      ],
      "name": "redeem",
      "outputs": [],
      "stateMutability": "nonpayable",
      "type": "function"
    },
    {
      "inputs": [
        {
          "internalType": "bool",
          "name": "isYes",
          "type": "bool"
        },
        {
          "internalType": "uint128",
          "name": "amount",
          "type": "uint128"
        },
        {
          "internalType": "uint128",
          "name": "minReceive",
          "type": "uint128"
        }
      ],
      "name": "sellShares",
      "outputs": [
        {
          "internalType": "uint128",
          "name": "collateralOut",
          "type": "uint128"
        }
      ],
      "stateMutability": "nonpayable",
      "type": "function"
    },
    {
      "inputs": [
        {
          "internalType": "uint64",
          "name": "",
          "type": "uint64"
        }
      ],
      "name": "shareSellEscrows",
      "outputs": [
        {
          "internalType": "bool",
          "name": "isShareSell",
          "type": "bool"
        },
        {
          "internalType": "uint8",
          "name": "outcomeIndex",
          "type": "uint8"
        },
        {
          "internalType": "uint128",
          "name": "remaining",
          "type": "uint128"
        }
      ],
      "stateMutability": "view",
      "type": "function"
    },
    {
      "inputs": [],
      "name": "startTime",
      "outputs": [
        {
          "internalType": "uint64",
          "name": "",
          "type": "uint64"
        }
      ],
      "stateMutability": "view",
      "type": "function"
    }
  ],
  "bytecode": "0x6080604052348015600f57600080fd5b506001600081905550615b88806100276000396000f3fe608060405234801561001057600080fd5b50600436106101285760003560e01c8063107633951461012d5780631c0edff21461014957806323e78a02146101675780632ddc7de7146101975780633197cbb6146101b557806337e77d18146101d357806347952669146101ef5780635bd9e2991461021f57806368118e431461023d5780636ed71ede146102595780637583991414610277578063776af5ba146102a757806378e97925146102c5578063824f40fc146102e35780638627d4b9146102ff5780638e5d6cd61461033057806395a2251f14610361578063b05e5ea31461037d578063bd0b5186146103ad578063c45a0155146103c9578063d8dfeb45146103e7578063ddca3f4314610405578063e7f1628d14610423578063f23a6e6114610455575b600080fd5b61014760048036038101906101429190613ce2565b610485565b005b610151610648565b60405161015e9190613d8e565b60405180910390f35b610181600480360381019061017c9190613e4c565b61066e565b60405161018e9190613f2e565b60405180910390f35b61019f610684565b6040516101ac9190613f62565b60405180910390f35b6101bd61068a565b6040516101ca9190613fa0565b60405180910390f35b6101ed60048036038101906101e89190614141565b6106a4565b005b61020960048036038101906102049190614243565b610a70565b60405161021691906142a5565b60405180910390f35b61022761104c565b60405161023491906142e1565b60405180910390f35b61025760048036038101906102529190614352565b611072565b005b610261611757565b60405161026e9190613fa0565b60405180910390f35b610291600480360381019061028c9190614243565b61176f565b60405161029e9190613fa0565b60405180910390f35b6102af61197c565b6040516102bc91906143c0565b60405180910390f35b6102cd6119a2565b6040516102da9190613fa0565b60405180910390f35b6102fd60048036038101906102f89190613ce2565b6119bc565b005b610319600480360381019061031491906143db565b611b75565b604051610327929190614442565b60405180910390f35b61034a600480360381019061034591906144c1565b611ffe565b6040516103589291906145cc565b60405180910390f35b61037b60048036038101906103769190614603565b612088565b005b61039760048036038101906103929190614243565b6120d1565b6040516103a49190613fa0565b60405180910390f35b6103c760048036038101906103c29190614630565b6123b6565b005b6103d16125f1565b6040516103de919061467f565b60405180910390f35b6103ef612617565b6040516103fc91906146bb565b60405180910390f35b61040d61263d565b60405161041a91906146e5565b60405180910390f35b61043d60048036038101906104389190614700565b612643565b60405161044c93929190614758565b60405180910390f35b61046f600480360381019061046a91906147e5565b6126a3565b60405161047c9190613f2e565b60405180910390f35b61048d6126b9565b6104a8816fffffffffffffffffffffffffffffffff166126ff565b6104b061273c565b6105113330836fffffffffffffffffffffffffffffffff16600160009054906101000a900473ffffffffffffffffffffffffffffffffffffffff1673ffffffffffffffffffffffffffffffffffffffff166127c2909392919063ffffffff16565b600660009054906101000a900473ffffffffffffffffffffffffffffffffffffffff1673ffffffffffffffffffffffffffffffffffffffff1663296ed2cb336002546000856040518563ffffffff1660e01b815260040161057594939291906148eb565b600060405180830381600087803b15801561058f57600080fd5b505af11580156105a3573d6000803e3d6000fd5b50505050600660009054906101000a900473ffffffffffffffffffffffffffffffffffffffff1673ffffffffffffffffffffffffffffffffffffffff1663296ed2cb336002546001856040518563ffffffff1660e01b815260040161060b949392919061496b565b600060405180830381600087803b15801561062557600080fd5b505af1158015610639573d6000803e3d6000fd5b50505050610645612844565b50565b600560009054906101000a900473ffffffffffffffffffffffffffffffffffffffff1681565b60006323e78a0260e01b90509695505050505050565b60025481565b600860009054906101000a900467ffffffffffffffff1681565b6000600760149054906101000a900467ffffffffffffffff1667ffffffffffffffff16146106fe576040517f0dc149f000000000000000000000000000000000000000000000000000000000815260040160405180910390fd5b8467ffffffffffffffff168667ffffffffffffffff161061074b576040517f536a71af00000000000000000000000000000000000000000000000000000000815260040160405180910390fd5b6107548961284e565b61075d8361284e565b6107668261284e565b61076f8161284e565b88600160006101000a81548173ffffffffffffffffffffffffffffffffffffffff021916908373ffffffffffffffffffffffffffffffffffffffff160217905550876002819055508660038190555085600760146101000a81548167ffffffffffffffff021916908367ffffffffffffffff16021790555084600860006101000a81548167ffffffffffffffff021916908367ffffffffffffffff160217905550836008806101000a81548167ffffffffffffffff021916908367ffffffffffffffff16021790555082600460006101000a81548173ffffffffffffffffffffffffffffffffffffffff021916908373ffffffffffffffffffffffffffffffffffffffff16021790555081600560006101000a81548173ffffffffffffffffffffffffffffffffffffffff021916908373ffffffffffffffffffffffffffffffffffffffff16021790555080600660006101000a81548173ffffffffffffffffffffffffffffffffffffffff021916908373ffffffffffffffffffffffffffffffffffffffff16021790555033600760006101000a81548173ffffffffffffffffffffffffffffffffffffffff021916908373ffffffffffffffffffffffffffffffffffffffff1602179055506000600267ffffffffffffffff811115610959576109586149b0565b5b6040519080825280602002602001820160405280156109875781602001602082028036833780820191505090505b5090506001816000815181106109a05761099f6149df565b5b6020026020010181815250506001816001815181106109c2576109c16149df565b5b602002602001018181525050600660009054906101000a900473ffffffffffffffffffffffffffffffffffffffff1673ffffffffffffffffffffffffffffffffffffffff16633badcb308a308c6002866040518663ffffffff1660e01b8152600401610a32959493929190614b07565b600060405180830381600087803b158015610a4c57600080fd5b505af1158015610a60573d6000803e3d6000fd5b5050505050505050505050505050565b6000610a7a6126b9565b610a95836fffffffffffffffffffffffffffffffff166126ff565b610a9d61273c565b6000600460009054906101000a900473ffffffffffffffffffffffffffffffffffffffff1673ffffffffffffffffffffffffffffffffffffffff1663a042acb660088054906101000a900467ffffffffffffffff1687156706f05b59d3b20000886040518563ffffffff1660e01b8152600401610b1d9493929190614b9c565b600060405180830381865afa158015610b3a573d6000803e3d6000fd5b505050506040513d6000823e3d601f19601f82011682018060405250810190610b639190614dbd565b90506000806000610b8488610b79576001610b7c565b60005b60ff166128b7565b905060005b8451811015610e3657600060096000878481518110610bab57610baa6149df565b5b60200260200101516000015167ffffffffffffffff1667ffffffffffffffff16815260200190815260200160002090508060000160009054906101000a900460ff1615610c24576040517ff6b4f87e00000000000000000000000000000000000000000000000000000000815260040160405180910390fd5b858281518110610c3757610c366149df565b5b60200260200101516040015185610c4e9190614e35565b94506000670de0b6b3a7640000878481518110610c6e57610c6d6149df565b5b6020026020010151606001516fffffffffffffffffffffffffffffffff16888581518110610c9f57610c9e6149df565b5b6020026020010151604001516fffffffffffffffffffffffffffffffff16610cc79190614e79565b610cd19190614eea565b90508088610cdf9190614e35565b9750868381518110610cf457610cf36149df565b5b6020026020010151606001516fffffffffffffffffffffffffffffffff16878481518110610d2557610d246149df565b5b6020026020010151604001516fffffffffffffffffffffffffffffffff16610d4d9190614e79565b85610d589190614f1b565b9450600660009054906101000a900473ffffffffffffffffffffffffffffffffffffffff1673ffffffffffffffffffffffffffffffffffffffff1663f242432a33898681518110610dac57610dab6149df565b5b602002602001015160200151878b8881518110610dcc57610dcb6149df565b5b6020026020010151604001516040518563ffffffff1660e01b8152600401610df79493929190614f86565b600060405180830381600087803b158015610e1157600080fd5b505af1158015610e25573d6000803e3d6000fd5b505050508260010192505050610b89565b50600084511115610ecf57600460009054906101000a900473ffffffffffffffffffffffffffffffffffffffff1673ffffffffffffffffffffffffffffffffffffffff166393cf61f1856040518263ffffffff1660e01b8152600401610e9c9190615100565b600060405180830381600087803b158015610eb657600080fd5b505af1158015610eca573d6000803e3d6000fd5b505050505b6000856fffffffffffffffffffffffffffffffff161115610f4a57610f4933866fffffffffffffffffffffffffffffffff16600160009054906101000a900473ffffffffffffffffffffffffffffffffffffffff1673ffffffffffffffffffffffffffffffffffffffff166129639092919063ffffffff16565b5b856fffffffffffffffffffffffffffffffff16856fffffffffffffffffffffffffffffffff161015610fa8576040517ffeddea0e00000000000000000000000000000000000000000000000000000000815260040160405180910390fd5b3373ffffffffffffffffffffffffffffffffffffffff167f4f51d23d3b44197387b6d0429e640888e58701a79ca29520ae31960185c29a2089856000876fffffffffffffffffffffffffffffffff161461101f57866fffffffffffffffffffffffffffffffff168661101a9190614eea565b611022565b60005b60405161103193929190615122565b60405180910390a250505050611045612844565b9392505050565b600660009054906101000a900473ffffffffffffffffffffffffffffffffffffffff1681565b61107a6126b9565b6000828290509050600080600080600090505b8481101561147b576000600460009054906101000a900473ffffffffffffffffffffffffffffffffffffffff1673ffffffffffffffffffffffffffffffffffffffff1663cdf9d07c8989858181106110e8576110e76149df565b5b90506020020160208101906110fd9190614700565b6040518263ffffffff1660e01b81526004016111199190613fa0565b61012060405180830381865afa158015611137573d6000803e3d6000fd5b505050506040513d601f19601f8201168201806040525081019061115b919061524e565b9050806040015173ffffffffffffffffffffffffffffffffffffffff163373ffffffffffffffffffffffffffffffffffffffff16146111c6576040517f9ef0770100000000000000000000000000000000000000000000000000000000815260040160405180910390fd5b806101000151158061120457508060a001516fffffffffffffffffffffffffffffffff168160c001516fffffffffffffffffffffffffffffffff1610155b1561123b576040517f4a4f9a1900000000000000000000000000000000000000000000000000000000815260040160405180910390fd5b60008160c001518260a00151611251919061527c565b90506000600960008b8b8781811061126c5761126b6149df565b5b90506020020160208101906112819190614700565b67ffffffffffffffff1667ffffffffffffffff1681526020019081526020016000206040518060600160405290816000820160009054906101000a900460ff161515151581526020016000820160019054906101000a900460ff1660ff1660ff1681526020016000820160029054906101000a90046fffffffffffffffffffffffffffffffff166fffffffffffffffffffffffffffffffff166fffffffffffffffffffffffffffffffff16815250509050806000015115611418576000816040015190506000826020015160ff16036113675780876113609190614e35565b9650611376565b80866113739190614e35565b95505b600960008c8c8881811061138d5761138c6149df565b5b90506020020160208101906113a29190614700565b67ffffffffffffffff1667ffffffffffffffff168152602001908152602001600020600080820160006101000a81549060ff02191690556000820160016101000a81549060ff02191690556000820160026101000a8154906fffffffffffffffffffffffffffffffff021916905550505061146d565b670de0b6b3a764000083608001516fffffffffffffffffffffffffffffffff16836fffffffffffffffffffffffffffffffff166114559190614e79565b61145f9190614eea565b8761146a9190614f1b565b96505b83600101935050505061108d565b5060008311156114d3576114d23384600160009054906101000a900473ffffffffffffffffffffffffffffffffffffffff1673ffffffffffffffffffffffffffffffffffffffff166129639092919063ffffffff16565b5b6000826fffffffffffffffffffffffffffffffff16111561158b57600660009054906101000a900473ffffffffffffffffffffffffffffffffffffffff1673ffffffffffffffffffffffffffffffffffffffff1663f242432a303361153860006128b7565b866040518563ffffffff1660e01b81526004016115589493929190614f86565b600060405180830381600087803b15801561157257600080fd5b505af1158015611586573d6000803e3d6000fd5b505050505b6000816fffffffffffffffffffffffffffffffff16111561164357600660009054906101000a900473ffffffffffffffffffffffffffffffffffffffff1673ffffffffffffffffffffffffffffffffffffffff1663f242432a30336115f060016128b7565b856040518563ffffffff1660e01b81526004016116109493929190614f86565b600060405180830381600087803b15801561162a57600080fd5b505af115801561163e573d6000803e3d6000fd5b505050505b600460009054906101000a900473ffffffffffffffffffffffffffffffffffffffff1673ffffffffffffffffffffffffffffffffffffffff166368118e4387876040518363ffffffff1660e01b81526004016116a0929190615374565b600060405180830381600087803b1580156116ba57600080fd5b505af11580156116ce573d6000803e3d6000fd5b5050505060005b84811015611746578686828181106116f0576116ef6149df565b5b90506020020160208101906117059190614700565b67ffffffffffffffff167f413c1ea791e99e4774c2bdb5634eb463180b94450f02a3712b75fd6f638f38ab60405160405180910390a28060010190506116d5565b5050505050611753612844565b5050565b60088054906101000a900467ffffffffffffffff1681565b60006117796126b9565b611794826fffffffffffffffffffffffffffffffff166126ff565b61179c61273c565b6000670de0b6b3a7640000836fffffffffffffffffffffffffffffffff16856fffffffffffffffffffffffffffffffff166117d79190614e79565b6117e19190614eea565b9050611832333083600160009054906101000a900473ffffffffffffffffffffffffffffffffffffffff1673ffffffffffffffffffffffffffffffffffffffff166127c2909392919063ffffffff16565b61185e600460009054906101000a900473ffffffffffffffffffffffffffffffffffffffff16826129e2565b600460009054906101000a900473ffffffffffffffffffffffffffffffffffffffff1673ffffffffffffffffffffffffffffffffffffffff1663a3085c8f3360088054906101000a900467ffffffffffffffff168888886040518663ffffffff1660e01b81526004016118d5959493929190615398565b6020604051808303816000875af11580156118f4573d6000803e3d6000fd5b505050506040513d601f19601f8201168201806040525081019061191891906153eb565b91503373ffffffffffffffffffffffffffffffffffffffff167faf089a5530c30b6e81e8bfa7d71a843c2a20de5dcd826260d4b89393b08515bb86868660405161196493929190615122565b60405180910390a250611975612844565b9392505050565b600460009054906101000a900473ffffffffffffffffffffffffffffffffffffffff1681565b600760149054906101000a900467ffffffffffffffff1681565b6119c46126b9565b6119df816fffffffffffffffffffffffffffffffff166126ff565b600660009054906101000a900473ffffffffffffffffffffffffffffffffffffffff1673ffffffffffffffffffffffffffffffffffffffff166301463597336002546000856040518563ffffffff1660e01b8152600401611a4394939291906148eb565b600060405180830381600087803b158015611a5d57600080fd5b505af1158015611a71573d6000803e3d6000fd5b50505050600660009054906101000a900473ffffffffffffffffffffffffffffffffffffffff1673ffffffffffffffffffffffffffffffffffffffff166301463597336002546001856040518563ffffffff1660e01b8152600401611ad9949392919061496b565b600060405180830381600087803b158015611af357600080fd5b505af1158015611b07573d6000803e3d6000fd5b50505050611b6a33826fffffffffffffffffffffffffffffffff16600160009054906101000a900473ffffffffffffffffffffffffffffffffffffffff1673ffffffffffffffffffffffffffffffffffffffff166129639092919063ffffffff16565b611b72612844565b50565b600080611b806126b9565b611b9b856fffffffffffffffffffffffffffffffff166126ff565b611ba361273c565b6000600460009054906101000a900473ffffffffffffffffffffffffffffffffffffffff1673ffffffffffffffffffffffffffffffffffffffff1663a042acb660088054906101000a900467ffffffffffffffff16896706f05b59d3b200008a6040518563ffffffff1660e01b8152600401611c229493929190614b9c565b600060405180830381865afa158015611c3f573d6000803e3d6000fd5b505050506040513d6000823e3d601f19601f82011682018060405250810190611c689190614dbd565b905060008060005b8351811015611d3c57838181518110611c8c57611c8b6149df565b5b60200260200101516040015183611ca39190614e35565b9250670de0b6b3a7640000848281518110611cc157611cc06149df565b5b6020026020010151606001516fffffffffffffffffffffffffffffffff16858381518110611cf257611cf16149df565b5b6020026020010151604001516fffffffffffffffffffffffffffffffff16611d1a9190614e79565b611d249190614eea565b82611d2f9190614f1b565b9150806001019050611c70565b50866fffffffffffffffffffffffffffffffff16811115611d89576040517f026cb3c600000000000000000000000000000000000000000000000000000000815260040160405180910390fd5b858015611db95750876fffffffffffffffffffffffffffffffff16826fffffffffffffffffffffffffffffffff16105b15611df0576040517fa58b036500000000000000000000000000000000000000000000000000000000815260040160405180910390fd5b6000600167ffffffffffffffff811115611e0d57611e0c6149b0565b5b604051908082528060200260200182016040528015611e4657816020015b611e33613c2e565b815260200190600190039081611e2b5790505b509050604051806080016040528060088054906101000a900467ffffffffffffffff1667ffffffffffffffff1681526020018b151581526020016706f05b59d3b200006fffffffffffffffffffffffffffffffff1681526020018a6fffffffffffffffffffffffffffffffff1681525081600081518110611eca57611ec96149df565b5b6020026020010181905250600080611ee183612ade565b925050915081600081518110611efa57611ef96149df565b5b6020026020010151975080600081518110611f1857611f176149df565b5b60200260200101519650896fffffffffffffffffffffffffffffffff16876fffffffffffffffffffffffffffffffff161115611f80576040517f56afc9f100000000000000000000000000000000000000000000000000000000815260040160405180910390fd5b888015611fb057508a6fffffffffffffffffffffffffffffffff16886fffffffffffffffffffffffffffffffff16105b15611fe7576040517ff172c67700000000000000000000000000000000000000000000000000000000815260040160405180910390fd5b505050505050611ff5612844565b94509492505050565b6060806120096126b9565b61201161273c565b6120708484808060200260200160405190810160405280939291908181526020016000905b82821015612066578484839050608002018036038101906120579190615490565b81526020019060010190612036565b5050505050612ade565b508092508193505050612081612844565b9250929050565b6002548173ffffffffffffffffffffffffffffffffffffffff167f851665af6e4e9430c7ecdf760410892dc4e51270dd981b9be1c39c7eb457a0ab60405160405180910390a350565b60006120db6126b9565b6120f6826fffffffffffffffffffffffffffffffff166126ff565b6120fe61273c565b60008461210c57600161210f565b60005b9050600660009054906101000a900473ffffffffffffffffffffffffffffffffffffffff1673ffffffffffffffffffffffffffffffffffffffff1663f242432a333061215d8560ff166128b7565b876040518563ffffffff1660e01b815260040161217d9493929190614f86565b600060405180830381600087803b15801561219757600080fd5b505af11580156121ab573d6000803e3d6000fd5b50505050600460009054906101000a900473ffffffffffffffffffffffffffffffffffffffff1673ffffffffffffffffffffffffffffffffffffffff1663a3085c8f3360088054906101000a900467ffffffffffffffff16881588886040518663ffffffff1660e01b8152600401612227959493929190615398565b6020604051808303816000875af1158015612246573d6000803e3d6000fd5b505050506040513d601f19601f8201168201806040525081019061226a91906153eb565b915060405180606001604052806001151581526020018260ff168152602001846fffffffffffffffffffffffffffffffff16815250600960008467ffffffffffffffff1667ffffffffffffffff16815260200190815260200160002060008201518160000160006101000a81548160ff02191690831515021790555060208201518160000160016101000a81548160ff021916908360ff16021790555060408201518160000160026101000a8154816fffffffffffffffffffffffffffffffff02191690836fffffffffffffffffffffffffffffffff1602179055509050508167ffffffffffffffff163373ffffffffffffffffffffffffffffffffffffffff167f1ac539db812209d78c16e831f4bf0f351748c0d3a432f2c116a750865e21c51087878760405161239e93929190615122565b60405180910390a3506123af612844565b9392505050565b6123be6126b9565b6123c78261284e565b6123d0816126ff565b600080600760009054906101000a900473ffffffffffffffffffffffffffffffffffffffff1673ffffffffffffffffffffffffffffffffffffffff166040516024016040516020818303038152906040527f5dbdcdad000000000000000000000000000000000000000000000000000000007bffffffffffffffffffffffffffffffffffffffffffffffffffffffff19166020820180517bffffffffffffffffffffffffffffffffffffffffffffffffffffffff838183161783525050505060405161249c919061552e565b600060405180830381855afa9150503d80600081146124d7576040519150601f19603f3d011682016040523d82523d6000602084013e6124dc565b606091505b509150915081612518576040517fee9f0bb400000000000000000000000000000000000000000000000000000000815260040160405180910390fd5b60008180602001905181019061252e9190615583565b90508073ffffffffffffffffffffffffffffffffffffffff163373ffffffffffffffffffffffffffffffffffffffff1614612595576040517f2d7d50c300000000000000000000000000000000000000000000000000000000815260040160405180910390fd5b6125e28585600160009054906101000a900473ffffffffffffffffffffffffffffffffffffffff1673ffffffffffffffffffffffffffffffffffffffff166129639092919063ffffffff16565b5050506125ed612844565b5050565b600760009054906101000a900473ffffffffffffffffffffffffffffffffffffffff1681565b600160009054906101000a900473ffffffffffffffffffffffffffffffffffffffff1681565b60035481565b60096020528060005260406000206000915090508060000160009054906101000a900460ff16908060000160019054906101000a900460ff16908060000160029054906101000a90046fffffffffffffffffffffffffffffffff16905083565b600063f23a6e6160e01b90509695505050505050565b6002600054036126f5576040517f3ee5aeb500000000000000000000000000000000000000000000000000000000815260040160405180910390fd5b6002600081905550565b60008103612739576040517f1f2a200500000000000000000000000000000000000000000000000000000000815260040160405180910390fd5b50565b600760149054906101000a900467ffffffffffffffff1667ffffffffffffffff164210806127895750600860009054906101000a900467ffffffffffffffff1667ffffffffffffffff1642115b156127c0576040517fb521771a00000000000000000000000000000000000000000000000000000000815260040160405180910390fd5b565b61283e848573ffffffffffffffffffffffffffffffffffffffff166323b872dd8686866040516024016127f7939291906155b0565b604051602081830303815290604052915060e01b6020820180517bffffffffffffffffffffffffffffffffffffffffffffffffffffffff838183161783525050505061330e565b50505050565b6001600081905550565b600073ffffffffffffffffffffffffffffffffffffffff168173ffffffffffffffffffffffffffffffffffffffff16036128b4576040517fd92e233d00000000000000000000000000000000000000000000000000000000815260040160405180910390fd5b50565b6000600660009054906101000a900473ffffffffffffffffffffffffffffffffffffffff1673ffffffffffffffffffffffffffffffffffffffff16639c261677600254846040518363ffffffff1660e01b81526004016129189291906155e7565b602060405180830381865afa158015612935573d6000803e3d6000fd5b505050506040513d601f19601f820116820180604052508101906129599190615625565b60001c9050919050565b6129dd838473ffffffffffffffffffffffffffffffffffffffff1663a9059cbb8585604051602401612996929190615652565b604051602081830303815290604052915060e01b6020820180517bffffffffffffffffffffffffffffffffffffffffffffffffffffffff838183161783525050505061330e565b505050565b6000600160009054906101000a900473ffffffffffffffffffffffffffffffffffffffff1673ffffffffffffffffffffffffffffffffffffffff1663dd62ed3e30856040518363ffffffff1660e01b8152600401612a4192919061567b565b602060405180830381865afa158015612a5e573d6000803e3d6000fd5b505050506040513d601f19601f82011682018060405250810190612a8291906156b9565b9050818114612ad957612ad88383600160009054906101000a900473ffffffffffffffffffffffffffffffffffffffff1673ffffffffffffffffffffffffffffffffffffffff166133b09092919063ffffffff16565b5b505050565b60608060606000845190508067ffffffffffffffff811115612b0357612b026149b0565b5b604051908082528060200260200182016040528015612b315781602001602082028036833780820191505090505b5093508067ffffffffffffffff811115612b4e57612b4d6149b0565b5b604051908082528060200260200182016040528015612b7c5781602001602082028036833780820191505090505b5092508067ffffffffffffffff811115612b9957612b986149b0565b5b604051908082528060200260200182016040528015612bc75781602001602082028036833780820191505090505b50915060008167ffffffffffffffff811115612be657612be56149b0565b5b604051908082528060200260200182016040528015612c145781602001602082028036833780820191505090505b509050600080600090505b83811015612d9a57612c60888281518110612c3d57612c3c6149df565b5b6020026020010151606001516fffffffffffffffffffffffffffffffff166126ff565b670de0b6b3a7640000888281518110612c7c57612c7b6149df565b5b6020026020010151606001516fffffffffffffffffffffffffffffffff16898381518110612cad57612cac6149df565b5b6020026020010151604001516fffffffffffffffffffffffffffffffff16612cd59190614e79565b612cdf9190614eea565b838281518110612cf257612cf16149df565b5b602002602001018181525050828181518110612d1157612d106149df565b5b602002602001015182612d249190614f1b565b9150612d8f3330858481518110612d3e57612d3d6149df565b5b6020026020010151600160009054906101000a900473ffffffffffffffffffffffffffffffffffffffff1673ffffffffffffffffffffffffffffffffffffffff166127c2909392919063ffffffff16565b806001019050612c1f565b506000811115612dd157612dd0600560009054906101000a900473ffffffffffffffffffffffffffffffffffffffff16826129e2565b5b606080600560009054906101000a900473ffffffffffffffffffffffffffffffffffffffff1673ffffffffffffffffffffffffffffffffffffffff1663235026398a6040518263ffffffff1660e01b8152600401612e2f91906157f9565b6000604051808303816000875af1158015612e4e573d6000803e3d6000fd5b505050506040513d6000823e3d601f19601f82011682018060405250810190612e7791906159bf565b809250819350505060005b85811015613301576000828281518110612e9f57612e9e6149df565b5b60200260200101516fffffffffffffffffffffffffffffffff1603612f3057612f2533868381518110612ed557612ed46149df565b5b6020026020010151600160009054906101000a900473ffffffffffffffffffffffffffffffffffffffff1673ffffffffffffffffffffffffffffffffffffffff166129639092919063ffffffff16565b8060010190506132fc565b6000838281518110612f4557612f446149df565b5b60200260200101519050600460009054906101000a900473ffffffffffffffffffffffffffffffffffffffff1673ffffffffffffffffffffffffffffffffffffffff166393cf61f1826040518263ffffffff1660e01b8152600401612faa9190615100565b600060405180830381600087803b158015612fc457600080fd5b505af1158015612fd8573d6000803e3d6000fd5b50505050600080600090505b82518110156130715782818151811061300057612fff6149df565b5b6020026020010151604001516fffffffffffffffffffffffffffffffff16838281518110613031576130306149df565b5b6020026020010151606001516fffffffffffffffffffffffffffffffff166130599190614e79565b826130649190614f1b565b9150806001019050612fe4565b50838381518110613085576130846149df565b5b60200260200101516fffffffffffffffffffffffffffffffff16816130aa9190614eea565b8a84815181106130bd576130bc6149df565b5b60200260200101906fffffffffffffffffffffffffffffffff1690816fffffffffffffffffffffffffffffffff1681525050838381518110613102576131016149df565b5b60200260200101518b848151811061311d5761311c6149df565b5b60200260200101906fffffffffffffffffffffffffffffffff1690816fffffffffffffffffffffffffffffffff16815250506000670de0b6b3a7640000826131659190614eea565b9050808a858151811061317b5761317a6149df565b5b6020026020010181815250506131b0338e868151811061319e5761319d6149df565b5b602002602001015160200151856134bf565b6131b98361386b565b808885815181106131cd576131cc6149df565b5b6020026020010151111561324e5761324d33828a87815181106131f3576131f26149df565b5b60200260200101516132059190615a37565b600160009054906101000a900473ffffffffffffffffffffffffffffffffffffffff1673ffffffffffffffffffffffffffffffffffffffff166129639092919063ffffffff16565b5b3373ffffffffffffffffffffffffffffffffffffffff167f4f51d23d3b44197387b6d0429e640888e58701a79ca29520ae31960185c29a208e8681518110613299576132986149df565b5b6020026020010151602001518787815181106132b8576132b76149df565b5b60200260200101518e88815181106132d3576132d26149df565b5b60200260200101516040516132ea93929190615122565b60405180910390a28360010193505050505b612e82565b5050505050509193909250565b600080602060008451602086016000885af180613331576040513d6000823e3d81fd5b3d92506000519150506000821461334c576001811415613368565b60008473ffffffffffffffffffffffffffffffffffffffff163b145b156133aa57836040517f5274afe70000000000000000000000000000000000000000000000000000000081526004016133a1919061467f565b60405180910390fd5b50505050565b60008373ffffffffffffffffffffffffffffffffffffffff1663095ea7b384846040516024016133e1929190615652565b604051602081830303815290604052915060e01b6020820180517bffffffffffffffffffffffffffffffffffffffffffffffffffffffff8381831617835250505050905061342f8482613bce565b6134b9576134ae848573ffffffffffffffffffffffffffffffffffffffff1663095ea7b3866000604051602401613467929190615a6b565b604051602081830303815290604052915060e01b6020820180517bffffffffffffffffffffffffffffffffffffffffffffffffffffffff838183161783525050505061330e565b6134b8848261330e565b5b50505050565b6000826134cd5760016134d0565b60005b905060006134e08260ff166128b7565b9050600080600090505b84518110156137b15760006009600087848151811061350c5761350b6149df565b5b60200260200101516000015167ffffffffffffffff1667ffffffffffffffff16815260200190815260200160002090508060000160009054906101000a900460ff1615613778578460ff168160000160019054906101000a900460ff1660ff16146135a3576040517ff6b4f87e00000000000000000000000000000000000000000000000000000000815260040160405180910390fd5b8582815181106135b6576135b56149df565b5b6020026020010151604001516fffffffffffffffffffffffffffffffff168160000160029054906101000a90046fffffffffffffffffffffffffffffffff166fffffffffffffffffffffffffffffffff16101561363f576040517fe899aa5600000000000000000000000000000000000000000000000000000000815260040160405180910390fd5b858281518110613652576136516149df565b5b6020026020010151604001518160000160028282829054906101000a90046fffffffffffffffffffffffffffffffff1661368c919061527c565b92506101000a8154816fffffffffffffffffffffffffffffffff02191690836fffffffffffffffffffffffffffffffff160217905550600660009054906101000a900473ffffffffffffffffffffffffffffffffffffffff1673ffffffffffffffffffffffffffffffffffffffff1663f242432a308a878a8781518110613716576137156149df565b5b6020026020010151604001516040518563ffffffff1660e01b81526004016137419493929190614f86565b600060405180830381600087803b15801561375b57600080fd5b505af115801561376f573d6000803e3d6000fd5b505050506137a5565b85828151811061378b5761378a6149df565b5b602002602001015160400151836137a29190614e35565b92505b816001019150506134ea565b506000816fffffffffffffffffffffffffffffffff16111561386357600660009054906101000a900473ffffffffffffffffffffffffffffffffffffffff1673ffffffffffffffffffffffffffffffffffffffff1663296ed2cb8760025486856040518563ffffffff1660e01b81526004016138309493929190615ac5565b600060405180830381600087803b15801561384a57600080fd5b505af115801561385e573d6000803e3d6000fd5b505050505b505050505050565b60008151905060008167ffffffffffffffff81111561388d5761388c6149b0565b5b6040519080825280602002602001820160405280156138bb5781602001602082028036833780820191505090505b50905060008267ffffffffffffffff8111156138da576138d96149b0565b5b6040519080825280602002602001820160405280156139085781602001602082028036833780820191505090505b509050600080600090505b84811015613b0a5760008682815181106139305761392f6149df565b5b60200260200101516020015190506000670de0b6b3a764000088848151811061395c5761395b6149df565b5b6020026020010151606001516fffffffffffffffffffffffffffffffff1689858151811061398d5761398c6149df565b5b6020026020010151604001516fffffffffffffffffffffffffffffffff166139b59190614e79565b6139bf9190614eea565b9050600081036139d6578260010192505050613b05565b600080600090505b85811015613a78578373ffffffffffffffffffffffffffffffffffffffff16888281518110613a1057613a0f6149df565b5b602002602001015173ffffffffffffffffffffffffffffffffffffffff1603613a6b5782878281518110613a4757613a466149df565b5b60200260200101818151613a5b9190614f1b565b9150818152505060019150613a78565b80806001019150506139de565b5080613afb5782878681518110613a9257613a916149df565b5b602002602001019073ffffffffffffffffffffffffffffffffffffffff16908173ffffffffffffffffffffffffffffffffffffffff168152505081868681518110613ae057613adf6149df565b5b6020026020010181815250508480613af790615b0a565b9550505b8360010193505050505b613913565b5060005b81811015613bc6576000838281518110613b2b57613b2a6149df565b5b60200260200101511115613bbb57613bba848281518110613b4f57613b4e6149df565b5b6020026020010151848381518110613b6a57613b696149df565b5b6020026020010151600160009054906101000a900473ffffffffffffffffffffffffffffffffffffffff1673ffffffffffffffffffffffffffffffffffffffff166129639092919063ffffffff16565b5b806001019050613b0e565b505050505050565b6000806000806020600086516020880160008a5af192503d91506000519050828015613c23575060008214613c065760018114613c22565b60008673ffffffffffffffffffffffffffffffffffffffff163b115b5b935050505092915050565b6040518060800160405280600067ffffffffffffffff16815260200160001515815260200160006fffffffffffffffffffffffffffffffff16815260200160006fffffffffffffffffffffffffffffffff1681525090565b6000604051905090565b600080fd5b600080fd5b60006fffffffffffffffffffffffffffffffff82169050919050565b613cbf81613c9a565b8114613cca57600080fd5b50565b600081359050613cdc81613cb6565b92915050565b600060208284031215613cf857613cf7613c90565b5b6000613d0684828501613ccd565b91505092915050565b600073ffffffffffffffffffffffffffffffffffffffff82169050919050565b6000819050919050565b6000613d54613d4f613d4a84613d0f565b613d2f565b613d0f565b9050919050565b6000613d6682613d39565b9050919050565b6000613d7882613d5b565b9050919050565b613d8881613d6d565b82525050565b6000602082019050613da36000830184613d7f565b92915050565b6000613db482613d0f565b9050919050565b613dc481613da9565b8114613dcf57600080fd5b50565b600081359050613de181613dbb565b92915050565b600080fd5b600080fd5b600080fd5b60008083601f840112613e0c57613e0b613de7565b5b8235905067ffffffffffffffff811115613e2957613e28613dec565b5b602083019150836020820283011115613e4557613e44613df1565b5b9250929050565b60008060008060008060808789031215613e6957613e68613c90565b5b6000613e7789828a01613dd2565b9650506020613e8889828a01613dd2565b955050604087013567ffffffffffffffff811115613ea957613ea8613c95565b5b613eb589828a01613df6565b9450945050606087013567ffffffffffffffff811115613ed857613ed7613c95565b5b613ee489828a01613df6565b92509250509295509295509295565b60007fffffffff0000000000000000000000000000000000000000000000000000000082169050919050565b613f2881613ef3565b82525050565b6000602082019050613f436000830184613f1f565b92915050565b6000819050919050565b613f5c81613f49565b82525050565b6000602082019050613f776000830184613f53565b92915050565b600067ffffffffffffffff82169050919050565b613f9a81613f7d565b82525050565b6000602082019050613fb56000830184613f91565b92915050565b6000613fc682613da9565b9050919050565b613fd681613fbb565b8114613fe157600080fd5b50565b600081359050613ff381613fcd565b92915050565b61400281613f49565b811461400d57600080fd5b50565b60008135905061401f81613ff9565b92915050565b6000819050919050565b61403881614025565b811461404357600080fd5b50565b6000813590506140558161402f565b92915050565b61406481613f7d565b811461406f57600080fd5b50565b6000813590506140818161405b565b92915050565b600061409282613da9565b9050919050565b6140a281614087565b81146140ad57600080fd5b50565b6000813590506140bf81614099565b92915050565b60006140d082613da9565b9050919050565b6140e0816140c5565b81146140eb57600080fd5b50565b6000813590506140fd816140d7565b92915050565b600061410e82613da9565b9050919050565b61411e81614103565b811461412957600080fd5b50565b60008135905061413b81614115565b92915050565b60008060008060008060008060006101208a8c03121561416457614163613c90565b5b60006141728c828d01613fe4565b99505060206141838c828d01614010565b98505060406141948c828d01614046565b97505060606141a58c828d01614072565b96505060806141b68c828d01614072565b95505060a06141c78c828d01614072565b94505060c06141d88c828d016140b0565b93505060e06141e98c828d016140ee565b9250506101006141fb8c828d0161412c565b9150509295985092959850929598565b60008115159050919050565b6142208161420b565b811461422b57600080fd5b50565b60008135905061423d81614217565b92915050565b60008060006060848603121561425c5761425b613c90565b5b600061426a8682870161422e565b935050602061427b86828701613ccd565b925050604061428c86828701613ccd565b9150509250925092565b61429f81613c9a565b82525050565b60006020820190506142ba6000830184614296565b92915050565b60006142cb82613d5b565b9050919050565b6142db816142c0565b82525050565b60006020820190506142f660008301846142d2565b92915050565b60008083601f84011261431257614311613de7565b5b8235905067ffffffffffffffff81111561432f5761432e613dec565b5b60208301915083602082028301111561434b5761434a613df1565b5b9250929050565b6000806020838503121561436957614368613c90565b5b600083013567ffffffffffffffff81111561438757614386613c95565b5b614393858286016142fc565b92509250509250929050565b60006143aa82613d5b565b9050919050565b6143ba8161439f565b82525050565b60006020820190506143d560008301846143b1565b92915050565b600080600080608085870312156143f5576143f4613c90565b5b60006144038782880161422e565b945050602061441487828801613ccd565b935050604061442587828801613ccd565b92505060606144368782880161422e565b91505092959194509250565b60006040820190506144576000830185614296565b6144646020830184614296565b9392505050565b60008083601f84011261448157614480613de7565b5b8235905067ffffffffffffffff81111561449e5761449d613dec565b5b6020830191508360808202830111156144ba576144b9613df1565b5b9250929050565b600080602083850312156144d8576144d7613c90565b5b600083013567ffffffffffffffff8111156144f6576144f5613c95565b5b6145028582860161446b565b92509250509250929050565b600081519050919050565b600082825260208201905092915050565b6000819050602082019050919050565b61454381613c9a565b82525050565b6000614555838361453a565b60208301905092915050565b6000602082019050919050565b60006145798261450e565b6145838185614519565b935061458e8361452a565b8060005b838110156145bf5781516145a68882614549565b97506145b183614561565b925050600181019050614592565b5085935050505092915050565b600060408201905081810360008301526145e6818561456e565b905081810360208301526145fa818461456e565b90509392505050565b60006020828403121561461957614618613c90565b5b600061462784828501613dd2565b91505092915050565b6000806040838503121561464757614646613c90565b5b600061465585828601613dd2565b925050602061466685828601614046565b9150509250929050565b61467981613da9565b82525050565b60006020820190506146946000830184614670565b92915050565b60006146a582613d5b565b9050919050565b6146b58161469a565b82525050565b60006020820190506146d060008301846146ac565b92915050565b6146df81614025565b82525050565b60006020820190506146fa60008301846146d6565b92915050565b60006020828403121561471657614715613c90565b5b600061472484828501614072565b91505092915050565b6147368161420b565b82525050565b600060ff82169050919050565b6147528161473c565b82525050565b600060608201905061476d600083018661472d565b61477a6020830185614749565b6147876040830184614296565b949350505050565b60008083601f8401126147a5576147a4613de7565b5b8235905067ffffffffffffffff8111156147c2576147c1613dec565b5b6020830191508360018202830111156147de576147dd613df1565b5b9250929050565b60008060008060008060a0878903121561480257614801613c90565b5b600061481089828a01613dd2565b965050602061482189828a01613dd2565b955050604061483289828a01614046565b945050606061484389828a01614046565b935050608087013567ffffffffffffffff81111561486457614863613c95565b5b61487089828a0161478f565b92509250509295509295509295565b6000819050919050565b60006148a461489f61489a8461487f565b613d2f565b614025565b9050919050565b6148b481614889565b82525050565b60006148d56148d06148cb84613c9a565b613d2f565b614025565b9050919050565b6148e5816148ba565b82525050565b60006080820190506149006000830187614670565b61490d6020830186613f53565b61491a60408301856148ab565b61492760608301846148dc565b95945050505050565b6000819050919050565b600061495561495061494b84614930565b613d2f565b614025565b9050919050565b6149658161493a565b82525050565b60006080820190506149806000830187614670565b61498d6020830186613f53565b61499a604083018561495c565b6149a760608301846148dc565b95945050505050565b7f4e487b7100000000000000000000000000000000000000000000000000000000600052604160045260246000fd5b7f4e487b7100000000000000000000000000000000000000000000000000000000600052603260045260246000fd5b6000819050919050565b6000614a33614a2e614a2984614a0e565b613d2f565b614025565b9050919050565b614a4381614a18565b82525050565b600081519050919050565b600082825260208201905092915050565b6000819050602082019050919050565b614a7e81614025565b82525050565b6000614a908383614a75565b60208301905092915050565b6000602082019050919050565b6000614ab482614a49565b614abe8185614a54565b9350614ac983614a65565b8060005b83811015614afa578151614ae18882614a84565b9750614aec83614a9c565b925050600181019050614acd565b5085935050505092915050565b600060a082019050614b1c6000830188613f53565b614b296020830187614670565b614b366040830186613f53565b614b436060830185614a3a565b8181036080830152614b558184614aa9565b90509695505050505050565b6000819050919050565b6000614b86614b81614b7c84614b61565b613d2f565b613c9a565b9050919050565b614b9681614b6b565b82525050565b6000608082019050614bb16000830187613f91565b614bbe602083018661472d565b614bcb6040830185614b8d565b614bd86060830184614296565b95945050505050565b6000601f19601f8301169050919050565b614bfb82614be1565b810181811067ffffffffffffffff82111715614c1a57614c196149b0565b5b80604052505050565b6000614c2d613c86565b9050614c398282614bf2565b919050565b600067ffffffffffffffff821115614c5957614c586149b0565b5b602082029050602081019050919050565b600080fd5b600081519050614c7e8161405b565b92915050565b600081519050614c9381613dbb565b92915050565b600081519050614ca881613cb6565b92915050565b600060808284031215614cc457614cc3614c6a565b5b614cce6080614c23565b90506000614cde84828501614c6f565b6000830152506020614cf284828501614c84565b6020830152506040614d0684828501614c99565b6040830152506060614d1a84828501614c99565b60608301525092915050565b6000614d39614d3484614c3e565b614c23565b90508083825260208201905060808402830185811115614d5c57614d5b613df1565b5b835b81811015614d855780614d718882614cae565b845260208401935050608081019050614d5e565b5050509392505050565b600082601f830112614da457614da3613de7565b5b8151614db4848260208601614d26565b91505092915050565b600060208284031215614dd357614dd2613c90565b5b600082015167ffffffffffffffff811115614df157614df0613c95565b5b614dfd84828501614d8f565b91505092915050565b7f4e487b7100000000000000000000000000000000000000000000000000000000600052601160045260246000fd5b6000614e4082613c9a565b9150614e4b83613c9a565b925082820190506fffffffffffffffffffffffffffffffff811115614e7357614e72614e06565b5b92915050565b6000614e8482614025565b9150614e8f83614025565b9250828202614e9d81614025565b91508282048414831517614eb457614eb3614e06565b5b5092915050565b7f4e487b7100000000000000000000000000000000000000000000000000000000600052601260045260246000fd5b6000614ef582614025565b9150614f0083614025565b925082614f1057614f0f614ebb565b5b828204905092915050565b6000614f2682614025565b9150614f3183614025565b9250828201905080821115614f4957614f48614e06565b5b92915050565b600082825260208201905092915050565b50565b6000614f70600083614f4f565b9150614f7b82614f60565b600082019050919050565b600060a082019050614f9b6000830187614670565b614fa86020830186614670565b614fb560408301856146d6565b614fc260608301846148dc565b8181036080830152614fd381614f63565b905095945050505050565b600081519050919050565b600082825260208201905092915050565b6000819050602082019050919050565b61501381613f7d565b82525050565b61502281613da9565b82525050565b60808201600082015161503e600085018261500a565b5060208201516150516020850182615019565b506040820151615064604085018261453a565b506060820151615077606085018261453a565b50505050565b60006150898383615028565b60808301905092915050565b6000602082019050919050565b60006150ad82614fde565b6150b78185614fe9565b93506150c283614ffa565b8060005b838110156150f35781516150da888261507d565b97506150e583615095565b9250506001810190506150c6565b5085935050505092915050565b6000602082019050818103600083015261511a81846150a2565b905092915050565b6000606082019050615137600083018661472d565b6151446020830185614296565b6151516040830184614296565b949350505050565b60008151905061516881614217565b92915050565b6000610120828403121561518557615184614c6a565b5b615190610120614c23565b905060006151a084828501614c6f565b60008301525060206151b484828501614c6f565b60208301525060406151c884828501614c84565b60408301525060606151dc84828501615159565b60608301525060806151f084828501614c99565b60808301525060a061520484828501614c99565b60a08301525060c061521884828501614c99565b60c08301525060e061522c84828501614c6f565b60e08301525061010061524184828501615159565b6101008301525092915050565b6000610120828403121561526557615264613c90565b5b60006152738482850161516e565b91505092915050565b600061528782613c9a565b915061529283613c9a565b925082820390506fffffffffffffffffffffffffffffffff8111156152ba576152b9614e06565b5b92915050565b600082825260208201905092915050565b6000819050919050565b60006152e7838361500a565b60208301905092915050565b60006153026020840184614072565b905092915050565b6000602082019050919050565b600061532383856152c0565b935061532e826152d1565b8060005b858110156153675761534482846152f3565b61534e88826152db565b97506153598361530a565b925050600181019050615332565b5085925050509392505050565b6000602082019050818103600083015261538f818486615317565b90509392505050565b600060a0820190506153ad6000830188614670565b6153ba6020830187613f91565b6153c7604083018661472d565b6153d46060830185614296565b6153e16080830184614296565b9695505050505050565b60006020828403121561540157615400613c90565b5b600061540f84828501614c6f565b91505092915050565b60006080828403121561542e5761542d614c6a565b5b6154386080614c23565b9050600061544884828501614072565b600083015250602061545c8482850161422e565b602083015250604061547084828501613ccd565b604083015250606061548484828501613ccd565b60608301525092915050565b6000608082840312156154a6576154a5613c90565b5b60006154b484828501615418565b91505092915050565b600081519050919050565b600081905092915050565b60005b838110156154f15780820151818401526020810190506154d6565b60008484015250505050565b6000615508826154bd565b61551281856154c8565b93506155228185602086016154d3565b80840191505092915050565b600061553a82846154fd565b915081905092915050565b600061555082613d0f565b9050919050565b61556081615545565b811461556b57600080fd5b50565b60008151905061557d81615557565b92915050565b60006020828403121561559957615598613c90565b5b60006155a78482850161556e565b91505092915050565b60006060820190506155c56000830186614670565b6155d26020830185614670565b6155df60408301846146d6565b949350505050565b60006040820190506155fc6000830185613f53565b61560960208301846146d6565b9392505050565b60008151905061561f81613ff9565b92915050565b60006020828403121561563b5761563a613c90565b5b600061564984828501615610565b91505092915050565b60006040820190506156676000830185614670565b61567460208301846146d6565b9392505050565b60006040820190506156906000830185614670565b61569d6020830184614670565b9392505050565b6000815190506156b38161402f565b92915050565b6000602082840312156156cf576156ce613c90565b5b60006156dd848285016156a4565b91505092915050565b600081519050919050565b600082825260208201905092915050565b6000819050602082019050919050565b61571b8161420b565b82525050565b608082016000820151615737600085018261500a565b50602082015161574a6020850182615712565b50604082015161575d604085018261453a565b506060820151615770606085018261453a565b50505050565b60006157828383615721565b60808301905092915050565b6000602082019050919050565b60006157a6826156e6565b6157b081856156f1565b93506157bb83615702565b8060005b838110156157ec5781516157d38882615776565b97506157de8361578e565b9250506001810190506157bf565b5085935050505092915050565b60006020820190508181036000830152615813818461579b565b905092915050565b600067ffffffffffffffff821115615836576158356149b0565b5b602082029050602081019050919050565b600061585a6158558461581b565b614c23565b9050808382526020820190506020840283018581111561587d5761587c613df1565b5b835b818110156158c457805167ffffffffffffffff8111156158a2576158a1613de7565b5b8086016158af8982614d8f565b8552602085019450505060208101905061587f565b5050509392505050565b600082601f8301126158e3576158e2613de7565b5b81516158f3848260208601615847565b91505092915050565b600067ffffffffffffffff821115615917576159166149b0565b5b602082029050602081019050919050565b600061593b615936846158fc565b614c23565b9050808382526020820190506020840283018581111561595e5761595d613df1565b5b835b8181101561598757806159738882614c99565b845260208401935050602081019050615960565b5050509392505050565b600082601f8301126159a6576159a5613de7565b5b81516159b6848260208601615928565b91505092915050565b600080604083850312156159d6576159d5613c90565b5b600083015167ffffffffffffffff8111156159f4576159f3613c95565b5b615a00858286016158ce565b925050602083015167ffffffffffffffff811115615a2157615a20613c95565b5b615a2d85828601615991565b9150509250929050565b6000615a4282614025565b9150615a4d83614025565b9250828203905081811115615a6557615a64614e06565b5b92915050565b6000604082019050615a806000830185614670565b615a8d60208301846148ab565b9392505050565b6000615aaf615aaa615aa58461473c565b613d2f565b614025565b9050919050565b615abf81615a94565b82525050565b6000608082019050615ada6000830187614670565b615ae76020830186613f53565b615af46040830185615ab6565b615b0160608301846148dc565b95945050505050565b6000615b1582614025565b91507fffffffffffffffffffffffffffffffffffffffffffffffffffffffffffffffff8203615b4757615b46614e06565b5b60018201905091905056fea264697066735822122037aa02ecfb22a23efc60fa1a31f7d80e02a3b8c79da759a86ad49dfb163bf6dc64736f6c634300081a0033",
  "linkReferences": {},
  "deployedLinkReferences": {}
}