{
  "_format": "hh-sol-artifact-1",
  "contractName": "Market",
  "sourceName": "contracts/core/Market.sol",
  "abi": [
    {
      "inputs": [],
      "stateMutability": "nonpayable",
      "type": "constructor"
    },
    {
      "inputs": [],
      "name": "AlreadyInitialized",
      "type": "error"
    },
    {
      "inputs": [],
      "name": "BuySharesFOKNotFillable",
      "type": "error"
    },
    {
      "inputs": [],
      "name": "BuySharesFOKNotFilledOnchain",
      "type": "error"
    },
    {
      "inputs": [],
      "name": "BuySharesOnchainCostExceeded",
      "type": "error"
    },
    {
      "inputs": [],
      "name": "BuySharesPreviewCostExceeded",
      "type": "error"
    },
    {
      "inputs": [],
      "name": "CanNotCancel",
      "type": "error"
    },
    {
      "inputs": [],
      "name": "EscrowOutcomeMismatch",
      "type": "error"
    },
    {
      "inputs": [],
      "name": "EscrowUnderfilled",
      "type": "error"
    },
    {
      "inputs": [],
      "name": "InvalidTimeRange",
      "type": "error"
    },
    {
      "inputs": [],
      "name": "MarketNotActive",
      "type": "error"
    },
    {
      "inputs": [],
      "name": "NotSettlementManager",
      "type": "error"
    },
    {
      "inputs": [],
      "name": "NotYourOrder",
      "type": "error"
    },
    {
      "inputs": [],
      "name": "ReentrancyGuardReentrantCall",
      "type": "error"
    },
    {
      "inputs": [
        {
          "internalType": "address",
          "name": "token",
          "type": "address"
        }
      ],
      "name": "SafeERC20FailedOperation",
      "type": "error"
    },
    {
      "inputs": [],
      "name": "SellSharesBelowMinReceive",
      "type": "error"
    },
    {
      "inputs": [],
      "name": "SettlementManagerLookupFailed",
      "type": "error"
    },
    {
      "inputs": [],
      "name": "ZeroAddress",
      "type": "error"
    },
    {
      "inputs": [],
      "name": "ZeroAmount",
      "type": "error"
    },
    {
      "anonymous": false,
      "inputs": [
        {
          "indexed": true,
          "internalType": "uint64",
          "name": "orderId",
          "type": "uint64"
        }
      ],
      "name": "OrderCancelled",
      "type": "event"
    },
    {
      "anonymous": false,
      "inputs": [
        {
          "indexed": true,
          "internalType": "address",
          "name": "taker",
          "type": "address"
        },
        {
          "indexed": false,
          "internalType": "bool",
          "name": "isYes",
          "type": "bool"
        },
        {
          "indexed": false,
          "internalType": "uint128",
          "name": "filled",
          "type": "uint128"
        },
        {
          "indexed": false,
          "internalType": "uint128",
          "name": "avgPrice",
          "type": "uint128"
        }
      ],
      "name": "OrderFilled",
      "type": "event"
    },
    {
      "anonymous": false,
      "inputs": [
        {
          "indexed": true,
          "internalType": "address",
          "name": "maker",
          "type": "address"
        },
        {
          "indexed": false,
          "internalType": "bool",
          "name": "isYes",
          "type": "bool"
        },
        {
          "indexed": false,
          "internalType": "uint128",
          "name": "price",
          "type": "uint128"
        },
        {
          "indexed": false,
          "internalType": "uint128",
          "name": "amount",
          "type": "uint128"
        }
      ],
      "name": "OrderPlaced",
      "type": "event"
    },
    {
      "anonymous": false,
      "inputs": [
        {
          "indexed": true,
          "internalType": "address",
          "name": "user",
          "type": "address"
        },
        {
          "indexed": true,
          "internalType": "bytes32",
          "name": "conditionId",
          "type": "bytes32"
        }
      ],
      "name": "Redeemed",
      "type": "event"
    },
    {
      "anonymous": false,
      "inputs": [
        {
          "indexed": true,
          "internalType": "address",
          "name": "maker",
          "type": "address"
        },
        {
          "indexed": false,
          "internalType": "bool",
          "name": "isYes",
          "type": "bool"
        },
        {
          "indexed": false,
          "internalType": "uint128",
          "name": "price",
          "type": "uint128"
        },
        {
          "indexed": false,
          "internalType": "uint128",
          "name": "amount",
          "type": "uint128"
        },
        {
          "indexed": true,
          "internalType": "uint64",
          "name": "orderId",
          "type": "uint64"
        }
      ],
      "name": "ShareSellOrderPlaced",
      "type": "event"
    },
    {
      "inputs": [
        {
          "internalType": "uint128",
          "name": "amount",
          "type": "uint128"
        }
      ],
      "name": "burnSharesForCollateral",
      "outputs": [],
      "stateMutability": "nonpayable",
      "type": "function"
    },
    {
      "inputs": [
        {
          "internalType": "bool",
          "name": "isYes",
          "type": "bool"
        },
        {
          "internalType": "uint128",
          "name": "amount",
          "type": "uint128"
        },
        {
          "internalType": "uint128",
          "name": "maxCost",
          "type": "uint128"
        },
        {
          "internalType": "bool",
          "name": "fillOrKill",
          "type": "bool"
        }
      ],
      "name": "buyShares",
      "outputs": [
        {
          "internalType": "uint128",
          "name": "filled",
          "type": "uint128"
        },
        {
          "internalType": "uint128",
          "name": "cost",
          "type": "uint128"
        }
      ],
      "stateMutability": "nonpayable",
      "type": "function"
    },
    {
      "inputs": [
        {
          "internalType": "uint64[]",
          "name": "orderIds",
          "type": "uint64[]"
        }
      ],
      "name": "cancelOrder",
      "outputs": [],
      "stateMutability": "nonpayable",
      "type": "function"
    },
    {
      "inputs": [],
      "name": "collateral",
      "outputs": [
        {
          "internalType": "contract IERC20",
          "name": "",
          "type": "address"
        }
      ],
      "stateMutability": "view",
      "type": "function"
    },
    {
      "inputs": [],
      "name": "conditionId",
      "outputs": [
        {
          "internalType": "bytes32",
          "name": "",
          "type": "bytes32"
        }
      ],
      "stateMutability": "view",
      "type": "function"
    },
    {
      "inputs": [],
      "name": "conditionalTokens",
      "outputs": [
        {
          "internalType": "contract IConditionalTokens",
          "name": "",
          "type": "address"
        }
      ],
      "stateMutability": "view",
      "type": "function"
    },
    {
      "inputs": [],
      "name": "endTime",
      "outputs": [
        {
          "internalType": "uint64",
          "name": "",
          "type": "uint64"
        }
      ],
      "stateMutability": "view",
      "type": "function"
    },
    {
      "inputs": [],
      "name": "factory",
      "outputs": [
        {
          "internalType": "address",
          "name": "",
          "type": "address"
        }
      ],
      "stateMutability": "view",
      "type": "function"
    },
    {
      "inputs": [],
      "name": "fee",
      "outputs": [
        {
          "internalType": "uint256",
          "name": "",
          "type": "uint256"
        }
      ],
      "stateMutability": "view",
      "type": "function"
    },
    {
      "inputs": [
        {
          "components": [
            {
              "internalType": "uint64",
              "name": "marketId",
              "type": "uint64"
            },
            {
              "internalType": "bool",
              "name": "isYes",
              "type": "bool"
            },
            {
              "internalType": "uint128",
              "name": "limitPrice",
              "type": "uint128"
            },
            {
              "internalType": "uint128",
              "name": "amount",
              "type": "uint128"
            }
          ],
          "internalType": "struct IMatchingEngine.TakerOrder[]",
          "name": "orders",
          "type": "tuple[]"
        }
      ],
      "name": "fillOrders",
      "outputs": [
        {
          "internalType": "uint128[]",
          "name": "filleds",
          "type": "uint128[]"
        },
        {
          "internalType": "uint128[]",
          "name": "avgPrices",
          "type": "uint128[]"
        }
      ],
      "stateMutability": "nonpayable",
      "type": "function"
    },
    {
      "inputs": [
        {
          "internalType": "contract IERC20",
          "name": "_collateral",
          "type": "address"
        },
        {
          "internalType": "bytes32",
          "name": "_conditionId",
          "type": "bytes32"
        },
        {
          "internalType": "uint256",
          "name": "_fee",
          "type": "uint256"
        },
        {
          "internalType": "uint64",
          "name": "_startTime",
          "type": "uint64"
        },
        {
          "internalType": "uint64",
          "name": "_endTime",
          "type": "uint64"
        },
        {
          "internalType": "uint64",
          "name": "_marketId",
          "type": "uint64"
        },
        {
          "internalType": "contract IOrderBook",
          "name": "_orderBook",
          "type": "address"
        },
        {
          "internalType": "contract IMatchingEngine",
          "name": "_matchingEngine",
          "type": "address"
        },
        {
          "internalType": "contract IConditionalTokens",
          "name": "_conditionalTokens",
          "type": "address"
        }
      ],
      "name": "initialize",
      "outputs": [],
      "stateMutability": "nonpayable",
      "type": "function"
    },
    {
      "inputs": [],
      "name": "marketId",
      "outputs": [
        {
          "internalType": "uint64",
          "name": "",
          "type": "uint64"
        }
      ],
      "stateMutability": "view",
      "type": "function"
    },
    {
      "inputs": [],
      "name": "matchingEngine",
      "outputs": [
        {
          "internalType": "contract IMatchingEngine",
          "name": "",
          "type": "address"
        }
      ],
      "stateMutability": "view",
      "type": "function"
    },
    {
      "inputs": [
        {
          "internalType": "uint128",
          "name": "amount",
          "type": "uint128"
        }
      ],
      "name": "mergeCollateral",
      "outputs": [],
      "stateMutability": "nonpayable",
      "type": "function"
    },
    {
      "inputs": [
        {
          "internalType": "uint128",
          "name": "amount",
          "type": "uint128"
        }
      ],
      "name": "mintSharesViaCollateral",
      "outputs": [],
      "stateMutability": "nonpayable",
      "type": "function"
    },
    {
      "inputs": [
        {
          "internalType": "address",
          "name": "",
          "type": "address"
        },
        {
          "internalType": "address",
          "name": "",
          "type": "address"
        },
        {
          "internalType": "uint256[]",
          "name": "",
          "type": "uint256[]"
        },
        {
          "internalType": "uint256[]",
          "name": "",
          "type": "uint256[]"
        }
      ],
      "name": "onERC1155BatchReceived",
      "outputs": [
        {
          "internalType": "bytes4",
          "name": "",
          "type": "bytes4"
        }
      ],
      "stateMutability": "pure",
      "type": "function"
    },
    {
      "inputs": [
        {
          "internalType": "address",
          "name": "",
          "type": "address"
        },
        {
          "internalType": "address",
          "name": "",
          "type": "address"
        },
        {
          "internalType": "uint256",
          "name": "",
          "type": "uint256"
        },
        {
          "internalType": "uint256",
          "name": "",
          "type": "uint256"
        },
        {
          "internalType": "bytes",
          "name": "",
          "type": "bytes"
        }
      ],
      "name": "onERC1155Received",
      "outputs": [
        {
          "internalType": "bytes4",
          "name": "",
          "type": "bytes4"
        }
      ],
      "stateMutability": "pure",
      "type": "function"
    },
    {
      "inputs": [],
      "name": "orderBook",
      "outputs": [
        {
          "internalType": "contract IOrderBook",
          "name": "",
          "type": "address"
        }
      ],
      "stateMutability": "view",
      "type": "function"
    },
    {
      "inputs": [
        {
          "internalType": "address",
          "name": "to",
          "type": "address"
        },
        {
          "internalType": "uint256",
          "name": "amount",
          "type": "uint256"
        }
      ],
      "name": "payoutCollateral",
      "outputs": [],
      "stateMutability": "nonpayable",
      "type": "function"
    },
    {
      "inputs": [
        {
          "internalType": "bool",
          "name": "isYes",
          "type": "bool"
        },
        {
          "internalType": "uint128",
          "name": "price",
          "type": "uint128"
        },
        {
          "internalType": "uint128",
          "name": "amount",
          "type": "uint128"
        }
      ],
      "name": "placeOrder",
      "outputs": [
        {
          "internalType": "uint64",
          "name": "orderId",
          "type": "uint64"
        }
      ],
      "stateMutability": "nonpayable",
      "type": "function"
    },
    {
      "inputs": [
        {
          "internalType": "bool",
          "name": "isYes",
          "type": "bool"
        },
        {
          "internalType": "uint128",
          "name": "price",
          "type": "uint128"
        },
        {
          "internalType": "uint128",
          "name": "amount",
          "type": "uint128"
        }
      ],
      "name": "placeSellOrder",
      "outputs": [
        {
          "internalType": "uint64",
          "name": "orderId",
          "type": "uint64"
        }
      ],
      "stateMutability": "nonpayable",
      "type": "function"
    },
    {
      "inputs": [
        {
          "internalType": "address",
          "name": "user",
          "type": "address"
        }
      ],
      "name": "redeem",
      "outputs": [],
      "stateMutability": "nonpayable",
      "type": "function"
    },
    {
      "inputs": [
        {
          "internalType": "bool",
          "name": "isYes",
          "type": "bool"
        },
        {
          "internalType": "uint128",
          "name": "amount",
          "type": "uint128"
        },
        {
          "internalType": "uint128",
          "name": "minReceive",
          "type": "uint128"
        }
      ],
      "name": "sellShares",
      "outputs": [
        {
          "internalType": "uint128",
          "name": "collateralOut",
          "type": "uint128"
        }
      ],
      "stateMutability": "nonpayable",
      "type": "function"
    },
    {
      "inputs": [
        {
          "internalType": "uint64",
          "name": "",
          "type": "uint64"
        }
      ],
      "name": "shareSellEscrows",
      "outputs": [
        {
          "internalType": "bool",
          "name": "isShareSell",
          "type": "bool"
        },
        {
          "internalType": "uint8",
          "name": "outcomeIndex",
          "type": "uint8"
        },
        {
          "internalType": "uint128",
          "name": "remaining",
          "type": "uint128"
        }
      ],
      "stateMutability": "view",
      "type": "function"
    },
    {
      "inputs": [
        {
          "internalType": "uint128",
          "name": "amount",
          "type": "uint128"
        }
      ],
      "name": "splitCollateral",
      "outputs": [],
      "stateMutability": "nonpayable",
      "type": "function"
    },
    {
      "inputs": [],
      "name": "startTime",
      "outputs": [
        {
          "internalType": "uint64",
          "name": "",
          "type": "uint64"
        }
      ],
      "stateMutability": "view",
      "type": "function"
    }
  ],
  "bytecode": "0x6080604052348015600f57600080fd5b506001600081905550615ff6806100276000396000f3fe608060405234801561001057600080fd5b506004361061013e5760003560e01c806310763395146101435780631c0edff21461015f57806323e78a021461017d5780632ddc7de7146101ad5780633197cbb6146101cb57806337e77d18146101e957806347952669146102055780635bd9e2991461023557806368118e43146102535780636ed71ede1461026f578063758399141461028d578063776af5ba146102bd57806378e97925146102db578063824f40fc146102f95780638627d4b9146103155780638e5d6cd61461034657806395a2251f14610377578063a9381dc314610393578063b05e5ea3146103af578063bd0b5186146103df578063c45a0155146103fb578063d2f50cc214610419578063d8dfeb4514610435578063ddca3f4314610453578063e7f1628d14610471578063f23a6e61146104a3575b600080fd5b61015d6004803603810190610158919061409d565b6104d3565b005b6101676104f0565b6040516101749190614149565b60405180910390f35b61019760048036038101906101929190614207565b610516565b6040516101a491906142e9565b60405180910390f35b6101b561052c565b6040516101c2919061431d565b60405180910390f35b6101d3610532565b6040516101e0919061435b565b60405180910390f35b61020360048036038101906101fe91906144fc565b61054c565b005b61021f600480360381019061021a91906145fe565b610918565b60405161022c9190614660565b60405180910390f35b61023d610ef4565b60405161024a919061469c565b60405180910390f35b61026d6004803603810190610268919061470d565b610f1a565b005b6102776115ff565b604051610284919061435b565b60405180910390f35b6102a760048036038101906102a291906145fe565b611617565b6040516102b4919061435b565b60405180910390f35b6102c5611824565b6040516102d2919061477b565b60405180910390f35b6102e361184a565b6040516102f0919061435b565b60405180910390f35b610313600480360381019061030e919061409d565b611864565b005b61032f600480360381019061032a9190614796565b611881565b60405161033d9291906147fd565b60405180910390f35b610360600480360381019061035b919061487c565b611ffa565b60405161036e929190614987565b60405180910390f35b610391600480360381019061038c91906149be565b612084565b005b6103ad60048036038101906103a8919061409d565b6120cd565b005b6103c960048036038101906103c491906145fe565b6120ea565b6040516103d6919061435b565b60405180910390f35b6103f960048036038101906103f491906149eb565b6123cf565b005b61040361260a565b6040516104109190614a3a565b60405180910390f35b610433600480360381019061042e919061409d565b612630565b005b61043d61264d565b60405161044a9190614a76565b60405180910390f35b61045b612673565b6040516104689190614aa0565b60405180910390f35b61048b60048036038101906104869190614abb565b612679565b60405161049a93929190614b13565b60405180910390f35b6104bd60048036038101906104b89190614ba0565b6126d9565b6040516104ca91906142e9565b60405180910390f35b6104db6126ef565b6104e53382612735565b6104ed6128e9565b50565b600560009054906101000a900473ffffffffffffffffffffffffffffffffffffffff1681565b60006323e78a0260e01b90509695505050505050565b60025481565b600860009054906101000a900467ffffffffffffffff1681565b6000600760149054906101000a900467ffffffffffffffff1667ffffffffffffffff16146105a6576040517f0dc149f000000000000000000000000000000000000000000000000000000000815260040160405180910390fd5b8467ffffffffffffffff168667ffffffffffffffff16106105f3576040517f536a71af00000000000000000000000000000000000000000000000000000000815260040160405180910390fd5b6105fc896128f3565b610605836128f3565b61060e826128f3565b610617816128f3565b88600160006101000a81548173ffffffffffffffffffffffffffffffffffffffff021916908373ffffffffffffffffffffffffffffffffffffffff160217905550876002819055508660038190555085600760146101000a81548167ffffffffffffffff021916908367ffffffffffffffff16021790555084600860006101000a81548167ffffffffffffffff021916908367ffffffffffffffff160217905550836008806101000a81548167ffffffffffffffff021916908367ffffffffffffffff16021790555082600460006101000a81548173ffffffffffffffffffffffffffffffffffffffff021916908373ffffffffffffffffffffffffffffffffffffffff16021790555081600560006101000a81548173ffffffffffffffffffffffffffffffffffffffff021916908373ffffffffffffffffffffffffffffffffffffffff16021790555080600660006101000a81548173ffffffffffffffffffffffffffffffffffffffff021916908373ffffffffffffffffffffffffffffffffffffffff16021790555033600760006101000a81548173ffffffffffffffffffffffffffffffffffffffff021916908373ffffffffffffffffffffffffffffffffffffffff1602179055506000600267ffffffffffffffff81111561080157610800614c3a565b5b60405190808252806020026020018201604052801561082f5781602001602082028036833780820191505090505b50905060018160008151811061084857610847614c69565b5b60200260200101818152505060018160018151811061086a57610869614c69565b5b602002602001018181525050600660009054906101000a900473ffffffffffffffffffffffffffffffffffffffff1673ffffffffffffffffffffffffffffffffffffffff16633badcb308a308c6002866040518663ffffffff1660e01b81526004016108da959493929190614d91565b600060405180830381600087803b1580156108f457600080fd5b505af1158015610908573d6000803e3d6000fd5b5050505050505050505050505050565b60006109226126ef565b61093d836fffffffffffffffffffffffffffffffff1661295c565b610945612999565b6000600460009054906101000a900473ffffffffffffffffffffffffffffffffffffffff1673ffffffffffffffffffffffffffffffffffffffff1663a042acb660088054906101000a900467ffffffffffffffff1687156706f05b59d3b20000886040518563ffffffff1660e01b81526004016109c59493929190614e26565b600060405180830381865afa1580156109e2573d6000803e3d6000fd5b505050506040513d6000823e3d601f19601f82011682018060405250810190610a0b9190615047565b90506000806000610a2c88610a21576001610a24565b60005b60ff16612a1f565b905060005b8451811015610cde57600060096000878481518110610a5357610a52614c69565b5b60200260200101516000015167ffffffffffffffff1667ffffffffffffffff16815260200190815260200160002090508060000160009054906101000a900460ff1615610acc576040517ff6b4f87e00000000000000000000000000000000000000000000000000000000815260040160405180910390fd5b858281518110610adf57610ade614c69565b5b60200260200101516040015185610af691906150bf565b94506000670de0b6b3a7640000878481518110610b1657610b15614c69565b5b6020026020010151606001516fffffffffffffffffffffffffffffffff16888581518110610b4757610b46614c69565b5b6020026020010151604001516fffffffffffffffffffffffffffffffff16610b6f9190615103565b610b799190615174565b90508088610b8791906150bf565b9750868381518110610b9c57610b9b614c69565b5b6020026020010151606001516fffffffffffffffffffffffffffffffff16878481518110610bcd57610bcc614c69565b5b6020026020010151604001516fffffffffffffffffffffffffffffffff16610bf59190615103565b85610c0091906151a5565b9450600660009054906101000a900473ffffffffffffffffffffffffffffffffffffffff1673ffffffffffffffffffffffffffffffffffffffff1663f242432a33898681518110610c5457610c53614c69565b5b602002602001015160200151878b8881518110610c7457610c73614c69565b5b6020026020010151604001516040518563ffffffff1660e01b8152600401610c9f9493929190615241565b600060405180830381600087803b158015610cb957600080fd5b505af1158015610ccd573d6000803e3d6000fd5b505050508260010192505050610a31565b50600084511115610d7757600460009054906101000a900473ffffffffffffffffffffffffffffffffffffffff1673ffffffffffffffffffffffffffffffffffffffff166393cf61f1856040518263ffffffff1660e01b8152600401610d4491906153bb565b600060405180830381600087803b158015610d5e57600080fd5b505af1158015610d72573d6000803e3d6000fd5b505050505b6000856fffffffffffffffffffffffffffffffff161115610df257610df133866fffffffffffffffffffffffffffffffff16600160009054906101000a900473ffffffffffffffffffffffffffffffffffffffff1673ffffffffffffffffffffffffffffffffffffffff16612acb9092919063ffffffff16565b5b856fffffffffffffffffffffffffffffffff16856fffffffffffffffffffffffffffffffff161015610e50576040517ffeddea0e00000000000000000000000000000000000000000000000000000000815260040160405180910390fd5b3373ffffffffffffffffffffffffffffffffffffffff167f4f51d23d3b44197387b6d0429e640888e58701a79ca29520ae31960185c29a2089856000876fffffffffffffffffffffffffffffffff1614610ec757866fffffffffffffffffffffffffffffffff1686610ec29190615174565b610eca565b60005b604051610ed9939291906153dd565b60405180910390a250505050610eed6128e9565b9392505050565b600660009054906101000a900473ffffffffffffffffffffffffffffffffffffffff1681565b610f226126ef565b6000828290509050600080600080600090505b84811015611323576000600460009054906101000a900473ffffffffffffffffffffffffffffffffffffffff1673ffffffffffffffffffffffffffffffffffffffff1663cdf9d07c898985818110610f9057610f8f614c69565b5b9050602002016020810190610fa59190614abb565b6040518263ffffffff1660e01b8152600401610fc1919061435b565b61012060405180830381865afa158015610fdf573d6000803e3d6000fd5b505050506040513d601f19601f820116820180604052508101906110039190615509565b9050806040015173ffffffffffffffffffffffffffffffffffffffff163373ffffffffffffffffffffffffffffffffffffffff161461106e576040517f9ef0770100000000000000000000000000000000000000000000000000000000815260040160405180910390fd5b80610100015115806110ac57508060a001516fffffffffffffffffffffffffffffffff168160c001516fffffffffffffffffffffffffffffffff1610155b156110e3576040517f4a4f9a1900000000000000000000000000000000000000000000000000000000815260040160405180910390fd5b60008160c001518260a001516110f99190615537565b90506000600960008b8b8781811061111457611113614c69565b5b90506020020160208101906111299190614abb565b67ffffffffffffffff1667ffffffffffffffff1681526020019081526020016000206040518060600160405290816000820160009054906101000a900460ff161515151581526020016000820160019054906101000a900460ff1660ff1660ff1681526020016000820160029054906101000a90046fffffffffffffffffffffffffffffffff166fffffffffffffffffffffffffffffffff166fffffffffffffffffffffffffffffffff168152505090508060000151156112c0576000816040015190506000826020015160ff160361120f57808761120891906150bf565b965061121e565b808661121b91906150bf565b95505b600960008c8c8881811061123557611234614c69565b5b905060200201602081019061124a9190614abb565b67ffffffffffffffff1667ffffffffffffffff168152602001908152602001600020600080820160006101000a81549060ff02191690556000820160016101000a81549060ff02191690556000820160026101000a8154906fffffffffffffffffffffffffffffffff0219169055505050611315565b670de0b6b3a764000083608001516fffffffffffffffffffffffffffffffff16836fffffffffffffffffffffffffffffffff166112fd9190615103565b6113079190615174565b8761131291906151a5565b96505b836001019350505050610f35565b50600083111561137b5761137a3384600160009054906101000a900473ffffffffffffffffffffffffffffffffffffffff1673ffffffffffffffffffffffffffffffffffffffff16612acb9092919063ffffffff16565b5b6000826fffffffffffffffffffffffffffffffff16111561143357600660009054906101000a900473ffffffffffffffffffffffffffffffffffffffff1673ffffffffffffffffffffffffffffffffffffffff1663f242432a30336113e06000612a1f565b866040518563ffffffff1660e01b81526004016114009493929190615241565b600060405180830381600087803b15801561141a57600080fd5b505af115801561142e573d6000803e3d6000fd5b505050505b6000816fffffffffffffffffffffffffffffffff1611156114eb57600660009054906101000a900473ffffffffffffffffffffffffffffffffffffffff1673ffffffffffffffffffffffffffffffffffffffff1663f242432a30336114986001612a1f565b856040518563ffffffff1660e01b81526004016114b89493929190615241565b600060405180830381600087803b1580156114d257600080fd5b505af11580156114e6573d6000803e3d6000fd5b505050505b600460009054906101000a900473ffffffffffffffffffffffffffffffffffffffff1673ffffffffffffffffffffffffffffffffffffffff166368118e4387876040518363ffffffff1660e01b815260040161154892919061562f565b600060405180830381600087803b15801561156257600080fd5b505af1158015611576573d6000803e3d6000fd5b5050505060005b848110156115ee5786868281811061159857611597614c69565b5b90506020020160208101906115ad9190614abb565b67ffffffffffffffff167f413c1ea791e99e4774c2bdb5634eb463180b94450f02a3712b75fd6f638f38ab60405160405180910390a280600101905061157d565b50505050506115fb6128e9565b5050565b60088054906101000a900467ffffffffffffffff1681565b60006116216126ef565b61163c826fffffffffffffffffffffffffffffffff1661295c565b611644612999565b6000670de0b6b3a7640000836fffffffffffffffffffffffffffffffff16856fffffffffffffffffffffffffffffffff1661167f9190615103565b6116899190615174565b90506116da333083600160009054906101000a900473ffffffffffffffffffffffffffffffffffffffff1673ffffffffffffffffffffffffffffffffffffffff16612b4a909392919063ffffffff16565b611706600460009054906101000a900473ffffffffffffffffffffffffffffffffffffffff1682612bcc565b600460009054906101000a900473ffffffffffffffffffffffffffffffffffffffff1673ffffffffffffffffffffffffffffffffffffffff1663a3085c8f3360088054906101000a900467ffffffffffffffff168888886040518663ffffffff1660e01b815260040161177d959493929190615653565b6020604051808303816000875af115801561179c573d6000803e3d6000fd5b505050506040513d601f19601f820116820180604052508101906117c091906156a6565b91503373ffffffffffffffffffffffffffffffffffffffff167faf089a5530c30b6e81e8bfa7d71a843c2a20de5dcd826260d4b89393b08515bb86868660405161180c939291906153dd565b60405180910390a25061181d6128e9565b9392505050565b600460009054906101000a900473ffffffffffffffffffffffffffffffffffffffff1681565b600760149054906101000a900467ffffffffffffffff1681565b61186c6126ef565b6118763382612cc8565b61187e6128e9565b50565b60008061188c6126ef565b6118a7856fffffffffffffffffffffffffffffffff1661295c565b6118af612999565b60006118fc866fffffffffffffffffffffffffffffffff16670de0b6b3a7640000876fffffffffffffffffffffffffffffffff166118ed9190615103565b6118f79190615174565b612e72565b90506000816fffffffffffffffffffffffffffffffff160361195d578315611950576040517fa58b036500000000000000000000000000000000000000000000000000000000815260040160405180910390fd5b6000809250925050611fe9565b6000600460009054906101000a900473ffffffffffffffffffffffffffffffffffffffff1673ffffffffffffffffffffffffffffffffffffffff1663a042acb660088054906101000a900467ffffffffffffffff168a670dd99bb65dd700008b6040518563ffffffff1660e01b81526004016119dc94939291906156d3565b600060405180830381865afa1580156119f9573d6000803e3d6000fd5b505050506040513d6000823e3d601f19601f82011682018060405250810190611a229190615047565b905060008060005b8351811015611af657838181518110611a4657611a45614c69565b5b60200260200101516040015183611a5d91906150bf565b9250670de0b6b3a7640000848281518110611a7b57611a7a614c69565b5b6020026020010151606001516fffffffffffffffffffffffffffffffff16858381518110611aac57611aab614c69565b5b6020026020010151604001516fffffffffffffffffffffffffffffffff16611ad49190615103565b611ade9190615174565b82611ae991906151a5565b9150806001019050611a2a565b50876fffffffffffffffffffffffffffffffff16811115611b43576040517f026cb3c600000000000000000000000000000000000000000000000000000000815260040160405180910390fd5b868015611b735750886fffffffffffffffffffffffffffffffff16826fffffffffffffffffffffffffffffffff16105b15611baa576040517fa58b036500000000000000000000000000000000000000000000000000000000815260040160405180910390fd5b6000600460009054906101000a900473ffffffffffffffffffffffffffffffffffffffff1673ffffffffffffffffffffffffffffffffffffffff1663a042acb660088054906101000a900467ffffffffffffffff168d888e6040518563ffffffff1660e01b8152600401611c2194939291906156d3565b600060405180830381865afa158015611c3e573d6000803e3d6000fd5b505050506040513d6000823e3d601f19601f82011682018060405250810190611c679190615047565b905060008060005b8351811015611d3b57838181518110611c8b57611c8a614c69565b5b60200260200101516040015183611ca291906150bf565b9250670de0b6b3a7640000848281518110611cc057611cbf614c69565b5b6020026020010151606001516fffffffffffffffffffffffffffffffff16858381518110611cf157611cf0614c69565b5b6020026020010151604001516fffffffffffffffffffffffffffffffff16611d199190615103565b611d239190615174565b82611d2e91906151a5565b9150806001019050611c6f565b508a6fffffffffffffffffffffffffffffffff16811115611d88576040517f026cb3c600000000000000000000000000000000000000000000000000000000815260040160405180910390fd5b898015611db857508b6fffffffffffffffffffffffffffffffff16826fffffffffffffffffffffffffffffffff16105b15611def576040517fa58b036500000000000000000000000000000000000000000000000000000000815260040160405180910390fd5b6000600167ffffffffffffffff811115611e0c57611e0b614c3a565b5b604051908082528060200260200182016040528015611e4557816020015b611e32613fe9565b815260200190600190039081611e2a5790505b509050604051806080016040528060088054906101000a900467ffffffffffffffff1667ffffffffffffffff1681526020018f15158152602001896fffffffffffffffffffffffffffffffff1681526020018e6fffffffffffffffffffffffffffffffff1681525081600081518110611ec157611ec0614c69565b5b6020026020010181905250600080611ed883612e99565b925050915081600081518110611ef157611ef0614c69565b5b60200260200101519b5080600081518110611f0f57611f0e614c69565b5b60200260200101519a508d6fffffffffffffffffffffffffffffffff168b6fffffffffffffffffffffffffffffffff161115611f77576040517f56afc9f100000000000000000000000000000000000000000000000000000000815260040160405180910390fd5b8c8015611fa757508e6fffffffffffffffffffffffffffffffff168c6fffffffffffffffffffffffffffffffff16105b15611fde576040517ff172c67700000000000000000000000000000000000000000000000000000000815260040160405180910390fd5b505050505050505050505b611ff16128e9565b94509492505050565b6060806120056126ef565b61200d612999565b61206c8484808060200260200160405190810160405280939291908181526020016000905b82821015612062578484839050608002018036038101906120539190615790565b81526020019060010190612032565b5050505050612e99565b50809250819350505061207d6128e9565b9250929050565b6002548173ffffffffffffffffffffffffffffffffffffffff167f851665af6e4e9430c7ecdf760410892dc4e51270dd981b9be1c39c7eb457a0ab60405160405180910390a350565b6120d56126ef565b6120df3382612cc8565b6120e76128e9565b50565b60006120f46126ef565b61210f826fffffffffffffffffffffffffffffffff1661295c565b612117612999565b600084612125576001612128565b60005b9050600660009054906101000a900473ffffffffffffffffffffffffffffffffffffffff1673ffffffffffffffffffffffffffffffffffffffff1663f242432a33306121768560ff16612a1f565b876040518563ffffffff1660e01b81526004016121969493929190615241565b600060405180830381600087803b1580156121b057600080fd5b505af11580156121c4573d6000803e3d6000fd5b50505050600460009054906101000a900473ffffffffffffffffffffffffffffffffffffffff1673ffffffffffffffffffffffffffffffffffffffff1663a3085c8f3360088054906101000a900467ffffffffffffffff16881588886040518663ffffffff1660e01b8152600401612240959493929190615653565b6020604051808303816000875af115801561225f573d6000803e3d6000fd5b505050506040513d601f19601f8201168201806040525081019061228391906156a6565b915060405180606001604052806001151581526020018260ff168152602001846fffffffffffffffffffffffffffffffff16815250600960008467ffffffffffffffff1667ffffffffffffffff16815260200190815260200160002060008201518160000160006101000a81548160ff02191690831515021790555060208201518160000160016101000a81548160ff021916908360ff16021790555060408201518160000160026101000a8154816fffffffffffffffffffffffffffffffff02191690836fffffffffffffffffffffffffffffffff1602179055509050508167ffffffffffffffff163373ffffffffffffffffffffffffffffffffffffffff167f1ac539db812209d78c16e831f4bf0f351748c0d3a432f2c116a750865e21c5108787876040516123b7939291906153dd565b60405180910390a3506123c86128e9565b9392505050565b6123d76126ef565b6123e0826128f3565b6123e98161295c565b600080600760009054906101000a900473ffffffffffffffffffffffffffffffffffffffff1673ffffffffffffffffffffffffffffffffffffffff166040516024016040516020818303038152906040527f5dbdcdad000000000000000000000000000000000000000000000000000000007bffffffffffffffffffffffffffffffffffffffffffffffffffffffff19166020820180517bffffffffffffffffffffffffffffffffffffffffffffffffffffffff83818316178352505050506040516124b5919061582e565b600060405180830381855afa9150503d80600081146124f0576040519150601f19603f3d011682016040523d82523d6000602084013e6124f5565b606091505b509150915081612531576040517fee9f0bb400000000000000000000000000000000000000000000000000000000815260040160405180910390fd5b6000818060200190518101906125479190615883565b90508073ffffffffffffffffffffffffffffffffffffffff163373ffffffffffffffffffffffffffffffffffffffff16146125ae576040517f2d7d50c300000000000000000000000000000000000000000000000000000000815260040160405180910390fd5b6125fb8585600160009054906101000a900473ffffffffffffffffffffffffffffffffffffffff1673ffffffffffffffffffffffffffffffffffffffff16612acb9092919063ffffffff16565b5050506126066128e9565b5050565b600760009054906101000a900473ffffffffffffffffffffffffffffffffffffffff1681565b6126386126ef565b6126423382612735565b61264a6128e9565b50565b600160009054906101000a900473ffffffffffffffffffffffffffffffffffffffff1681565b60035481565b60096020528060005260406000206000915090508060000160009054906101000a900460ff16908060000160019054906101000a900460ff16908060000160029054906101000a90046fffffffffffffffffffffffffffffffff16905083565b600063f23a6e6160e01b90509695505050505050565b60026000540361272b576040517f3ee5aeb500000000000000000000000000000000000000000000000000000000815260040160405180910390fd5b6002600081905550565b612750816fffffffffffffffffffffffffffffffff1661295c565b612758612999565b6127b98230836fffffffffffffffffffffffffffffffff16600160009054906101000a900473ffffffffffffffffffffffffffffffffffffffff1673ffffffffffffffffffffffffffffffffffffffff16612b4a909392919063ffffffff16565b600660009054906101000a900473ffffffffffffffffffffffffffffffffffffffff1673ffffffffffffffffffffffffffffffffffffffff1663296ed2cb836002546000856040518563ffffffff1660e01b815260040161281d94939291906158eb565b600060405180830381600087803b15801561283757600080fd5b505af115801561284b573d6000803e3d6000fd5b50505050600660009054906101000a900473ffffffffffffffffffffffffffffffffffffffff1673ffffffffffffffffffffffffffffffffffffffff1663296ed2cb836002546001856040518563ffffffff1660e01b81526004016128b3949392919061596b565b600060405180830381600087803b1580156128cd57600080fd5b505af11580156128e1573d6000803e3d6000fd5b505050505050565b6001600081905550565b600073ffffffffffffffffffffffffffffffffffffffff168173ffffffffffffffffffffffffffffffffffffffff1603612959576040517fd92e233d00000000000000000000000000000000000000000000000000000000815260040160405180910390fd5b50565b60008103612996576040517f1f2a200500000000000000000000000000000000000000000000000000000000815260040160405180910390fd5b50565b600760149054906101000a900467ffffffffffffffff1667ffffffffffffffff164210806129e65750600860009054906101000a900467ffffffffffffffff1667ffffffffffffffff1642115b15612a1d576040517fb521771a00000000000000000000000000000000000000000000000000000000815260040160405180910390fd5b565b6000600660009054906101000a900473ffffffffffffffffffffffffffffffffffffffff1673ffffffffffffffffffffffffffffffffffffffff16639c261677600254846040518363ffffffff1660e01b8152600401612a809291906159b0565b602060405180830381865afa158015612a9d573d6000803e3d6000fd5b505050506040513d601f19601f82011682018060405250810190612ac191906159ee565b60001c9050919050565b612b45838473ffffffffffffffffffffffffffffffffffffffff1663a9059cbb8585604051602401612afe929190615a1b565b604051602081830303815290604052915060e01b6020820180517bffffffffffffffffffffffffffffffffffffffffffffffffffffffff83818316178352505050506136c9565b505050565b612bc6848573ffffffffffffffffffffffffffffffffffffffff166323b872dd868686604051602401612b7f93929190615a44565b604051602081830303815290604052915060e01b6020820180517bffffffffffffffffffffffffffffffffffffffffffffffffffffffff83818316178352505050506136c9565b50505050565b6000600160009054906101000a900473ffffffffffffffffffffffffffffffffffffffff1673ffffffffffffffffffffffffffffffffffffffff1663dd62ed3e30856040518363ffffffff1660e01b8152600401612c2b929190615a7b565b602060405180830381865afa158015612c48573d6000803e3d6000fd5b505050506040513d601f19601f82011682018060405250810190612c6c9190615ab9565b9050818114612cc357612cc28383600160009054906101000a900473ffffffffffffffffffffffffffffffffffffffff1673ffffffffffffffffffffffffffffffffffffffff1661376b9092919063ffffffff16565b5b505050565b612ce3816fffffffffffffffffffffffffffffffff1661295c565b600660009054906101000a900473ffffffffffffffffffffffffffffffffffffffff1673ffffffffffffffffffffffffffffffffffffffff166301463597836002546000856040518563ffffffff1660e01b8152600401612d4794939291906158eb565b600060405180830381600087803b158015612d6157600080fd5b505af1158015612d75573d6000803e3d6000fd5b50505050600660009054906101000a900473ffffffffffffffffffffffffffffffffffffffff1673ffffffffffffffffffffffffffffffffffffffff166301463597836002546001856040518563ffffffff1660e01b8152600401612ddd949392919061596b565b600060405180830381600087803b158015612df757600080fd5b505af1158015612e0b573d6000803e3d6000fd5b50505050612e6e82826fffffffffffffffffffffffffffffffff16600160009054906101000a900473ffffffffffffffffffffffffffffffffffffffff1673ffffffffffffffffffffffffffffffffffffffff16612acb9092919063ffffffff16565b5050565b600066071afd498d00008083612e889190615ae6565b612e929190615b17565b9050919050565b60608060606000845190508067ffffffffffffffff811115612ebe57612ebd614c3a565b5b604051908082528060200260200182016040528015612eec5781602001602082028036833780820191505090505b5093508067ffffffffffffffff811115612f0957612f08614c3a565b5b604051908082528060200260200182016040528015612f375781602001602082028036833780820191505090505b5092508067ffffffffffffffff811115612f5457612f53614c3a565b5b604051908082528060200260200182016040528015612f825781602001602082028036833780820191505090505b50915060008167ffffffffffffffff811115612fa157612fa0614c3a565b5b604051908082528060200260200182016040528015612fcf5781602001602082028036833780820191505090505b509050600080600090505b838110156131555761301b888281518110612ff857612ff7614c69565b5b6020026020010151606001516fffffffffffffffffffffffffffffffff1661295c565b670de0b6b3a764000088828151811061303757613036614c69565b5b6020026020010151606001516fffffffffffffffffffffffffffffffff1689838151811061306857613067614c69565b5b6020026020010151604001516fffffffffffffffffffffffffffffffff166130909190615103565b61309a9190615174565b8382815181106130ad576130ac614c69565b5b6020026020010181815250508281815181106130cc576130cb614c69565b5b6020026020010151826130df91906151a5565b915061314a33308584815181106130f9576130f8614c69565b5b6020026020010151600160009054906101000a900473ffffffffffffffffffffffffffffffffffffffff1673ffffffffffffffffffffffffffffffffffffffff16612b4a909392919063ffffffff16565b806001019050612fda565b50600081111561318c5761318b600560009054906101000a900473ffffffffffffffffffffffffffffffffffffffff1682612bcc565b5b606080600560009054906101000a900473ffffffffffffffffffffffffffffffffffffffff1673ffffffffffffffffffffffffffffffffffffffff1663235026398a6040518263ffffffff1660e01b81526004016131ea9190615c67565b6000604051808303816000875af1158015613209573d6000803e3d6000fd5b505050506040513d6000823e3d601f19601f820116820180604052508101906132329190615e2d565b809250819350505060005b858110156136bc57600082828151811061325a57613259614c69565b5b60200260200101516fffffffffffffffffffffffffffffffff16036132eb576132e0338683815181106132905761328f614c69565b5b6020026020010151600160009054906101000a900473ffffffffffffffffffffffffffffffffffffffff1673ffffffffffffffffffffffffffffffffffffffff16612acb9092919063ffffffff16565b8060010190506136b7565b6000838281518110613300576132ff614c69565b5b60200260200101519050600460009054906101000a900473ffffffffffffffffffffffffffffffffffffffff1673ffffffffffffffffffffffffffffffffffffffff166393cf61f1826040518263ffffffff1660e01b815260040161336591906153bb565b600060405180830381600087803b15801561337f57600080fd5b505af1158015613393573d6000803e3d6000fd5b50505050600080600090505b825181101561342c578281815181106133bb576133ba614c69565b5b6020026020010151604001516fffffffffffffffffffffffffffffffff168382815181106133ec576133eb614c69565b5b6020026020010151606001516fffffffffffffffffffffffffffffffff166134149190615103565b8261341f91906151a5565b915080600101905061339f565b508383815181106134405761343f614c69565b5b60200260200101516fffffffffffffffffffffffffffffffff16816134659190615174565b8a848151811061347857613477614c69565b5b60200260200101906fffffffffffffffffffffffffffffffff1690816fffffffffffffffffffffffffffffffff16815250508383815181106134bd576134bc614c69565b5b60200260200101518b84815181106134d8576134d7614c69565b5b60200260200101906fffffffffffffffffffffffffffffffff1690816fffffffffffffffffffffffffffffffff16815250506000670de0b6b3a7640000826135209190615174565b9050808a858151811061353657613535614c69565b5b60200260200101818152505061356b338e868151811061355957613558614c69565b5b6020026020010151602001518561387a565b61357483613c26565b8088858151811061358857613587614c69565b5b602002602001015111156136095761360833828a87815181106135ae576135ad614c69565b5b60200260200101516135c09190615ea5565b600160009054906101000a900473ffffffffffffffffffffffffffffffffffffffff1673ffffffffffffffffffffffffffffffffffffffff16612acb9092919063ffffffff16565b5b3373ffffffffffffffffffffffffffffffffffffffff167f4f51d23d3b44197387b6d0429e640888e58701a79ca29520ae31960185c29a208e868151811061365457613653614c69565b5b60200260200101516020015187878151811061367357613672614c69565b5b60200260200101518e888151811061368e5761368d614c69565b5b60200260200101516040516136a5939291906153dd565b60405180910390a28360010193505050505b61323d565b5050505050509193909250565b600080602060008451602086016000885af1806136ec576040513d6000823e3d81fd5b3d925060005191505060008214613707576001811415613723565b60008473ffffffffffffffffffffffffffffffffffffffff163b145b1561376557836040517f5274afe700000000000000000000000000000000000000000000000000000000815260040161375c9190614a3a565b60405180910390fd5b50505050565b60008373ffffffffffffffffffffffffffffffffffffffff1663095ea7b3848460405160240161379c929190615a1b565b604051602081830303815290604052915060e01b6020820180517bffffffffffffffffffffffffffffffffffffffffffffffffffffffff838183161783525050505090506137ea8482613f89565b61387457613869848573ffffffffffffffffffffffffffffffffffffffff1663095ea7b3866000604051602401613822929190615ed9565b604051602081830303815290604052915060e01b6020820180517bffffffffffffffffffffffffffffffffffffffffffffffffffffffff83818316178352505050506136c9565b61387384826136c9565b5b50505050565b60008261388857600161388b565b60005b9050600061389b8260ff16612a1f565b9050600080600090505b8451811015613b6c576000600960008784815181106138c7576138c6614c69565b5b60200260200101516000015167ffffffffffffffff1667ffffffffffffffff16815260200190815260200160002090508060000160009054906101000a900460ff1615613b33578460ff168160000160019054906101000a900460ff1660ff161461395e576040517ff6b4f87e00000000000000000000000000000000000000000000000000000000815260040160405180910390fd5b85828151811061397157613970614c69565b5b6020026020010151604001516fffffffffffffffffffffffffffffffff168160000160029054906101000a90046fffffffffffffffffffffffffffffffff166fffffffffffffffffffffffffffffffff1610156139fa576040517fe899aa5600000000000000000000000000000000000000000000000000000000815260040160405180910390fd5b858281518110613a0d57613a0c614c69565b5b6020026020010151604001518160000160028282829054906101000a90046fffffffffffffffffffffffffffffffff16613a479190615537565b92506101000a8154816fffffffffffffffffffffffffffffffff02191690836fffffffffffffffffffffffffffffffff160217905550600660009054906101000a900473ffffffffffffffffffffffffffffffffffffffff1673ffffffffffffffffffffffffffffffffffffffff1663f242432a308a878a8781518110613ad157613ad0614c69565b5b6020026020010151604001516040518563ffffffff1660e01b8152600401613afc9493929190615241565b600060405180830381600087803b158015613b1657600080fd5b505af1158015613b2a573d6000803e3d6000fd5b50505050613b60565b858281518110613b4657613b45614c69565b5b60200260200101516040015183613b5d91906150bf565b92505b816001019150506138a5565b506000816fffffffffffffffffffffffffffffffff161115613c1e57600660009054906101000a900473ffffffffffffffffffffffffffffffffffffffff1673ffffffffffffffffffffffffffffffffffffffff1663296ed2cb8760025486856040518563ffffffff1660e01b8152600401613beb9493929190615f33565b600060405180830381600087803b158015613c0557600080fd5b505af1158015613c19573d6000803e3d6000fd5b505050505b505050505050565b60008151905060008167ffffffffffffffff811115613c4857613c47614c3a565b5b604051908082528060200260200182016040528015613c765781602001602082028036833780820191505090505b50905060008267ffffffffffffffff811115613c9557613c94614c3a565b5b604051908082528060200260200182016040528015613cc35781602001602082028036833780820191505090505b509050600080600090505b84811015613ec5576000868281518110613ceb57613cea614c69565b5b60200260200101516020015190506000670de0b6b3a7640000888481518110613d1757613d16614c69565b5b6020026020010151606001516fffffffffffffffffffffffffffffffff16898581518110613d4857613d47614c69565b5b6020026020010151604001516fffffffffffffffffffffffffffffffff16613d709190615103565b613d7a9190615174565b905060008103613d91578260010192505050613ec0565b600080600090505b85811015613e33578373ffffffffffffffffffffffffffffffffffffffff16888281518110613dcb57613dca614c69565b5b602002602001015173ffffffffffffffffffffffffffffffffffffffff1603613e265782878281518110613e0257613e01614c69565b5b60200260200101818151613e1691906151a5565b9150818152505060019150613e33565b8080600101915050613d99565b5080613eb65782878681518110613e4d57613e4c614c69565b5b602002602001019073ffffffffffffffffffffffffffffffffffffffff16908173ffffffffffffffffffffffffffffffffffffffff168152505081868681518110613e9b57613e9a614c69565b5b6020026020010181815250508480613eb290615f78565b9550505b8360010193505050505b613cce565b5060005b81811015613f81576000838281518110613ee657613ee5614c69565b5b60200260200101511115613f7657613f75848281518110613f0a57613f09614c69565b5b6020026020010151848381518110613f2557613f24614c69565b5b6020026020010151600160009054906101000a900473ffffffffffffffffffffffffffffffffffffffff1673ffffffffffffffffffffffffffffffffffffffff16612acb9092919063ffffffff16565b5b806001019050613ec9565b505050505050565b6000806000806020600086516020880160008a5af192503d91506000519050828015613fde575060008214613fc15760018114613fdd565b60008673ffffffffffffffffffffffffffffffffffffffff163b115b5b935050505092915050565b6040518060800160405280600067ffffffffffffffff16815260200160001515815260200160006fffffffffffffffffffffffffffffffff16815260200160006fffffffffffffffffffffffffffffffff1681525090565b6000604051905090565b600080fd5b600080fd5b60006fffffffffffffffffffffffffffffffff82169050919050565b61407a81614055565b811461408557600080fd5b50565b60008135905061409781614071565b92915050565b6000602082840312156140b3576140b261404b565b5b60006140c184828501614088565b91505092915050565b600073ffffffffffffffffffffffffffffffffffffffff82169050919050565b6000819050919050565b600061410f61410a614105846140ca565b6140ea565b6140ca565b9050919050565b6000614121826140f4565b9050919050565b600061413382614116565b9050919050565b61414381614128565b82525050565b600060208201905061415e600083018461413a565b92915050565b600061416f826140ca565b9050919050565b61417f81614164565b811461418a57600080fd5b50565b60008135905061419c81614176565b92915050565b600080fd5b600080fd5b600080fd5b60008083601f8401126141c7576141c66141a2565b5b8235905067ffffffffffffffff8111156141e4576141e36141a7565b5b602083019150836020820283011115614200576141ff6141ac565b5b9250929050565b600080600080600080608087890312156142245761422361404b565b5b600061423289828a0161418d565b965050602061424389828a0161418d565b955050604087013567ffffffffffffffff81111561426457614263614050565b5b61427089828a016141b1565b9450945050606087013567ffffffffffffffff81111561429357614292614050565b5b61429f89828a016141b1565b92509250509295509295509295565b60007fffffffff0000000000000000000000000000000000000000000000000000000082169050919050565b6142e3816142ae565b82525050565b60006020820190506142fe60008301846142da565b92915050565b6000819050919050565b61431781614304565b82525050565b6000602082019050614332600083018461430e565b92915050565b600067ffffffffffffffff82169050919050565b61435581614338565b82525050565b6000602082019050614370600083018461434c565b92915050565b600061438182614164565b9050919050565b61439181614376565b811461439c57600080fd5b50565b6000813590506143ae81614388565b92915050565b6143bd81614304565b81146143c857600080fd5b50565b6000813590506143da816143b4565b92915050565b6000819050919050565b6143f3816143e0565b81146143fe57600080fd5b50565b600081359050614410816143ea565b92915050565b61441f81614338565b811461442a57600080fd5b50565b60008135905061443c81614416565b92915050565b600061444d82614164565b9050919050565b61445d81614442565b811461446857600080fd5b50565b60008135905061447a81614454565b92915050565b600061448b82614164565b9050919050565b61449b81614480565b81146144a657600080fd5b50565b6000813590506144b881614492565b92915050565b60006144c982614164565b9050919050565b6144d9816144be565b81146144e457600080fd5b50565b6000813590506144f6816144d0565b92915050565b60008060008060008060008060006101208a8c03121561451f5761451e61404b565b5b600061452d8c828d0161439f565b995050602061453e8c828d016143cb565b985050604061454f8c828d01614401565b97505060606145608c828d0161442d565b96505060806145718c828d0161442d565b95505060a06145828c828d0161442d565b94505060c06145938c828d0161446b565b93505060e06145a48c828d016144a9565b9250506101006145b68c828d016144e7565b9150509295985092959850929598565b60008115159050919050565b6145db816145c6565b81146145e657600080fd5b50565b6000813590506145f8816145d2565b92915050565b6000806000606084860312156146175761461661404b565b5b6000614625868287016145e9565b935050602061463686828701614088565b925050604061464786828701614088565b9150509250925092565b61465a81614055565b82525050565b60006020820190506146756000830184614651565b92915050565b600061468682614116565b9050919050565b6146968161467b565b82525050565b60006020820190506146b1600083018461468d565b92915050565b60008083601f8401126146cd576146cc6141a2565b5b8235905067ffffffffffffffff8111156146ea576146e96141a7565b5b602083019150836020820283011115614706576147056141ac565b5b9250929050565b600080602083850312156147245761472361404b565b5b600083013567ffffffffffffffff81111561474257614741614050565b5b61474e858286016146b7565b92509250509250929050565b600061476582614116565b9050919050565b6147758161475a565b82525050565b6000602082019050614790600083018461476c565b92915050565b600080600080608085870312156147b0576147af61404b565b5b60006147be878288016145e9565b94505060206147cf87828801614088565b93505060406147e087828801614088565b92505060606147f1878288016145e9565b91505092959194509250565b60006040820190506148126000830185614651565b61481f6020830184614651565b9392505050565b60008083601f84011261483c5761483b6141a2565b5b8235905067ffffffffffffffff811115614859576148586141a7565b5b602083019150836080820283011115614875576148746141ac565b5b9250929050565b600080602083850312156148935761489261404b565b5b600083013567ffffffffffffffff8111156148b1576148b0614050565b5b6148bd85828601614826565b92509250509250929050565b600081519050919050565b600082825260208201905092915050565b6000819050602082019050919050565b6148fe81614055565b82525050565b600061491083836148f5565b60208301905092915050565b6000602082019050919050565b6000614934826148c9565b61493e81856148d4565b9350614949836148e5565b8060005b8381101561497a5781516149618882614904565b975061496c8361491c565b92505060018101905061494d565b5085935050505092915050565b600060408201905081810360008301526149a18185614929565b905081810360208301526149b58184614929565b90509392505050565b6000602082840312156149d4576149d361404b565b5b60006149e28482850161418d565b91505092915050565b60008060408385031215614a0257614a0161404b565b5b6000614a108582860161418d565b9250506020614a2185828601614401565b9150509250929050565b614a3481614164565b82525050565b6000602082019050614a4f6000830184614a2b565b92915050565b6000614a6082614116565b9050919050565b614a7081614a55565b82525050565b6000602082019050614a8b6000830184614a67565b92915050565b614a9a816143e0565b82525050565b6000602082019050614ab56000830184614a91565b92915050565b600060208284031215614ad157614ad061404b565b5b6000614adf8482850161442d565b91505092915050565b614af1816145c6565b82525050565b600060ff82169050919050565b614b0d81614af7565b82525050565b6000606082019050614b286000830186614ae8565b614b356020830185614b04565b614b426040830184614651565b949350505050565b60008083601f840112614b6057614b5f6141a2565b5b8235905067ffffffffffffffff811115614b7d57614b7c6141a7565b5b602083019150836001820283011115614b9957614b986141ac565b5b9250929050565b60008060008060008060a08789031215614bbd57614bbc61404b565b5b6000614bcb89828a0161418d565b9650506020614bdc89828a0161418d565b9550506040614bed89828a01614401565b9450506060614bfe89828a01614401565b935050608087013567ffffffffffffffff811115614c1f57614c1e614050565b5b614c2b89828a01614b4a565b92509250509295509295509295565b7f4e487b7100000000000000000000000000000000000000000000000000000000600052604160045260246000fd5b7f4e487b7100000000000000000000000000000000000000000000000000000000600052603260045260246000fd5b6000819050919050565b6000614cbd614cb8614cb384614c98565b6140ea565b6143e0565b9050919050565b614ccd81614ca2565b82525050565b600081519050919050565b600082825260208201905092915050565b6000819050602082019050919050565b614d08816143e0565b82525050565b6000614d1a8383614cff565b60208301905092915050565b6000602082019050919050565b6000614d3e82614cd3565b614d488185614cde565b9350614d5383614cef565b8060005b83811015614d84578151614d6b8882614d0e565b9750614d7683614d26565b925050600181019050614d57565b5085935050505092915050565b600060a082019050614da6600083018861430e565b614db36020830187614a2b565b614dc0604083018661430e565b614dcd6060830185614cc4565b8181036080830152614ddf8184614d33565b90509695505050505050565b6000819050919050565b6000614e10614e0b614e0684614deb565b6140ea565b614055565b9050919050565b614e2081614df5565b82525050565b6000608082019050614e3b600083018761434c565b614e486020830186614ae8565b614e556040830185614e17565b614e626060830184614651565b95945050505050565b6000601f19601f8301169050919050565b614e8582614e6b565b810181811067ffffffffffffffff82111715614ea457614ea3614c3a565b5b80604052505050565b6000614eb7614041565b9050614ec38282614e7c565b919050565b600067ffffffffffffffff821115614ee357614ee2614c3a565b5b602082029050602081019050919050565b600080fd5b600081519050614f0881614416565b92915050565b600081519050614f1d81614176565b92915050565b600081519050614f3281614071565b92915050565b600060808284031215614f4e57614f4d614ef4565b5b614f586080614ead565b90506000614f6884828501614ef9565b6000830152506020614f7c84828501614f0e565b6020830152506040614f9084828501614f23565b6040830152506060614fa484828501614f23565b60608301525092915050565b6000614fc3614fbe84614ec8565b614ead565b90508083825260208201905060808402830185811115614fe657614fe56141ac565b5b835b8181101561500f5780614ffb8882614f38565b845260208401935050608081019050614fe8565b5050509392505050565b600082601f83011261502e5761502d6141a2565b5b815161503e848260208601614fb0565b91505092915050565b60006020828403121561505d5761505c61404b565b5b600082015167ffffffffffffffff81111561507b5761507a614050565b5b61508784828501615019565b91505092915050565b7f4e487b7100000000000000000000000000000000000000000000000000000000600052601160045260246000fd5b60006150ca82614055565b91506150d583614055565b925082820190506fffffffffffffffffffffffffffffffff8111156150fd576150fc615090565b5b92915050565b600061510e826143e0565b9150615119836143e0565b9250828202615127816143e0565b9150828204841483151761513e5761513d615090565b5b5092915050565b7f4e487b7100000000000000000000000000000000000000000000000000000000600052601260045260246000fd5b600061517f826143e0565b915061518a836143e0565b92508261519a57615199615145565b5b828204905092915050565b60006151b0826143e0565b91506151bb836143e0565b92508282019050808211156151d3576151d2615090565b5b92915050565b60006151f46151ef6151ea84614055565b6140ea565b6143e0565b9050919050565b615204816151d9565b82525050565b600082825260208201905092915050565b50565b600061522b60008361520a565b91506152368261521b565b600082019050919050565b600060a0820190506152566000830187614a2b565b6152636020830186614a2b565b6152706040830185614a91565b61527d60608301846151fb565b818103608083015261528e8161521e565b905095945050505050565b600081519050919050565b600082825260208201905092915050565b6000819050602082019050919050565b6152ce81614338565b82525050565b6152dd81614164565b82525050565b6080820160008201516152f960008501826152c5565b50602082015161530c60208501826152d4565b50604082015161531f60408501826148f5565b50606082015161533260608501826148f5565b50505050565b600061534483836152e3565b60808301905092915050565b6000602082019050919050565b600061536882615299565b61537281856152a4565b935061537d836152b5565b8060005b838110156153ae5781516153958882615338565b97506153a083615350565b925050600181019050615381565b5085935050505092915050565b600060208201905081810360008301526153d5818461535d565b905092915050565b60006060820190506153f26000830186614ae8565b6153ff6020830185614651565b61540c6040830184614651565b949350505050565b600081519050615423816145d2565b92915050565b600061012082840312156154405761543f614ef4565b5b61544b610120614ead565b9050600061545b84828501614ef9565b600083015250602061546f84828501614ef9565b602083015250604061548384828501614f0e565b604083015250606061549784828501615414565b60608301525060806154ab84828501614f23565b60808301525060a06154bf84828501614f23565b60a08301525060c06154d384828501614f23565b60c08301525060e06154e784828501614ef9565b60e0830152506101006154fc84828501615414565b6101008301525092915050565b600061012082840312156155205761551f61404b565b5b600061552e84828501615429565b91505092915050565b600061554282614055565b915061554d83614055565b925082820390506fffffffffffffffffffffffffffffffff81111561557557615574615090565b5b92915050565b600082825260208201905092915050565b6000819050919050565b60006155a283836152c5565b60208301905092915050565b60006155bd602084018461442d565b905092915050565b6000602082019050919050565b60006155de838561557b565b93506155e98261558c565b8060005b85811015615622576155ff82846155ae565b6156098882615596565b9750615614836155c5565b9250506001810190506155ed565b5085925050509392505050565b6000602082019050818103600083015261564a8184866155d2565b90509392505050565b600060a0820190506156686000830188614a2b565b615675602083018761434c565b6156826040830186614ae8565b61568f6060830185614651565b61569c6080830184614651565b9695505050505050565b6000602082840312156156bc576156bb61404b565b5b60006156ca84828501614ef9565b91505092915050565b60006080820190506156e8600083018761434c565b6156f56020830186614ae8565b6157026040830185614651565b61570f6060830184614651565b95945050505050565b60006080828403121561572e5761572d614ef4565b5b6157386080614ead565b905060006157488482850161442d565b600083015250602061575c848285016145e9565b602083015250604061577084828501614088565b604083015250606061578484828501614088565b60608301525092915050565b6000608082840312156157a6576157a561404b565b5b60006157b484828501615718565b91505092915050565b600081519050919050565b600081905092915050565b60005b838110156157f15780820151818401526020810190506157d6565b60008484015250505050565b6000615808826157bd565b61581281856157c8565b93506158228185602086016157d3565b80840191505092915050565b600061583a82846157fd565b915081905092915050565b6000615850826140ca565b9050919050565b61586081615845565b811461586b57600080fd5b50565b60008151905061587d81615857565b92915050565b6000602082840312156158995761589861404b565b5b60006158a78482850161586e565b91505092915050565b6000819050919050565b60006158d56158d06158cb846158b0565b6140ea565b6143e0565b9050919050565b6158e5816158ba565b82525050565b60006080820190506159006000830187614a2b565b61590d602083018661430e565b61591a60408301856158dc565b61592760608301846151fb565b95945050505050565b6000819050919050565b600061595561595061594b84615930565b6140ea565b6143e0565b9050919050565b6159658161593a565b82525050565b60006080820190506159806000830187614a2b565b61598d602083018661430e565b61599a604083018561595c565b6159a760608301846151fb565b95945050505050565b60006040820190506159c5600083018561430e565b6159d26020830184614a91565b9392505050565b6000815190506159e8816143b4565b92915050565b600060208284031215615a0457615a0361404b565b5b6000615a12848285016159d9565b91505092915050565b6000604082019050615a306000830185614a2b565b615a3d6020830184614a91565b9392505050565b6000606082019050615a596000830186614a2b565b615a666020830185614a2b565b615a736040830184614a91565b949350505050565b6000604082019050615a906000830185614a2b565b615a9d6020830184614a2b565b9392505050565b600081519050615ab3816143ea565b92915050565b600060208284031215615acf57615ace61404b565b5b6000615add84828501615aa4565b91505092915050565b6000615af182614055565b9150615afc83614055565b925082615b0c57615b0b615145565b5b828204905092915050565b6000615b2282614055565b9150615b2d83614055565b9250828202615b3b81614055565b9150808214615b4d57615b4c615090565b5b5092915050565b600081519050919050565b600082825260208201905092915050565b6000819050602082019050919050565b615b89816145c6565b82525050565b608082016000820151615ba560008501826152c5565b506020820151615bb86020850182615b80565b506040820151615bcb60408501826148f5565b506060820151615bde60608501826148f5565b50505050565b6000615bf08383615b8f565b60808301905092915050565b6000602082019050919050565b6000615c1482615b54565b615c1e8185615b5f565b9350615c2983615b70565b8060005b83811015615c5a578151615c418882615be4565b9750615c4c83615bfc565b925050600181019050615c2d565b5085935050505092915050565b60006020820190508181036000830152615c818184615c09565b905092915050565b600067ffffffffffffffff821115615ca457615ca3614c3a565b5b602082029050602081019050919050565b6000615cc8615cc384615c89565b614ead565b90508083825260208201905060208402830185811115615ceb57615cea6141ac565b5b835b81811015615d3257805167ffffffffffffffff811115615d1057615d0f6141a2565b5b808601615d1d8982615019565b85526020850194505050602081019050615ced565b5050509392505050565b600082601f830112615d5157615d506141a2565b5b8151615d61848260208601615cb5565b91505092915050565b600067ffffffffffffffff821115615d8557615d84614c3a565b5b602082029050602081019050919050565b6000615da9615da484615d6a565b614ead565b90508083825260208201905060208402830185811115615dcc57615dcb6141ac565b5b835b81811015615df55780615de18882614f23565b845260208401935050602081019050615dce565b5050509392505050565b600082601f830112615e1457615e136141a2565b5b8151615e24848260208601615d96565b91505092915050565b60008060408385031215615e4457615e4361404b565b5b600083015167ffffffffffffffff811115615e6257615e61614050565b5b615e6e85828601615d3c565b925050602083015167ffffffffffffffff811115615e8f57615e8e614050565b5b615e9b85828601615dff565b9150509250929050565b6000615eb0826143e0565b9150615ebb836143e0565b9250828203905081811115615ed357615ed2615090565b5b92915050565b6000604082019050615eee6000830185614a2b565b615efb60208301846158dc565b9392505050565b6000615f1d615f18615f1384614af7565b6140ea565b6143e0565b9050919050565b615f2d81615f02565b82525050565b6000608082019050615f486000830187614a2b565b615f55602083018661430e565b615f626040830185615f24565b615f6f60608301846151fb565b95945050505050565b6000615f83826143e0565b91507fffffffffffffffffffffffffffffffffffffffffffffffffffffffffffffffff8203615fb557615fb4615090565b5b60018201905091905056fea2646970667358221220033c6e8cf37571111f67dc83a6e7fe4d648583197f30f7d2e1db8ae9408744aa64736f6c634300081a0033",
  "linkReferences": {},
  "deployedLinkReferences": {}
}