{
  "_format": "hh-sol-artifact-1",
  "contractName": "MatchingEngine",
  "sourceName": "contracts/core/MatchingEngine.sol",
  "abi": [
    {
      "inputs": [],
      "stateMutability": "nonpayable",
      "type": "constructor"
    },
    {
      "inputs": [],
      "name": "ReentrancyGuardReentrantCall",
      "type": "error"
    },
    {
      "inputs": [
        {
          "internalType": "address",
          "name": "token",
          "type": "address"
        }
      ],
      "name": "SafeERC20FailedOperation",
      "type": "error"
    },
    {
      "inputs": [],
      "name": "ZeroAddress",
      "type": "error"
    },
    {
      "anonymous": false,
      "inputs": [
        {
          "indexed": true,
          "internalType": "address",
          "name": "recipient",
          "type": "address"
        },
        {
          "indexed": false,
          "internalType": "uint128",
          "name": "makerFee",
          "type": "uint128"
        },
        {
          "indexed": false,
          "internalType": "uint128",
          "name": "takerFee",
          "type": "uint128"
        }
      ],
      "name": "FeeCollected",
      "type": "event"
    },
    {
      "anonymous": false,
      "inputs": [
        {
          "indexed": true,
          "internalType": "uint64",
          "name": "marketId",
          "type": "uint64"
        },
        {
          "indexed": true,
          "internalType": "address",
          "name": "taker",
          "type": "address"
        },
        {
          "indexed": false,
          "internalType": "uint128",
          "name": "filled",
          "type": "uint128"
        },
        {
          "indexed": false,
          "internalType": "uint128",
          "name": "price",
          "type": "uint128"
        },
        {
          "indexed": false,
          "internalType": "uint128",
          "name": "totalFee",
          "type": "uint128"
        }
      ],
      "name": "MatchExecuted",
      "type": "event"
    },
    {
      "inputs": [
        {
          "internalType": "uint128",
          "name": "price",
          "type": "uint128"
        },
        {
          "internalType": "uint128",
          "name": "amount",
          "type": "uint128"
        },
        {
          "internalType": "bool",
          "name": "isMaker",
          "type": "bool"
        }
      ],
      "name": "calculateFee",
      "outputs": [
        {
          "internalType": "uint128",
          "name": "fee",
          "type": "uint128"
        }
      ],
      "stateMutability": "view",
      "type": "function"
    },
    {
      "inputs": [],
      "name": "collateralToken",
      "outputs": [
        {
          "internalType": "address",
          "name": "",
          "type": "address"
        }
      ],
      "stateMutability": "view",
      "type": "function"
    },
    {
      "inputs": [],
      "name": "feeRecipient",
      "outputs": [
        {
          "internalType": "address",
          "name": "",
          "type": "address"
        }
      ],
      "stateMutability": "view",
      "type": "function"
    },
    {
      "inputs": [
        {
          "internalType": "uint64",
          "name": "marketId",
          "type": "uint64"
        }
      ],
      "name": "getCurrentPrice",
      "outputs": [
        {
          "internalType": "uint128",
          "name": "price",
          "type": "uint128"
        }
      ],
      "stateMutability": "view",
      "type": "function"
    },
    {
      "inputs": [
        {
          "internalType": "address",
          "name": "_orderBook",
          "type": "address"
        },
        {
          "internalType": "address",
          "name": "_collateral",
          "type": "address"
        },
        {
          "internalType": "address",
          "name": "_feeRecipient",
          "type": "address"
        }
      ],
      "name": "init",
      "outputs": [],
      "stateMutability": "nonpayable",
      "type": "function"
    },
    {
      "inputs": [],
      "name": "makerFeeRate",
      "outputs": [
        {
          "internalType": "uint256",
          "name": "",
          "type": "uint256"
        }
      ],
      "stateMutability": "view",
      "type": "function"
    },
    {
      "inputs": [
        {
          "components": [
            {
              "internalType": "uint64",
              "name": "marketId",
              "type": "uint64"
            },
            {
              "internalType": "bool",
              "name": "isYes",
              "type": "bool"
            },
            {
              "internalType": "uint128",
              "name": "limitPrice",
              "type": "uint128"
            },
            {
              "internalType": "uint128",
              "name": "amount",
              "type": "uint128"
            }
          ],
          "internalType": "struct IMatchingEngine.TakerOrder[]",
          "name": "orders",
          "type": "tuple[]"
        }
      ],
      "name": "matchOrders",
      "outputs": [
        {
          "components": [
            {
              "internalType": "uint64",
              "name": "orderId",
              "type": "uint64"
            },
            {
              "internalType": "address",
              "name": "maker",
              "type": "address"
            },
            {
              "internalType": "uint128",
              "name": "amount",
              "type": "uint128"
            },
            {
              "internalType": "uint128",
              "name": "price",
              "type": "uint128"
            }
          ],
          "internalType": "struct IOrderBook.Fill[][]",
          "name": "results",
          "type": "tuple[][]"
        },
        {
          "internalType": "uint128[]",
          "name": "totalFilleds",
          "type": "uint128[]"
        }
      ],
      "stateMutability": "nonpayable",
      "type": "function"
    },
    {
      "inputs": [],
      "name": "orderBook",
      "outputs": [
        {
          "internalType": "address",
          "name": "",
          "type": "address"
        }
      ],
      "stateMutability": "view",
      "type": "function"
    },
    {
      "inputs": [
        {
          "internalType": "uint256",
          "name": "_makerFeeRate",
          "type": "uint256"
        },
        {
          "internalType": "uint256",
          "name": "_takerFeeRate",
          "type": "uint256"
        }
      ],
      "name": "setFeeRate",
      "outputs": [],
      "stateMutability": "nonpayable",
      "type": "function"
    },
    {
      "inputs": [
        {
          "internalType": "address",
          "name": "_feeRecipient",
          "type": "address"
        }
      ],
      "name": "setFeeRecipient",
      "outputs": [],
      "stateMutability": "nonpayable",
      "type": "function"
    },
    {
      "inputs": [],
      "name": "takerFeeRate",
      "outputs": [
        {
          "internalType": "uint256",
          "name": "",
          "type": "uint256"
        }
      ],
      "stateMutability": "view",
      "type": "function"
    }
  ],
  "bytecode": "0x6080604052606460045560c8600555348015601957600080fd5b506001600081905550611a2c806100316000396000f3fe608060405234801561001057600080fd5b50600436106100995760003560e01c8063184b95591461009e57806323502639146100ba57806346904840146100eb5780635458f0a0146101095780637428f89e1461012757806376baf88c14610145578063776af5ba14610175578063b2016bd414610193578063b33ab1cf146101b1578063e74b981b146101e1578063f2d2a751146101fd575b600080fd5b6100b860048036038101906100b39190610dfe565b610219565b005b6100d460048036038101906100cf9190610eb6565b610367565b6040516100e29291906111d5565b60405180910390f35b6100f36107ab565b604051610100919061121b565b60405180910390f35b6101116107d1565b60405161011e919061124f565b60405180910390f35b61012f6107d7565b60405161013c919061124f565b60405180910390f35b61015f600480360381019061015a91906112ce565b6107dd565b60405161016c9190611330565b60405180910390f35b61017d610859565b60405161018a919061121b565b60405180910390f35b61019b61087f565b6040516101a8919061121b565b60405180910390f35b6101cb60048036038101906101c69190611377565b6108a5565b6040516101d89190611330565b60405180910390f35b6101fb60048036038101906101f691906113a4565b610a94565b005b610217600480360381019061021291906113fd565b610ad8565b005b600260149054906101000a900460ff1615610269576040517f08c379a00000000000000000000000000000000000000000000000000000000081526004016102609061149a565b60405180910390fd5b61027283610aea565b61027b82610aea565b61028481610aea565b82600160006101000a81548173ffffffffffffffffffffffffffffffffffffffff021916908373ffffffffffffffffffffffffffffffffffffffff16021790555081600260006101000a81548173ffffffffffffffffffffffffffffffffffffffff021916908373ffffffffffffffffffffffffffffffffffffffff16021790555080600360006101000a81548173ffffffffffffffffffffffffffffffffffffffff021916908373ffffffffffffffffffffffffffffffffffffffff1602179055506001600260146101000a81548160ff021916908315150217905550505050565b606080610372610b53565b60008484905090508067ffffffffffffffff811115610394576103936114ba565b5b6040519080825280602002602001820160405280156103c757816020015b60608152602001906001900390816103b25790505b5092508067ffffffffffffffff8111156103e4576103e36114ba565b5b6040519080825280602002602001820160405280156104125781602001602082028036833780820191505090505b50915060005b8181101561079a576000600160009054906101000a900473ffffffffffffffffffffffffffffffffffffffff1673ffffffffffffffffffffffffffffffffffffffff1663a042acb6888885818110610473576104726114e9565b5b905060800201600001602081019061048b9190611377565b89898681811061049e5761049d6114e9565b5b90506080020160200160208101906104b69190611518565b8a8a878181106104c9576104c86114e9565b5b90506080020160400160208101906104e19190611545565b8b8b888181106104f4576104f36114e9565b5b905060800201606001602081019061050c9190611545565b6040518563ffffffff1660e01b815260040161052b9493929190611590565b600060405180830381865afa158015610548573d6000803e3d6000fd5b505050506040513d6000823e3d601f19601f8201168201806040525081019061057191906117b1565b905080858381518110610587576105866114e9565b5b602002602001018190525061059b81610b99565b8483815181106105ae576105ad6114e9565b5b60200260200101906fffffffffffffffffffffffffffffffff1690816fffffffffffffffffffffffffffffffff168152505060008483815181106105f5576105f46114e9565b5b60200260200101516fffffffffffffffffffffffffffffffff16111561078e57600061062082610be7565b90506000816fffffffffffffffffffffffffffffffff1611156106c1576106c033600360009054906101000a900473ffffffffffffffffffffffffffffffffffffffff16836fffffffffffffffffffffffffffffffff16600260009054906101000a900473ffffffffffffffffffffffffffffffffffffffff1673ffffffffffffffffffffffffffffffffffffffff16610c5e909392919063ffffffff16565b5b3373ffffffffffffffffffffffffffffffffffffffff168888858181106106eb576106ea6114e9565b5b90506080020160000160208101906107039190611377565b67ffffffffffffffff167f0f9580c6c099da4837ff0388a79c937d4860e5c0c33047a16ddded9437753fad878681518110610741576107406114e9565b5b60200260200101518b8b8881811061075c5761075b6114e9565b5b90506080020160400160208101906107749190611545565b85604051610784939291906117fa565b60405180910390a3505b81600101915050610418565b50506107a4610ce0565b9250929050565b600360009054906101000a900473ffffffffffffffffffffffffffffffffffffffff1681565b60055481565b60045481565b600080826107ed576005546107f1565b6004545b9050670de0b6b3a7640000620f424082866fffffffffffffffffffffffffffffffff16886fffffffffffffffffffffffffffffffff166108319190611860565b61083b9190611860565b61084591906118d1565b61084f91906118d1565b9150509392505050565b600160009054906101000a900473ffffffffffffffffffffffffffffffffffffffff1681565b600260009054906101000a900473ffffffffffffffffffffffffffffffffffffffff1681565b600080600160009054906101000a900473ffffffffffffffffffffffffffffffffffffffff1673ffffffffffffffffffffffffffffffffffffffff16630177833e846040518263ffffffff1660e01b81526004016109039190611902565b602060405180830381865afa158015610920573d6000803e3d6000fd5b505050506040513d601f19601f82011682018060405250810190610944919061191d565b90506000600160009054906101000a900473ffffffffffffffffffffffffffffffffffffffff1673ffffffffffffffffffffffffffffffffffffffff1663c94151e5856040518263ffffffff1660e01b81526004016109a39190611902565b602060405180830381865afa1580156109c0573d6000803e3d6000fd5b505050506040513d601f19601f820116820180604052508101906109e4919061191d565b90506000826fffffffffffffffffffffffffffffffff16148015610a1a57506000816fffffffffffffffffffffffffffffffff16145b15610a2a57600092505050610a8f565b6000826fffffffffffffffffffffffffffffffff1603610a4e578092505050610a8f565b6000816fffffffffffffffffffffffffffffffff1603610a72578192505050610a8f565b60028183610a80919061194a565b610a8a919061198e565b925050505b919050565b80600360006101000a81548173ffffffffffffffffffffffffffffffffffffffff021916908373ffffffffffffffffffffffffffffffffffffffff16021790555050565b81600481905550806005819055505050565b600073ffffffffffffffffffffffffffffffffffffffff168173ffffffffffffffffffffffffffffffffffffffff1603610b50576040517fd92e233d00000000000000000000000000000000000000000000000000000000815260040160405180910390fd5b50565b600260005403610b8f576040517f3ee5aeb500000000000000000000000000000000000000000000000000000000815260040160405180910390fd5b6002600081905550565b600080600090505b8251811015610be157828181518110610bbd57610bbc6114e9565b5b60200260200101516040015182610bd4919061194a565b9150806001019050610ba1565b50919050565b600080600090505b8251811015610c5857610c40838281518110610c0e57610c0d6114e9565b5b602002602001015160600151848381518110610c2d57610c2c6114e9565b5b60200260200101516040015160006107dd565b82610c4b919061194a565b9150806001019050610bef565b50919050565b610cda848573ffffffffffffffffffffffffffffffffffffffff166323b872dd868686604051602401610c93939291906119bf565b604051602081830303815290604052915060e01b6020820180517bffffffffffffffffffffffffffffffffffffffffffffffffffffffff8381831617835250505050610cea565b50505050565b6001600081905550565b600080602060008451602086016000885af180610d0d576040513d6000823e3d81fd5b3d925060005191505060008214610d28576001811415610d44565b60008473ffffffffffffffffffffffffffffffffffffffff163b145b15610d8657836040517f5274afe7000000000000000000000000000000000000000000000000000000008152600401610d7d919061121b565b60405180910390fd5b50505050565b6000604051905090565b600080fd5b600080fd5b600073ffffffffffffffffffffffffffffffffffffffff82169050919050565b6000610dcb82610da0565b9050919050565b610ddb81610dc0565b8114610de657600080fd5b50565b600081359050610df881610dd2565b92915050565b600080600060608486031215610e1757610e16610d96565b5b6000610e2586828701610de9565b9350506020610e3686828701610de9565b9250506040610e4786828701610de9565b9150509250925092565b600080fd5b600080fd5b600080fd5b60008083601f840112610e7657610e75610e51565b5b8235905067ffffffffffffffff811115610e9357610e92610e56565b5b602083019150836080820283011115610eaf57610eae610e5b565b5b9250929050565b60008060208385031215610ecd57610ecc610d96565b5b600083013567ffffffffffffffff811115610eeb57610eea610d9b565b5b610ef785828601610e60565b92509250509250929050565b600081519050919050565b600082825260208201905092915050565b6000819050602082019050919050565b600081519050919050565b600082825260208201905092915050565b6000819050602082019050919050565b600067ffffffffffffffff82169050919050565b610f7881610f5b565b82525050565b610f8781610dc0565b82525050565b60006fffffffffffffffffffffffffffffffff82169050919050565b610fb281610f8d565b82525050565b608082016000820151610fce6000850182610f6f565b506020820151610fe16020850182610f7e565b506040820151610ff46040850182610fa9565b5060608201516110076060850182610fa9565b50505050565b60006110198383610fb8565b60808301905092915050565b6000602082019050919050565b600061103d82610f2f565b6110478185610f3a565b935061105283610f4b565b8060005b8381101561108357815161106a888261100d565b975061107583611025565b925050600181019050611056565b5085935050505092915050565b600061109c8383611032565b905092915050565b6000602082019050919050565b60006110bc82610f03565b6110c68185610f0e565b9350836020820285016110d885610f1f565b8060005b8581101561111457848403895281516110f58582611090565b9450611100836110a4565b925060208a019950506001810190506110dc565b50829750879550505050505092915050565b600081519050919050565b600082825260208201905092915050565b6000819050602082019050919050565b600061115e8383610fa9565b60208301905092915050565b6000602082019050919050565b600061118282611126565b61118c8185611131565b935061119783611142565b8060005b838110156111c85781516111af8882611152565b97506111ba8361116a565b92505060018101905061119b565b5085935050505092915050565b600060408201905081810360008301526111ef81856110b1565b905081810360208301526112038184611177565b90509392505050565b61121581610dc0565b82525050565b6000602082019050611230600083018461120c565b92915050565b6000819050919050565b61124981611236565b82525050565b60006020820190506112646000830184611240565b92915050565b61127381610f8d565b811461127e57600080fd5b50565b6000813590506112908161126a565b92915050565b60008115159050919050565b6112ab81611296565b81146112b657600080fd5b50565b6000813590506112c8816112a2565b92915050565b6000806000606084860312156112e7576112e6610d96565b5b60006112f586828701611281565b935050602061130686828701611281565b9250506040611317868287016112b9565b9150509250925092565b61132a81610f8d565b82525050565b60006020820190506113456000830184611321565b92915050565b61135481610f5b565b811461135f57600080fd5b50565b6000813590506113718161134b565b92915050565b60006020828403121561138d5761138c610d96565b5b600061139b84828501611362565b91505092915050565b6000602082840312156113ba576113b9610d96565b5b60006113c884828501610de9565b91505092915050565b6113da81611236565b81146113e557600080fd5b50565b6000813590506113f7816113d1565b92915050565b6000806040838503121561141457611413610d96565b5b6000611422858286016113e8565b9250506020611433858286016113e8565b9150509250929050565b600082825260208201905092915050565b7f4d453a20616c726561647920696e697469616c697a6564000000000000000000600082015250565b600061148460178361143d565b915061148f8261144e565b602082019050919050565b600060208201905081810360008301526114b381611477565b9050919050565b7f4e487b7100000000000000000000000000000000000000000000000000000000600052604160045260246000fd5b7f4e487b7100000000000000000000000000000000000000000000000000000000600052603260045260246000fd5b60006020828403121561152e5761152d610d96565b5b600061153c848285016112b9565b91505092915050565b60006020828403121561155b5761155a610d96565b5b600061156984828501611281565b91505092915050565b61157b81610f5b565b82525050565b61158a81611296565b82525050565b60006080820190506115a56000830187611572565b6115b26020830186611581565b6115bf6040830185611321565b6115cc6060830184611321565b95945050505050565b6000601f19601f8301169050919050565b6115ef826115d5565b810181811067ffffffffffffffff8211171561160e5761160d6114ba565b5b80604052505050565b6000611621610d8c565b905061162d82826115e6565b919050565b600067ffffffffffffffff82111561164d5761164c6114ba565b5b602082029050602081019050919050565b600080fd5b6000815190506116728161134b565b92915050565b60008151905061168781610dd2565b92915050565b60008151905061169c8161126a565b92915050565b6000608082840312156116b8576116b761165e565b5b6116c26080611617565b905060006116d284828501611663565b60008301525060206116e684828501611678565b60208301525060406116fa8482850161168d565b604083015250606061170e8482850161168d565b60608301525092915050565b600061172d61172884611632565b611617565b905080838252602082019050608084028301858111156117505761174f610e5b565b5b835b81811015611779578061176588826116a2565b845260208401935050608081019050611752565b5050509392505050565b600082601f83011261179857611797610e51565b5b81516117a884826020860161171a565b91505092915050565b6000602082840312156117c7576117c6610d96565b5b600082015167ffffffffffffffff8111156117e5576117e4610d9b565b5b6117f184828501611783565b91505092915050565b600060608201905061180f6000830186611321565b61181c6020830185611321565b6118296040830184611321565b949350505050565b7f4e487b7100000000000000000000000000000000000000000000000000000000600052601160045260246000fd5b600061186b82611236565b915061187683611236565b925082820261188481611236565b9150828204841483151761189b5761189a611831565b5b5092915050565b7f4e487b7100000000000000000000000000000000000000000000000000000000600052601260045260246000fd5b60006118dc82611236565b91506118e783611236565b9250826118f7576118f66118a2565b5b828204905092915050565b60006020820190506119176000830184611572565b92915050565b60006020828403121561193357611932610d96565b5b60006119418482850161168d565b91505092915050565b600061195582610f8d565b915061196083610f8d565b925082820190506fffffffffffffffffffffffffffffffff81111561198857611987611831565b5b92915050565b600061199982610f8d565b91506119a483610f8d565b9250826119b4576119b36118a2565b5b828204905092915050565b60006060820190506119d4600083018661120c565b6119e1602083018561120c565b6119ee6040830184611240565b94935050505056fea2646970667358221220062507ae33991fa633fd40d90682f7ac9b2e419d100f5fa0cf1afec4d8d3bdfc64736f6c634300081a0033",
  "linkReferences": {},
  "deployedLinkReferences": {}
}