{
  "_format": "hh-sol-artifact-1",
  "contractName": "OrderBook",
  "sourceName": "contracts/core/OrderBook.sol",
  "abi": [
    {
      "inputs": [],
      "name": "ReentrancyGuardReentrantCall",
      "type": "error"
    },
    {
      "anonymous": false,
      "inputs": [
        {
          "indexed": true,
          "internalType": "uint64",
          "name": "id",
          "type": "uint64"
        }
      ],
      "name": "OrderCancelled",
      "type": "event"
    },
    {
      "anonymous": false,
      "inputs": [
        {
          "indexed": true,
          "internalType": "uint64",
          "name": "orderId",
          "type": "uint64"
        },
        {
          "indexed": false,
          "internalType": "uint128",
          "name": "fillAmount",
          "type": "uint128"
        },
        {
          "indexed": false,
          "internalType": "uint128",
          "name": "fillPrice",
          "type": "uint128"
        }
      ],
      "name": "OrderFilled",
      "type": "event"
    },
    {
      "anonymous": false,
      "inputs": [
        {
          "indexed": true,
          "internalType": "uint64",
          "name": "id",
          "type": "uint64"
        },
        {
          "indexed": true,
          "internalType": "uint64",
          "name": "marketId",
          "type": "uint64"
        },
        {
          "indexed": true,
          "internalType": "address",
          "name": "maker",
          "type": "address"
        },
        {
          "indexed": false,
          "internalType": "bool",
          "name": "isYes",
          "type": "bool"
        },
        {
          "indexed": false,
          "internalType": "uint128",
          "name": "price",
          "type": "uint128"
        },
        {
          "indexed": false,
          "internalType": "uint128",
          "name": "amount",
          "type": "uint128"
        }
      ],
      "name": "OrderPlaced",
      "type": "event"
    },
    {
      "inputs": [
        {
          "internalType": "address",
          "name": "market",
          "type": "address"
        }
      ],
      "name": "authorizeMarket",
      "outputs": [],
      "stateMutability": "nonpayable",
      "type": "function"
    },
    {
      "inputs": [
        {
          "internalType": "address",
          "name": "",
          "type": "address"
        }
      ],
      "name": "authorizedMarkets",
      "outputs": [
        {
          "internalType": "bool",
          "name": "",
          "type": "bool"
        }
      ],
      "stateMutability": "view",
      "type": "function"
    },
    {
      "inputs": [
        {
          "internalType": "uint64",
          "name": "",
          "type": "uint64"
        }
      ],
      "name": "bestAsk",
      "outputs": [
        {
          "internalType": "uint128",
          "name": "",
          "type": "uint128"
        }
      ],
      "stateMutability": "view",
      "type": "function"
    },
    {
      "inputs": [
        {
          "internalType": "uint64",
          "name": "",
          "type": "uint64"
        }
      ],
      "name": "bestBid",
      "outputs": [
        {
          "internalType": "uint128",
          "name": "",
          "type": "uint128"
        }
      ],
      "stateMutability": "view",
      "type": "function"
    },
    {
      "inputs": [
        {
          "internalType": "uint64[]",
          "name": "orderIds",
          "type": "uint64[]"
        }
      ],
      "name": "cancelOrder",
      "outputs": [],
      "stateMutability": "nonpayable",
      "type": "function"
    },
    {
      "inputs": [
        {
          "internalType": "address",
          "name": "market",
          "type": "address"
        }
      ],
      "name": "deauthorizeMarket",
      "outputs": [],
      "stateMutability": "nonpayable",
      "type": "function"
    },
    {
      "inputs": [
        {
          "components": [
            {
              "internalType": "uint64",
              "name": "orderId",
              "type": "uint64"
            },
            {
              "internalType": "address",
              "name": "maker",
              "type": "address"
            },
            {
              "internalType": "uint128",
              "name": "amount",
              "type": "uint128"
            },
            {
              "internalType": "uint128",
              "name": "price",
              "type": "uint128"
            }
          ],
          "internalType": "struct IOrderBook.Fill[]",
          "name": "fills",
          "type": "tuple[]"
        }
      ],
      "name": "fillOrders",
      "outputs": [],
      "stateMutability": "nonpayable",
      "type": "function"
    },
    {
      "inputs": [
        {
          "internalType": "uint64",
          "name": "marketId",
          "type": "uint64"
        }
      ],
      "name": "getBestAsk",
      "outputs": [
        {
          "internalType": "uint128",
          "name": "",
          "type": "uint128"
        }
      ],
      "stateMutability": "view",
      "type": "function"
    },
    {
      "inputs": [
        {
          "internalType": "uint64",
          "name": "marketId",
          "type": "uint64"
        }
      ],
      "name": "getBestBid",
      "outputs": [
        {
          "internalType": "uint128",
          "name": "",
          "type": "uint128"
        }
      ],
      "stateMutability": "view",
      "type": "function"
    },
    {
      "inputs": [
        {
          "internalType": "uint64",
          "name": "marketId",
          "type": "uint64"
        },
        {
          "internalType": "bool",
          "name": "isYes",
          "type": "bool"
        },
        {
          "internalType": "uint128",
          "name": "price",
          "type": "uint128"
        },
        {
          "internalType": "uint128",
          "name": "maxOrders",
          "type": "uint128"
        }
      ],
      "name": "getDepth",
      "outputs": [
        {
          "internalType": "uint128",
          "name": "totalAmount",
          "type": "uint128"
        }
      ],
      "stateMutability": "view",
      "type": "function"
    },
    {
      "inputs": [
        {
          "internalType": "uint64",
          "name": "marketId",
          "type": "uint64"
        },
        {
          "internalType": "bool",
          "name": "isYes",
          "type": "bool"
        },
        {
          "internalType": "uint128",
          "name": "limitPrice",
          "type": "uint128"
        },
        {
          "internalType": "uint128",
          "name": "amount",
          "type": "uint128"
        }
      ],
      "name": "getFills",
      "outputs": [
        {
          "components": [
            {
              "internalType": "uint64",
              "name": "orderId",
              "type": "uint64"
            },
            {
              "internalType": "address",
              "name": "maker",
              "type": "address"
            },
            {
              "internalType": "uint128",
              "name": "amount",
              "type": "uint128"
            },
            {
              "internalType": "uint128",
              "name": "price",
              "type": "uint128"
            }
          ],
          "internalType": "struct IOrderBook.Fill[]",
          "name": "fills",
          "type": "tuple[]"
        }
      ],
      "stateMutability": "view",
      "type": "function"
    },
    {
      "inputs": [
        {
          "internalType": "uint64",
          "name": "orderId",
          "type": "uint64"
        }
      ],
      "name": "getOrder",
      "outputs": [
        {
          "components": [
            {
              "internalType": "uint64",
              "name": "id",
              "type": "uint64"
            },
            {
              "internalType": "uint64",
              "name": "marketId",
              "type": "uint64"
            },
            {
              "internalType": "address",
              "name": "maker",
              "type": "address"
            },
            {
              "internalType": "bool",
              "name": "isYes",
              "type": "bool"
            },
            {
              "internalType": "uint128",
              "name": "price",
              "type": "uint128"
            },
            {
              "internalType": "uint128",
              "name": "amount",
              "type": "uint128"
            },
            {
              "internalType": "uint128",
              "name": "filled",
              "type": "uint128"
            },
            {
              "internalType": "uint64",
              "name": "timestamp",
              "type": "uint64"
            },
            {
              "internalType": "bool",
              "name": "isActive",
              "type": "bool"
            }
          ],
          "internalType": "struct Types.OrderData",
          "name": "",
          "type": "tuple"
        }
      ],
      "stateMutability": "view",
      "type": "function"
    },
    {
      "inputs": [
        {
          "internalType": "uint64",
          "name": "marketId",
          "type": "uint64"
        },
        {
          "internalType": "bool",
          "name": "isYes",
          "type": "bool"
        },
        {
          "internalType": "uint128",
          "name": "price",
          "type": "uint128"
        }
      ],
      "name": "getPriceOrders",
      "outputs": [
        {
          "internalType": "uint64[]",
          "name": "",
          "type": "uint64[]"
        }
      ],
      "stateMutability": "view",
      "type": "function"
    },
    {
      "inputs": [
        {
          "internalType": "uint64",
          "name": "marketId",
          "type": "uint64"
        },
        {
          "internalType": "bool",
          "name": "isYes",
          "type": "bool"
        }
      ],
      "name": "getSortedPrices",
      "outputs": [
        {
          "internalType": "uint128[]",
          "name": "",
          "type": "uint128[]"
        }
      ],
      "stateMutability": "view",
      "type": "function"
    },
    {
      "inputs": [
        {
          "internalType": "address",
          "name": "user",
          "type": "address"
        },
        {
          "internalType": "uint64",
          "name": "marketId",
          "type": "uint64"
        }
      ],
      "name": "getUserOrders",
      "outputs": [
        {
          "internalType": "uint64[]",
          "name": "",
          "type": "uint64[]"
        }
      ],
      "stateMutability": "view",
      "type": "function"
    },
    {
      "inputs": [],
      "name": "init",
      "outputs": [],
      "stateMutability": "nonpayable",
      "type": "function"
    },
    {
      "inputs": [],
      "name": "nextOrderId",
      "outputs": [
        {
          "internalType": "uint64",
          "name": "",
          "type": "uint64"
        }
      ],
      "stateMutability": "view",
      "type": "function"
    },
    {
      "inputs": [
        {
          "internalType": "uint64",
          "name": "",
          "type": "uint64"
        }
      ],
      "name": "orders",
      "outputs": [
        {
          "internalType": "uint64",
          "name": "id",
          "type": "uint64"
        },
        {
          "internalType": "uint64",
          "name": "marketId",
          "type": "uint64"
        },
        {
          "internalType": "address",
          "name": "maker",
          "type": "address"
        },
        {
          "internalType": "bool",
          "name": "isYes",
          "type": "bool"
        },
        {
          "internalType": "uint128",
          "name": "price",
          "type": "uint128"
        },
        {
          "internalType": "uint128",
          "name": "amount",
          "type": "uint128"
        },
        {
          "internalType": "uint128",
          "name": "filled",
          "type": "uint128"
        },
        {
          "internalType": "uint64",
          "name": "timestamp",
          "type": "uint64"
        },
        {
          "internalType": "bool",
          "name": "isActive",
          "type": "bool"
        }
      ],
      "stateMutability": "view",
      "type": "function"
    },
    {
      "inputs": [
        {
          "internalType": "address",
          "name": "maker",
          "type": "address"
        },
        {
          "internalType": "uint64",
          "name": "marketId",
          "type": "uint64"
        },
        {
          "internalType": "bool",
          "name": "isYes",
          "type": "bool"
        },
        {
          "internalType": "uint128",
          "name": "price",
          "type": "uint128"
        },
        {
          "internalType": "uint128",
          "name": "amount",
          "type": "uint128"
        }
      ],
      "name": "placeOrder",
      "outputs": [
        {
          "internalType": "uint64",
          "name": "orderId",
          "type": "uint64"
        }
      ],
      "stateMutability": "nonpayable",
      "type": "function"
    },
    {
      "inputs": [
        {
          "internalType": "uint64",
          "name": "",
          "type": "uint64"
        },
        {
          "internalType": "bool",
          "name": "",
          "type": "bool"
        }
      ],
      "name": "priceBitmap",
      "outputs": [
        {
          "internalType": "uint256",
          "name": "",
          "type": "uint256"
        }
      ],
      "stateMutability": "view",
      "type": "function"
    },
    {
      "inputs": [
        {
          "internalType": "uint64",
          "name": "",
          "type": "uint64"
        },
        {
          "internalType": "bool",
          "name": "",
          "type": "bool"
        }
      ],
      "name": "priceBitmapHigh",
      "outputs": [
        {
          "internalType": "uint256",
          "name": "",
          "type": "uint256"
        }
      ],
      "stateMutability": "view",
      "type": "function"
    },
    {
      "inputs": [
        {
          "internalType": "uint64",
          "name": "",
          "type": "uint64"
        },
        {
          "internalType": "bool",
          "name": "",
          "type": "bool"
        },
        {
          "internalType": "uint256",
          "name": "",
          "type": "uint256"
        },
        {
          "internalType": "uint256",
          "name": "",
          "type": "uint256"
        }
      ],
      "name": "priceOrders",
      "outputs": [
        {
          "internalType": "uint64",
          "name": "",
          "type": "uint64"
        }
      ],
      "stateMutability": "view",
      "type": "function"
    },
    {
      "inputs": [
        {
          "internalType": "address",
          "name": "",
          "type": "address"
        },
        {
          "internalType": "uint64",
          "name": "",
          "type": "uint64"
        },
        {
          "internalType": "uint256",
          "name": "",
          "type": "uint256"
        }
      ],
      "name": "userOrders",
      "outputs": [
        {
          "internalType": "uint64",
          "name": "",
          "type": "uint64"
        }
      ],
      "stateMutability": "view",
      "type": "function"
    }
  ],
  "bytecode": "0x60806040526001600660006101000a81548167ffffffffffffffff021916908367ffffffffffffffff160217905550348015603957600080fd5b506001600081905550614836806100516000396000f3fe608060405234801561001057600080fd5b506004361061011d5760003560e01c80630177833e146101225780630d2511da1461015257806310fe339514610182578063197235fd146101b25780631b24b651146101e25780632a58b330146102125780632e635cc9146102305780634299b8a21461026057806346b81bde1461029057806368118e43146102c0578063780942ba146102dc578063912b7b621461030c57806393cf61f11461033c578063a042acb614610358578063a3085c8f14610388578063a469dffa146103b8578063c94151e5146103f0578063cdf9d07c14610420578063d14552f114610450578063d54bb22014610480578063e1c7392a146104b0578063f2862e67146104ba578063fa26958c146104d6575b600080fd5b61013c600480360381019061013791906136c4565b6104f2565b604051610149919061371c565b60405180910390f35b61016c600480360381019061016791906137a5565b61053f565b604051610179919061381b565b60405180910390f35b61019c60048036038101906101979190613894565b6105a6565b6040516101a99190613992565b60405180910390f35b6101cc60048036038101906101c791906139b4565b610697565b6040516101d99190613a03565b60405180910390f35b6101fc60048036038101906101f79190613a1e565b6106bc565b604051610209919061381b565b60405180910390f35b61021a610716565b604051610227919061381b565b60405180910390f35b61024a60048036038101906102459190613a9d565b610730565b604051610257919061371c565b60405180910390f35b61027a60048036038101906102759190613b04565b6108cc565b6040516102879190613b40565b60405180910390f35b6102aa60048036038101906102a591906136c4565b6108ec565b6040516102b7919061371c565b60405180910390f35b6102da60048036038101906102d59190613bc0565b61091b565b005b6102f660048036038101906102f191906139b4565b610a0b565b6040516103039190613a03565b60405180910390f35b61032660048036038101906103219190613c0d565b610a30565b6040516103339190613992565b60405180910390f35b61035660048036038101906103519190613cb6565b610b1a565b005b610372600480360381019061036d9190613a9d565b61123f565b60405161037f9190613e25565b60405180910390f35b6103a2600480360381019061039d9190613e47565b6116e5565b6040516103af919061381b565b60405180910390f35b6103d260048036038101906103cd91906136c4565b611fee565b6040516103e799989796959493929190613ed1565b60405180910390f35b61040a600480360381019061040591906136c4565b612106565b604051610417919061371c565b60405180910390f35b61043a600480360381019061043591906136c4565b612153565b6040516104479190614024565b60405180910390f35b61046a600480360381019061046591906139b4565b612395565b60405161047791906140ef565b60405180910390f35b61049a600480360381019061049591906136c4565b612530565b6040516104a7919061371c565b60405180910390f35b6104b861255f565b005b6104d460048036038101906104cf9190613b04565b61261f565b005b6104f060048036038101906104eb9190613b04565b612679565b005b6000600760008367ffffffffffffffff1667ffffffffffffffff16815260200190815260200160002060009054906101000a90046fffffffffffffffffffffffffffffffff169050919050565b6003602052836000526040600020602052826000526040600020602052816000526040600020818154811061057357600080fd5b90600052602060002090600491828204019190066008029350935050509054906101000a900467ffffffffffffffff1681565b6060600960008473ffffffffffffffffffffffffffffffffffffffff1673ffffffffffffffffffffffffffffffffffffffff16815260200190815260200160002060008367ffffffffffffffff1667ffffffffffffffff16815260200190815260200160002080548060200260200160405190810160405280929190818152602001828054801561068a57602002820191906000526020600020906000905b82829054906101000a900467ffffffffffffffff1667ffffffffffffffff16815260200190600801906020826007010492830192600103820291508084116106455790505b5050505050905092915050565b6005602052816000526040600020602052806000526040600020600091509150505481565b600960205282600052604060002060205281600052604060002081815481106106e457600080fd5b906000526020600020906004918282040191900660080292509250509054906101000a900467ffffffffffffffff1681565b600660009054906101000a900467ffffffffffffffff1681565b60008061073d84866126d4565b90506000600360008867ffffffffffffffff1667ffffffffffffffff1681526020019081526020016000206000871515151581526020019081526020016000206000838152602001908152602001600020905060008180549050856fffffffffffffffffffffffffffffffff16106107b95781805490506107cd565b846fffffffffffffffffffffffffffffffff165b905060005b818110156108c0576000600260008584815481106107f3576107f2614111565b5b90600052602060002090600491828204019190066008029054906101000a900467ffffffffffffffff1667ffffffffffffffff1667ffffffffffffffff16815260200190815260200160002090508060030160189054906101000a900460ff16156108b2578060030160009054906101000a90046fffffffffffffffffffffffffffffffff168160020160109054906101000a90046fffffffffffffffffffffffffffffffff166108a4919061416f565b866108af91906141b3565b95505b5080806001019150506107d2565b50505050949350505050565b60016020528060005260406000206000915054906101000a900460ff1681565b60076020528060005260406000206000915054906101000a90046fffffffffffffffffffffffffffffffff1681565b600160003373ffffffffffffffffffffffffffffffffffffffff1673ffffffffffffffffffffffffffffffffffffffff16815260200190815260200160002060009054906101000a900460ff166109a7576040517f08c379a000000000000000000000000000000000000000000000000000000000815260040161099e90614254565b60405180910390fd5b6109af612821565b600082829050905060005b818110156109fd576109f28484838181106109d8576109d7614111565b5b90506020020160208101906109ed91906136c4565b612867565b8060010190506109ba565b5050610a07612ac2565b5050565b6004602052816000526040600020602052806000526040600020600091509150505481565b60606000610a3e83856126d4565b9050600360008667ffffffffffffffff1667ffffffffffffffff1681526020019081526020016000206000851515151581526020019081526020016000206000828152602001908152602001600020805480602002602001604051908101604052809291908181526020018280548015610b0b57602002820191906000526020600020906000905b82829054906101000a900467ffffffffffffffff1667ffffffffffffffff1681526020019060080190602082600701049283019260010382029150808411610ac65790505b50505050509150509392505050565b600160003373ffffffffffffffffffffffffffffffffffffffff1673ffffffffffffffffffffffffffffffffffffffff16815260200190815260200160002060009054906101000a900460ff16610ba6576040517f08c379a0000000000000000000000000000000000000000000000000000000008152600401610b9d90614254565b60405180910390fd5b610bae612821565b60008282905011610bf4576040517f08c379a0000000000000000000000000000000000000000000000000000000008152600401610beb906142c0565b60405180910390fd5b60008282905067ffffffffffffffff811115610c1357610c126142e0565b5b604051908082528060200260200182016040528015610c415781602001602082028036833780820191505090505b50905060008383905067ffffffffffffffff811115610c6357610c626142e0565b5b604051908082528060200260200182016040528015610c915781602001602082028036833780820191505090505b509050600080600090505b8585905081101561112d5736868683818110610cbb57610cba614111565b5b9050608002019050600060026000836000016020810190610cdc91906136c4565b67ffffffffffffffff1667ffffffffffffffff16815260200190815260200160002090508060030160189054906101000a900460ff16610d51576040517f08c379a0000000000000000000000000000000000000000000000000000000008152600401610d489061435b565b60405180910390fd5b6000826040016020810190610d66919061437b565b6fffffffffffffffffffffffffffffffff1611610db8576040517f08c379a0000000000000000000000000000000000000000000000000000000008152600401610daf906143f4565b60405180910390fd5b816040016020810190610dcb919061437b565b8160030160008282829054906101000a90046fffffffffffffffffffffffffffffffff16610df991906141b3565b92506101000a8154816fffffffffffffffffffffffffffffffff02191690836fffffffffffffffffffffffffffffffff1602179055508060020160109054906101000a90046fffffffffffffffffffffffffffffffff166fffffffffffffffffffffffffffffffff168160030160009054906101000a90046fffffffffffffffffffffffffffffffff166fffffffffffffffffffffffffffffffff1610610eb85760008160030160186101000a81548160ff0219169083151502179055505b816000016020810190610ecb91906136c4565b67ffffffffffffffff167f2c812220b2b782866567d3be326eb23cad89696572941d1855b4c150e46f5282836040016020810190610f09919061437b565b846060016020810190610f1c919061437b565b604051610f2a929190614414565b60405180910390a26000805b8581101561103557836020016020810190610f519190613b04565b73ffffffffffffffffffffffffffffffffffffffff16888281518110610f7a57610f79614111565b5b602002602001015173ffffffffffffffffffffffffffffffffffffffff160361102857836060016020810190610fb0919061437b565b6fffffffffffffffffffffffffffffffff16846040016020810190610fd5919061437b565b6fffffffffffffffffffffffffffffffff16610ff1919061443d565b87828151811061100457611003614111565b5b60200260200101818151611018919061447f565b9150818152505060019150611035565b8080600101915050610f36565b508061111d5782602001602081019061104e9190613b04565b87868151811061106157611060614111565b5b602002602001019073ffffffffffffffffffffffffffffffffffffffff16908173ffffffffffffffffffffffffffffffffffffffff16815250508260600160208101906110ae919061437b565b6fffffffffffffffffffffffffffffffff168360400160208101906110d3919061437b565b6fffffffffffffffffffffffffffffffff166110ef919061443d565b86868151811061110257611101614111565b5b6020026020010181815250508480611119906144b3565b9550505b5050508080600101915050610c9c565b506000858590501115611230576000600260008787600081811061115457611153614111565b5b905060800201600001602081019061116c91906136c4565b67ffffffffffffffff1667ffffffffffffffff16815260200190815260200160002060000160089054906101000a900467ffffffffffffffff169050600060026000888860008181106111c2576111c1614111565b5b90506080020160000160208101906111da91906136c4565b67ffffffffffffffff1667ffffffffffffffff16815260200190815260200160002060010160149054906101000a900460ff16905080156112235761121e82612acc565b61122d565b61122c82612bd1565b5b50505b50505061123b612ac2565b5050565b60606000826fffffffffffffffffffffffffffffffff16036112b757600067ffffffffffffffff811115611276576112756142e0565b5b6040519080825280602002602001820160405280156112af57816020015b61129c613554565b8152602001906001900390816112945790505b5090506116dd565b6112c2858515612cd6565b61132257600067ffffffffffffffff8111156112e1576112e06142e0565b5b60405190808252806020026020018201604052801561131a57816020015b611307613554565b8152602001906001900390816112ff5790505b5090506116dd565b6000606467ffffffffffffffff81111561133f5761133e6142e0565b5b60405190808252806020026020018201604052801561137857816020015b611365613554565b81526020019060019003908161135d5790505b50905060008084905086156114765760005b60016101f461139991906144fb565b811080156113b957506000826fffffffffffffffffffffffffffffffff16115b15611470576113ca89600083612d68565b1561145d5760006113dc826000612e20565b9050876fffffffffffffffffffffffffffffffff16816fffffffffffffffffffffffffffffffff1611156114105750611470565b60006114218b600085878a8a612e5b565b905084810361143157505061145d565b80945061143e8686613126565b88611449919061416f565b93506064851061145a575050611470565b50505b8080611468906144b3565b91505061138a565b50611601565b60006114838760016126d4565b9050600060016101f461149691906144fb565b82106114b05760026101f46114ab91906144fb565b6114b2565b815b90505b60016101f46114c491906144fb565b811080156114e457506000836fffffffffffffffffffffffffffffffff16115b156115fe576114f58a600183612d68565b6115155760008103156115fe57808061150d9061452f565b9150506115f9565b6000611522826001612e20565b9050886fffffffffffffffffffffffffffffffff16816fffffffffffffffffffffffffffffffff161115611572576000820361155e57506115fe565b81806115699061452f565b925050506115f9565b60006115838c600185888b8b612e5b565b90508581036115b0576000830361159b5750506115fe565b82806115a69061452f565b93505050506115f9565b8095506115bd8787613126565b896115c8919061416f565b9450606486106115d95750506115fe565b600083036115e85750506115fe565b82806115f39061452f565b93505050505b6114b5565b50505b60008061160e8585613126565b6fffffffffffffffffffffffffffffffff161461162b578261162e565b60005b90508067ffffffffffffffff81111561164a576116496142e0565b5b60405190808252806020026020018201604052801561168357816020015b611670613554565b8152602001906001900390816116685790505b50945060005b818110156116d7578481815181106116a4576116a3614111565b5b60200260200101518682815181106116bf576116be614111565b5b60200260200101819052508080600101915050611689565b50505050505b949350505050565b6000600160003373ffffffffffffffffffffffffffffffffffffffff1673ffffffffffffffffffffffffffffffffffffffff16815260200190815260200160002060009054906101000a900460ff16611773576040517f08c379a000000000000000000000000000000000000000000000000000000000815260040161176a90614254565b60405180910390fd5b61177b612821565b6000826fffffffffffffffffffffffffffffffff16116117d0576040517f08c379a00000000000000000000000000000000000000000000000000000000081526004016117c7906145a4565b60405180910390fd5b6000836fffffffffffffffffffffffffffffffff1611801561181d5750670de0b6b3a76400006fffffffffffffffffffffffffffffffff16836fffffffffffffffffffffffffffffffff16105b61185c576040517f08c379a000000000000000000000000000000000000000000000000000000000815260040161185390614610565b60405180910390fd5b600061186884866126d4565b90506101f481106118ae576040517f08c379a00000000000000000000000000000000000000000000000000000000081526004016118a59061467c565b60405180910390fd5b6006600081819054906101000a900467ffffffffffffffff16809291906118d49061469c565b91906101000a81548167ffffffffffffffff021916908367ffffffffffffffff16021790555091506040518061012001604052808367ffffffffffffffff1681526020018767ffffffffffffffff1681526020018873ffffffffffffffffffffffffffffffffffffffff1681526020018615158152602001856fffffffffffffffffffffffffffffffff168152602001846fffffffffffffffffffffffffffffffff16815260200160006fffffffffffffffffffffffffffffffff1681526020014267ffffffffffffffff16815260200160011515815250600260008467ffffffffffffffff1667ffffffffffffffff16815260200190815260200160002060008201518160000160006101000a81548167ffffffffffffffff021916908367ffffffffffffffff16021790555060208201518160000160086101000a81548167ffffffffffffffff021916908367ffffffffffffffff16021790555060408201518160010160006101000a81548173ffffffffffffffffffffffffffffffffffffffff021916908373ffffffffffffffffffffffffffffffffffffffff16021790555060608201518160010160146101000a81548160ff02191690831515021790555060808201518160020160006101000a8154816fffffffffffffffffffffffffffffffff02191690836fffffffffffffffffffffffffffffffff16021790555060a08201518160020160106101000a8154816fffffffffffffffffffffffffffffffff02191690836fffffffffffffffffffffffffffffffff16021790555060c08201518160030160006101000a8154816fffffffffffffffffffffffffffffffff02191690836fffffffffffffffffffffffffffffffff16021790555060e08201518160030160106101000a81548167ffffffffffffffff021916908367ffffffffffffffff1602179055506101008201518160030160186101000a81548160ff021916908315150217905550905050600360008767ffffffffffffffff1667ffffffffffffffff16815260200190815260200160002060008615151515815260200190815260200160002060008281526020019081526020016000208290806001815401808255809150506001900390600052602060002090600491828204019190066008029091909190916101000a81548167ffffffffffffffff021916908367ffffffffffffffff160217905550611c54868683613178565b600960008873ffffffffffffffffffffffffffffffffffffffff1673ffffffffffffffffffffffffffffffffffffffff16815260200190815260200160002060008767ffffffffffffffff1667ffffffffffffffff1681526020019081526020016000208290806001815401808255809150506001900390600052602060002090600491828204019190066008029091909190916101000a81548167ffffffffffffffff021916908367ffffffffffffffff1602179055508415611e45576000600760008867ffffffffffffffff1667ffffffffffffffff16815260200190815260200160002060009054906101000a90046fffffffffffffffffffffffffffffffff166fffffffffffffffffffffffffffffffff161480611ddc5750600760008767ffffffffffffffff1667ffffffffffffffff16815260200190815260200160002060009054906101000a90046fffffffffffffffffffffffffffffffff166fffffffffffffffffffffffffffffffff16846fffffffffffffffffffffffffffffffff16115b15611e405783600760008867ffffffffffffffff1667ffffffffffffffff16815260200190815260200160002060006101000a8154816fffffffffffffffffffffffffffffffff02191690836fffffffffffffffffffffffffffffffff1602179055505b611f74565b6000600860008867ffffffffffffffff1667ffffffffffffffff16815260200190815260200160002060009054906101000a90046fffffffffffffffffffffffffffffffff166fffffffffffffffffffffffffffffffff161480611f0f5750600860008767ffffffffffffffff1667ffffffffffffffff16815260200190815260200160002060009054906101000a90046fffffffffffffffffffffffffffffffff166fffffffffffffffffffffffffffffffff16846fffffffffffffffffffffffffffffffff16105b15611f735783600860008867ffffffffffffffff1667ffffffffffffffff16815260200190815260200160002060006101000a8154816fffffffffffffffffffffffffffffffff02191690836fffffffffffffffffffffffffffffffff1602179055505b5b8673ffffffffffffffffffffffffffffffffffffffff168667ffffffffffffffff168367ffffffffffffffff167f3690dc77aead4541a6b93c008f45158b867b95e9e9fd51825edbbbbfa5d91687888888604051611fd4939291906146cc565b60405180910390a450611fe5612ac2565b95945050505050565b60026020528060005260406000206000915090508060000160009054906101000a900467ffffffffffffffff16908060000160089054906101000a900467ffffffffffffffff16908060010160009054906101000a900473ffffffffffffffffffffffffffffffffffffffff16908060010160149054906101000a900460ff16908060020160009054906101000a90046fffffffffffffffffffffffffffffffff16908060020160109054906101000a90046fffffffffffffffffffffffffffffffff16908060030160009054906101000a90046fffffffffffffffffffffffffffffffff16908060030160109054906101000a900467ffffffffffffffff16908060030160189054906101000a900460ff16905089565b6000600860008367ffffffffffffffff1667ffffffffffffffff16815260200190815260200160002060009054906101000a90046fffffffffffffffffffffffffffffffff169050919050565b61215b6135c0565b600260008367ffffffffffffffff1667ffffffffffffffff168152602001908152602001600020604051806101200160405290816000820160009054906101000a900467ffffffffffffffff1667ffffffffffffffff1667ffffffffffffffff1681526020016000820160089054906101000a900467ffffffffffffffff1667ffffffffffffffff1667ffffffffffffffff1681526020016001820160009054906101000a900473ffffffffffffffffffffffffffffffffffffffff1673ffffffffffffffffffffffffffffffffffffffff1673ffffffffffffffffffffffffffffffffffffffff1681526020016001820160149054906101000a900460ff161515151581526020016002820160009054906101000a90046fffffffffffffffffffffffffffffffff166fffffffffffffffffffffffffffffffff166fffffffffffffffffffffffffffffffff1681526020016002820160109054906101000a90046fffffffffffffffffffffffffffffffff166fffffffffffffffffffffffffffffffff166fffffffffffffffffffffffffffffffff1681526020016003820160009054906101000a90046fffffffffffffffffffffffffffffffff166fffffffffffffffffffffffffffffffff166fffffffffffffffffffffffffffffffff1681526020016003820160109054906101000a900467ffffffffffffffff1667ffffffffffffffff1667ffffffffffffffff1681526020016003820160189054906101000a900460ff1615151515815250509050919050565b60606123a18383612cd6565b6123f657600067ffffffffffffffff8111156123c0576123bf6142e0565b5b6040519080825280602002602001820160405280156123ee5781602001602082028036833780820191505090505b50905061252a565b60008060009050600060016101f461240e91906144fb565b905060008290505b8181101561244a57612429878783612d68565b1561243d578380612439906144b3565b9450505b8080600101915050612416565b5060008367ffffffffffffffff811115612467576124666142e0565b5b6040519080825280602002602001820160405280156124955781602001602082028036833780820191505090505b5090506000808490505b83811015612520576124b2898983612d68565b15612513576124c18189612e20565b8383806124cd906144b3565b9450815181106124e0576124df614111565b5b60200260200101906fffffffffffffffffffffffffffffffff1690816fffffffffffffffffffffffffffffffff16815250505b808060010191505061249f565b5081955050505050505b92915050565b60086020528060005260406000206000915054906101000a90046fffffffffffffffffffffffffffffffff1681565b600660089054906101000a900460ff16156125af576040517f08c379a00000000000000000000000000000000000000000000000000000000081526004016125a69061474f565b60405180910390fd5b6000600660009054906101000a900467ffffffffffffffff1667ffffffffffffffff1603612602576001600660006101000a81548167ffffffffffffffff021916908367ffffffffffffffff1602179055505b6001600660086101000a81548160ff021916908315150217905550565b60018060008373ffffffffffffffffffffffffffffffffffffffff1673ffffffffffffffffffffffffffffffffffffffff16815260200190815260200160002060006101000a81548160ff02191690831515021790555050565b6000600160008373ffffffffffffffffffffffffffffffffffffffff1673ffffffffffffffffffffffffffffffffffffffff16815260200190815260200160002060006101000a81548160ff02191690831515021790555050565b600080836fffffffffffffffffffffffffffffffff161180156127225750670de0b6b3a76400006fffffffffffffffffffffffffffffffff16836fffffffffffffffffffffffffffffffff16105b80156127525750600066071afd498d00008461273e919061479e565b6fffffffffffffffffffffffffffffffff16145b612791576040517f08c379a000000000000000000000000000000000000000000000000000000000815260040161278890614610565b60405180910390fd5b600066071afd498d0000846127a691906147cf565b6fffffffffffffffffffffffffffffffff169050600181101580156127cc57506101f481105b61280b576040517f08c379a000000000000000000000000000000000000000000000000000000000815260040161280290614610565b60405180910390fd5b60018161281891906144fb565b91505092915050565b60026000540361285d576040517f3ee5aeb500000000000000000000000000000000000000000000000000000000815260040160405180910390fd5b6002600081905550565b6000600260008367ffffffffffffffff1667ffffffffffffffff16815260200190815260200160002090508060030160189054906101000a900460ff166128ae5750612abf565b60008160000160089054906101000a900467ffffffffffffffff16905060008260010160149054906101000a900460ff169050600061290d8460020160009054906101000a90046fffffffffffffffffffffffffffffffff16836126d4565b905060008460030160186101000a81548160ff0219169083151502179055508467ffffffffffffffff167f413c1ea791e99e4774c2bdb5634eb463180b94450f02a3712b75fd6f638f38ab60405160405180910390a261296e838383613236565b61297e5761297d838383613336565b5b8115612a21578360020160009054906101000a90046fffffffffffffffffffffffffffffffff166fffffffffffffffffffffffffffffffff16600760008567ffffffffffffffff1667ffffffffffffffff16815260200190815260200160002060009054906101000a90046fffffffffffffffffffffffffffffffff166fffffffffffffffffffffffffffffffff1603612a1c57612a1b83612acc565b5b612aba565b8360020160009054906101000a90046fffffffffffffffffffffffffffffffff166fffffffffffffffffffffffffffffffff16600860008567ffffffffffffffff1667ffffffffffffffff16815260200190815260200160002060009054906101000a90046fffffffffffffffffffffffffffffffff166fffffffffffffffffffffffffffffffff1603612ab957612ab883612bd1565b5b5b505050505b50565b6001600081905550565b6000612ad7826133f6565b90507fffffffffffffffffffffffffffffffffffffffffffffffffffffffffffffffff8103612b64576000600760008467ffffffffffffffff1667ffffffffffffffff16815260200190815260200160002060006101000a8154816fffffffffffffffffffffffffffffffff02191690836fffffffffffffffffffffffffffffffff160217905550612bcd565b612b6f816001612e20565b600760008467ffffffffffffffff1667ffffffffffffffff16815260200190815260200160002060006101000a8154816fffffffffffffffffffffffffffffffff02191690836fffffffffffffffffffffffffffffffff1602179055505b5050565b6000612bdc826134a8565b90507fffffffffffffffffffffffffffffffffffffffffffffffffffffffffffffffff8103612c69576000600860008467ffffffffffffffff1667ffffffffffffffff16815260200190815260200160002060006101000a8154816fffffffffffffffffffffffffffffffff02191690836fffffffffffffffffffffffffffffffff160217905550612cd2565b612c74816000612e20565b600860008467ffffffffffffffff1667ffffffffffffffff16815260200190815260200160002060006101000a8154816fffffffffffffffffffffffffffffffff02191690836fffffffffffffffffffffffffffffffff1602179055505b5050565b600080600460008567ffffffffffffffff1667ffffffffffffffff16815260200190815260200160002060008415151515815260200190815260200160002054141580612d6057506000600560008567ffffffffffffffff1667ffffffffffffffff1681526020019081526020016000206000841515151581526020019081526020016000205414155b905092915050565b6000610100821015612dc2576000826001901b600460008767ffffffffffffffff1667ffffffffffffffff168152602001908152602001600020600086151515158152602001908152602001600020541614159050612e19565b600061010083612dd291906144fb565b6001901b600560008767ffffffffffffffff1667ffffffffffffffff1681526020019081526020016000206000861515151581526020019081526020016000205416141590505b9392505050565b600066071afd498d00006fffffffffffffffffffffffffffffffff16600184612e49919061447f565b612e53919061443d565b905092915050565b60008190506000600360008967ffffffffffffffff1667ffffffffffffffff1681526020019081526020016000206000881515151581526020019081526020016000206000878152602001908152602001600020905060005b818054905081108015612ed957506000866fffffffffffffffffffffffffffffffff16115b1561311a576000828281548110612ef357612ef2614111565b5b90600052602060002090600491828204019190066008029054906101000a900467ffffffffffffffff1690506000600260008367ffffffffffffffff1667ffffffffffffffff16815260200190815260200160002090508060030160189054906101000a900460ff16612f67575050613107565b60008160030160009054906101000a90046fffffffffffffffffffffffffffffffff168260020160109054906101000a90046fffffffffffffffffffffffffffffffff16612fb5919061416f565b90506000816fffffffffffffffffffffffffffffffff1603612fd957505050613107565b6000816fffffffffffffffffffffffffffffffff168a6fffffffffffffffffffffffffffffffff161061300c578161300e565b895b905060405180608001604052808567ffffffffffffffff1681526020018460010160009054906101000a900473ffffffffffffffffffffffffffffffffffffffff1673ffffffffffffffffffffffffffffffffffffffff168152602001826fffffffffffffffffffffffffffffffff1681526020018460020160009054906101000a90046fffffffffffffffffffffffffffffffff166fffffffffffffffffffffffffffffffff168152508988806130c5906144b3565b9950815181106130d8576130d7614111565b5b6020026020010181905250808a6130ef919061416f565b995060648710613102575050505061311a565b505050505b8080613112906144b3565b915050612eb4565b50509695505050505050565b60008060005b8381101561316d5784818151811061314757613146614111565b5b6020026020010151604001518261315e91906141b3565b9150808060010191505061312c565b508091505092915050565b6101008110156131d557806001901b600460008567ffffffffffffffff1667ffffffffffffffff16815260200190815260200160002060008415151515815260200190815260200160002060008282541792505081905550613231565b610100816131e391906144fb565b6001901b600560008567ffffffffffffffff1667ffffffffffffffff168152602001908152602001600020600084151515158152602001908152602001600020600082825417925050819055505b505050565b600080600360008667ffffffffffffffff1667ffffffffffffffff1681526020019081526020016000206000851515151581526020019081526020016000206000848152602001908152602001600020905060005b818054905081101561332857600260008383815481106132ae576132ad614111565b5b90600052602060002090600491828204019190066008029054906101000a900467ffffffffffffffff1667ffffffffffffffff1667ffffffffffffffff16815260200190815260200160002060030160189054906101000a900460ff161561331b5760019250505061332f565b808060010191505061328b565b5060009150505b9392505050565b61010081101561339457806001901b19600460008567ffffffffffffffff1667ffffffffffffffff168152602001908152602001600020600084151515158152602001908152602001600020600082825416925050819055506133f1565b610100816133a291906144fb565b6001901b19600560008567ffffffffffffffff1667ffffffffffffffff168152602001908152602001600020600084151515158152602001908152602001600020600082825416925050819055505b505050565b6000613403826001612cd6565b61342f577fffffffffffffffffffffffffffffffffffffffffffffffffffffffffffffffff90506134a3565b60026101f461343e91906144fb565b90505b61344d82600183612d68565b156134635761345e82600183613236565b6134a3575b600081031561347f5780806134779061452f565b915050613441565b7fffffffffffffffffffffffffffffffffffffffffffffffffffffffffffffffff90505b919050565b60006134b5826000612cd6565b6134e1577fffffffffffffffffffffffffffffffffffffffffffffffffffffffffffffffff905061354f565b600090505b60016101f46134f591906144fb565b81101561352b5761350882600083612d68565b1561351e5761351982600083613236565b61354f575b80806001019150506134e6565b7fffffffffffffffffffffffffffffffffffffffffffffffffffffffffffffffff90505b919050565b6040518060800160405280600067ffffffffffffffff168152602001600073ffffffffffffffffffffffffffffffffffffffff16815260200160006fffffffffffffffffffffffffffffffff16815260200160006fffffffffffffffffffffffffffffffff1681525090565b604051806101200160405280600067ffffffffffffffff168152602001600067ffffffffffffffff168152602001600073ffffffffffffffffffffffffffffffffffffffff16815260200160001515815260200160006fffffffffffffffffffffffffffffffff16815260200160006fffffffffffffffffffffffffffffffff16815260200160006fffffffffffffffffffffffffffffffff168152602001600067ffffffffffffffff1681526020016000151581525090565b600080fd5b600080fd5b600067ffffffffffffffff82169050919050565b6136a181613684565b81146136ac57600080fd5b50565b6000813590506136be81613698565b92915050565b6000602082840312156136da576136d961367a565b5b60006136e8848285016136af565b91505092915050565b60006fffffffffffffffffffffffffffffffff82169050919050565b613716816136f1565b82525050565b6000602082019050613731600083018461370d565b92915050565b60008115159050919050565b61374c81613737565b811461375757600080fd5b50565b60008135905061376981613743565b92915050565b6000819050919050565b6137828161376f565b811461378d57600080fd5b50565b60008135905061379f81613779565b92915050565b600080600080608085870312156137bf576137be61367a565b5b60006137cd878288016136af565b94505060206137de8782880161375a565b93505060406137ef87828801613790565b925050606061380087828801613790565b91505092959194509250565b61381581613684565b82525050565b6000602082019050613830600083018461380c565b92915050565b600073ffffffffffffffffffffffffffffffffffffffff82169050919050565b600061386182613836565b9050919050565b61387181613856565b811461387c57600080fd5b50565b60008135905061388e81613868565b92915050565b600080604083850312156138ab576138aa61367a565b5b60006138b98582860161387f565b92505060206138ca858286016136af565b9150509250929050565b600081519050919050565b600082825260208201905092915050565b6000819050602082019050919050565b61390981613684565b82525050565b600061391b8383613900565b60208301905092915050565b6000602082019050919050565b600061393f826138d4565b61394981856138df565b9350613954836138f0565b8060005b8381101561398557815161396c888261390f565b975061397783613927565b925050600181019050613958565b5085935050505092915050565b600060208201905081810360008301526139ac8184613934565b905092915050565b600080604083850312156139cb576139ca61367a565b5b60006139d9858286016136af565b92505060206139ea8582860161375a565b9150509250929050565b6139fd8161376f565b82525050565b6000602082019050613a1860008301846139f4565b92915050565b600080600060608486031215613a3757613a3661367a565b5b6000613a458682870161387f565b9350506020613a56868287016136af565b9250506040613a6786828701613790565b9150509250925092565b613a7a816136f1565b8114613a8557600080fd5b50565b600081359050613a9781613a71565b92915050565b60008060008060808587031215613ab757613ab661367a565b5b6000613ac5878288016136af565b9450506020613ad68782880161375a565b9350506040613ae787828801613a88565b9250506060613af887828801613a88565b91505092959194509250565b600060208284031215613b1a57613b1961367a565b5b6000613b288482850161387f565b91505092915050565b613b3a81613737565b82525050565b6000602082019050613b556000830184613b31565b92915050565b600080fd5b600080fd5b600080fd5b60008083601f840112613b8057613b7f613b5b565b5b8235905067ffffffffffffffff811115613b9d57613b9c613b60565b5b602083019150836020820283011115613bb957613bb8613b65565b5b9250929050565b60008060208385031215613bd757613bd661367a565b5b600083013567ffffffffffffffff811115613bf557613bf461367f565b5b613c0185828601613b6a565b92509250509250929050565b600080600060608486031215613c2657613c2561367a565b5b6000613c34868287016136af565b9350506020613c458682870161375a565b9250506040613c5686828701613a88565b9150509250925092565b60008083601f840112613c7657613c75613b5b565b5b8235905067ffffffffffffffff811115613c9357613c92613b60565b5b602083019150836080820283011115613caf57613cae613b65565b5b9250929050565b60008060208385031215613ccd57613ccc61367a565b5b600083013567ffffffffffffffff811115613ceb57613cea61367f565b5b613cf785828601613c60565b92509250509250929050565b600081519050919050565b600082825260208201905092915050565b6000819050602082019050919050565b613d3881613856565b82525050565b613d47816136f1565b82525050565b608082016000820151613d636000850182613900565b506020820151613d766020850182613d2f565b506040820151613d896040850182613d3e565b506060820151613d9c6060850182613d3e565b50505050565b6000613dae8383613d4d565b60808301905092915050565b6000602082019050919050565b6000613dd282613d03565b613ddc8185613d0e565b9350613de783613d1f565b8060005b83811015613e18578151613dff8882613da2565b9750613e0a83613dba565b925050600181019050613deb565b5085935050505092915050565b60006020820190508181036000830152613e3f8184613dc7565b905092915050565b600080600080600060a08688031215613e6357613e6261367a565b5b6000613e718882890161387f565b9550506020613e82888289016136af565b9450506040613e938882890161375a565b9350506060613ea488828901613a88565b9250506080613eb588828901613a88565b9150509295509295909350565b613ecb81613856565b82525050565b600061012082019050613ee7600083018c61380c565b613ef4602083018b61380c565b613f01604083018a613ec2565b613f0e6060830189613b31565b613f1b608083018861370d565b613f2860a083018761370d565b613f3560c083018661370d565b613f4260e083018561380c565b613f50610100830184613b31565b9a9950505050505050505050565b613f6781613737565b82525050565b61012082016000820151613f846000850182613900565b506020820151613f976020850182613900565b506040820151613faa6040850182613d2f565b506060820151613fbd6060850182613f5e565b506080820151613fd06080850182613d3e565b5060a0820151613fe360a0850182613d3e565b5060c0820151613ff660c0850182613d3e565b5060e082015161400960e0850182613900565b5061010082015161401e610100850182613f5e565b50505050565b60006101208201905061403a6000830184613f6d565b92915050565b600081519050919050565b600082825260208201905092915050565b6000819050602082019050919050565b60006140788383613d3e565b60208301905092915050565b6000602082019050919050565b600061409c82614040565b6140a6818561404b565b93506140b18361405c565b8060005b838110156140e25781516140c9888261406c565b97506140d483614084565b9250506001810190506140b5565b5085935050505092915050565b600060208201905081810360008301526141098184614091565b905092915050565b7f4e487b7100000000000000000000000000000000000000000000000000000000600052603260045260246000fd5b7f4e487b7100000000000000000000000000000000000000000000000000000000600052601160045260246000fd5b600061417a826136f1565b9150614185836136f1565b925082820390506fffffffffffffffffffffffffffffffff8111156141ad576141ac614140565b5b92915050565b60006141be826136f1565b91506141c9836136f1565b925082820190506fffffffffffffffffffffffffffffffff8111156141f1576141f0614140565b5b92915050565b600082825260208201905092915050565b7f4f423a206e6f7420617574686f72697a6564206d61726b657400000000000000600082015250565b600061423e6019836141f7565b915061424982614208565b602082019050919050565b6000602082019050818103600083015261426d81614231565b9050919050565b7f4f423a20656d7074792066696c6c730000000000000000000000000000000000600082015250565b60006142aa600f836141f7565b91506142b582614274565b602082019050919050565b600060208201905081810360008301526142d98161429d565b9050919050565b7f4e487b7100000000000000000000000000000000000000000000000000000000600052604160045260246000fd5b7f4f423a206f7264657220696e6163746976650000000000000000000000000000600082015250565b60006143456012836141f7565b91506143508261430f565b602082019050919050565b6000602082019050818103600083015261437481614338565b9050919050565b6000602082840312156143915761439061367a565b5b600061439f84828501613a88565b91505092915050565b7f4f423a207a65726f2066696c6c20616d6f756e74000000000000000000000000600082015250565b60006143de6014836141f7565b91506143e9826143a8565b602082019050919050565b6000602082019050818103600083015261440d816143d1565b9050919050565b6000604082019050614429600083018561370d565b614436602083018461370d565b9392505050565b60006144488261376f565b91506144538361376f565b92508282026144618161376f565b9150828204841483151761447857614477614140565b5b5092915050565b600061448a8261376f565b91506144958361376f565b92508282019050808211156144ad576144ac614140565b5b92915050565b60006144be8261376f565b91507fffffffffffffffffffffffffffffffffffffffffffffffffffffffffffffffff82036144f0576144ef614140565b5b600182019050919050565b60006145068261376f565b91506145118361376f565b925082820390508181111561452957614528614140565b5b92915050565b600061453a8261376f565b91506000820361454d5761454c614140565b5b600182039050919050565b7f4f423a207a65726f20616d6f756e740000000000000000000000000000000000600082015250565b600061458e600f836141f7565b915061459982614558565b602082019050919050565b600060208201905081810360008301526145bd81614581565b9050919050565b7f4f423a20696e76616c6964207072696365000000000000000000000000000000600082015250565b60006145fa6011836141f7565b9150614605826145c4565b602082019050919050565b60006020820190508181036000830152614629816145ed565b9050919050565b7f4f423a20736c6f74206f7574206f662072616e67650000000000000000000000600082015250565b60006146666015836141f7565b915061467182614630565b602082019050919050565b6000602082019050818103600083015261469581614659565b9050919050565b60006146a782613684565b915067ffffffffffffffff82036146c1576146c0614140565b5b600182019050919050565b60006060820190506146e16000830186613b31565b6146ee602083018561370d565b6146fb604083018461370d565b949350505050565b7f4f423a20616c726561647920696e697469616c697a6564000000000000000000600082015250565b60006147396017836141f7565b915061474482614703565b602082019050919050565b600060208201905081810360008301526147688161472c565b9050919050565b7f4e487b7100000000000000000000000000000000000000000000000000000000600052601260045260246000fd5b60006147a9826136f1565b91506147b4836136f1565b9250826147c4576147c361476f565b5b828206905092915050565b60006147da826136f1565b91506147e5836136f1565b9250826147f5576147f461476f565b5b82820490509291505056fea2646970667358221220cbc2c29f8e5a7d012d9b1f414f04491ed199f20d21dc7d962039f5c73e02c56164736f6c634300081a0033",
  "linkReferences": {},
  "deployedLinkReferences": {}
}