{
  "_format": "hh-sol-artifact-1",
  "contractName": "OrderBook",
  "sourceName": "contracts/core/OrderBook.sol",
  "abi": [
    {
      "inputs": [],
      "name": "ReentrancyGuardReentrantCall",
      "type": "error"
    },
    {
      "anonymous": false,
      "inputs": [
        {
          "indexed": true,
          "internalType": "uint64",
          "name": "id",
          "type": "uint64"
        }
      ],
      "name": "OrderCancelled",
      "type": "event"
    },
    {
      "anonymous": false,
      "inputs": [
        {
          "indexed": true,
          "internalType": "uint64",
          "name": "orderId",
          "type": "uint64"
        },
        {
          "indexed": false,
          "internalType": "uint128",
          "name": "fillAmount",
          "type": "uint128"
        },
        {
          "indexed": false,
          "internalType": "uint128",
          "name": "fillPrice",
          "type": "uint128"
        }
      ],
      "name": "OrderFilled",
      "type": "event"
    },
    {
      "anonymous": false,
      "inputs": [
        {
          "indexed": true,
          "internalType": "uint64",
          "name": "id",
          "type": "uint64"
        },
        {
          "indexed": true,
          "internalType": "uint64",
          "name": "marketId",
          "type": "uint64"
        },
        {
          "indexed": true,
          "internalType": "address",
          "name": "maker",
          "type": "address"
        },
        {
          "indexed": false,
          "internalType": "bool",
          "name": "isYes",
          "type": "bool"
        },
        {
          "indexed": false,
          "internalType": "uint128",
          "name": "price",
          "type": "uint128"
        },
        {
          "indexed": false,
          "internalType": "uint128",
          "name": "amount",
          "type": "uint128"
        }
      ],
      "name": "OrderPlaced",
      "type": "event"
    },
    {
      "inputs": [
        {
          "internalType": "address",
          "name": "market",
          "type": "address"
        }
      ],
      "name": "authorizeMarket",
      "outputs": [],
      "stateMutability": "nonpayable",
      "type": "function"
    },
    {
      "inputs": [
        {
          "internalType": "address",
          "name": "",
          "type": "address"
        }
      ],
      "name": "authorizedMarkets",
      "outputs": [
        {
          "internalType": "bool",
          "name": "",
          "type": "bool"
        }
      ],
      "stateMutability": "view",
      "type": "function"
    },
    {
      "inputs": [
        {
          "internalType": "uint64",
          "name": "",
          "type": "uint64"
        }
      ],
      "name": "bestAsk",
      "outputs": [
        {
          "internalType": "uint128",
          "name": "",
          "type": "uint128"
        }
      ],
      "stateMutability": "view",
      "type": "function"
    },
    {
      "inputs": [
        {
          "internalType": "uint64",
          "name": "",
          "type": "uint64"
        }
      ],
      "name": "bestBid",
      "outputs": [
        {
          "internalType": "uint128",
          "name": "",
          "type": "uint128"
        }
      ],
      "stateMutability": "view",
      "type": "function"
    },
    {
      "inputs": [
        {
          "internalType": "uint64[]",
          "name": "orderIds",
          "type": "uint64[]"
        }
      ],
      "name": "cancelOrder",
      "outputs": [],
      "stateMutability": "nonpayable",
      "type": "function"
    },
    {
      "inputs": [
        {
          "internalType": "address",
          "name": "market",
          "type": "address"
        }
      ],
      "name": "deauthorizeMarket",
      "outputs": [],
      "stateMutability": "nonpayable",
      "type": "function"
    },
    {
      "inputs": [
        {
          "components": [
            {
              "internalType": "uint64",
              "name": "orderId",
              "type": "uint64"
            },
            {
              "internalType": "address",
              "name": "maker",
              "type": "address"
            },
            {
              "internalType": "uint128",
              "name": "amount",
              "type": "uint128"
            },
            {
              "internalType": "uint128",
              "name": "price",
              "type": "uint128"
            }
          ],
          "internalType": "struct IOrderBook.Fill[]",
          "name": "fills",
          "type": "tuple[]"
        }
      ],
      "name": "fillOrders",
      "outputs": [],
      "stateMutability": "nonpayable",
      "type": "function"
    },
    {
      "inputs": [
        {
          "internalType": "uint64",
          "name": "marketId",
          "type": "uint64"
        }
      ],
      "name": "getBestAsk",
      "outputs": [
        {
          "internalType": "uint128",
          "name": "",
          "type": "uint128"
        }
      ],
      "stateMutability": "view",
      "type": "function"
    },
    {
      "inputs": [
        {
          "internalType": "uint64",
          "name": "marketId",
          "type": "uint64"
        }
      ],
      "name": "getBestBid",
      "outputs": [
        {
          "internalType": "uint128",
          "name": "",
          "type": "uint128"
        }
      ],
      "stateMutability": "view",
      "type": "function"
    },
    {
      "inputs": [
        {
          "internalType": "uint64",
          "name": "marketId",
          "type": "uint64"
        },
        {
          "internalType": "bool",
          "name": "isYes",
          "type": "bool"
        },
        {
          "internalType": "uint128",
          "name": "price",
          "type": "uint128"
        },
        {
          "internalType": "uint128",
          "name": "maxOrders",
          "type": "uint128"
        }
      ],
      "name": "getDepth",
      "outputs": [
        {
          "internalType": "uint128",
          "name": "totalAmount",
          "type": "uint128"
        }
      ],
      "stateMutability": "view",
      "type": "function"
    },
    {
      "inputs": [
        {
          "internalType": "uint64",
          "name": "marketId",
          "type": "uint64"
        },
        {
          "internalType": "bool",
          "name": "isYes",
          "type": "bool"
        },
        {
          "internalType": "uint128",
          "name": "limitPrice",
          "type": "uint128"
        },
        {
          "internalType": "uint128",
          "name": "amount",
          "type": "uint128"
        }
      ],
      "name": "getFills",
      "outputs": [
        {
          "components": [
            {
              "internalType": "uint64",
              "name": "orderId",
              "type": "uint64"
            },
            {
              "internalType": "address",
              "name": "maker",
              "type": "address"
            },
            {
              "internalType": "uint128",
              "name": "amount",
              "type": "uint128"
            },
            {
              "internalType": "uint128",
              "name": "price",
              "type": "uint128"
            }
          ],
          "internalType": "struct IOrderBook.Fill[]",
          "name": "fills",
          "type": "tuple[]"
        }
      ],
      "stateMutability": "view",
      "type": "function"
    },
    {
      "inputs": [
        {
          "internalType": "uint64",
          "name": "orderId",
          "type": "uint64"
        }
      ],
      "name": "getOrder",
      "outputs": [
        {
          "components": [
            {
              "internalType": "uint64",
              "name": "id",
              "type": "uint64"
            },
            {
              "internalType": "uint64",
              "name": "marketId",
              "type": "uint64"
            },
            {
              "internalType": "address",
              "name": "maker",
              "type": "address"
            },
            {
              "internalType": "bool",
              "name": "isYes",
              "type": "bool"
            },
            {
              "internalType": "uint128",
              "name": "price",
              "type": "uint128"
            },
            {
              "internalType": "uint128",
              "name": "amount",
              "type": "uint128"
            },
            {
              "internalType": "uint128",
              "name": "filled",
              "type": "uint128"
            },
            {
              "internalType": "uint64",
              "name": "timestamp",
              "type": "uint64"
            },
            {
              "internalType": "bool",
              "name": "isActive",
              "type": "bool"
            }
          ],
          "internalType": "struct Types.OrderData",
          "name": "",
          "type": "tuple"
        }
      ],
      "stateMutability": "view",
      "type": "function"
    },
    {
      "inputs": [
        {
          "internalType": "uint64",
          "name": "marketId",
          "type": "uint64"
        },
        {
          "internalType": "bool",
          "name": "isYes",
          "type": "bool"
        },
        {
          "internalType": "uint128",
          "name": "price",
          "type": "uint128"
        }
      ],
      "name": "getPriceOrders",
      "outputs": [
        {
          "internalType": "uint64[]",
          "name": "",
          "type": "uint64[]"
        }
      ],
      "stateMutability": "view",
      "type": "function"
    },
    {
      "inputs": [
        {
          "internalType": "uint64",
          "name": "marketId",
          "type": "uint64"
        },
        {
          "internalType": "bool",
          "name": "isYes",
          "type": "bool"
        }
      ],
      "name": "getSortedPrices",
      "outputs": [
        {
          "internalType": "uint128[]",
          "name": "",
          "type": "uint128[]"
        }
      ],
      "stateMutability": "view",
      "type": "function"
    },
    {
      "inputs": [
        {
          "internalType": "address",
          "name": "user",
          "type": "address"
        },
        {
          "internalType": "uint64",
          "name": "marketId",
          "type": "uint64"
        }
      ],
      "name": "getUserOrders",
      "outputs": [
        {
          "internalType": "uint64[]",
          "name": "",
          "type": "uint64[]"
        }
      ],
      "stateMutability": "view",
      "type": "function"
    },
    {
      "inputs": [],
      "name": "init",
      "outputs": [],
      "stateMutability": "nonpayable",
      "type": "function"
    },
    {
      "inputs": [],
      "name": "nextOrderId",
      "outputs": [
        {
          "internalType": "uint64",
          "name": "",
          "type": "uint64"
        }
      ],
      "stateMutability": "view",
      "type": "function"
    },
    {
      "inputs": [
        {
          "internalType": "uint64",
          "name": "",
          "type": "uint64"
        }
      ],
      "name": "orders",
      "outputs": [
        {
          "internalType": "uint64",
          "name": "id",
          "type": "uint64"
        },
        {
          "internalType": "uint64",
          "name": "marketId",
          "type": "uint64"
        },
        {
          "internalType": "address",
          "name": "maker",
          "type": "address"
        },
        {
          "internalType": "bool",
          "name": "isYes",
          "type": "bool"
        },
        {
          "internalType": "uint128",
          "name": "price",
          "type": "uint128"
        },
        {
          "internalType": "uint128",
          "name": "amount",
          "type": "uint128"
        },
        {
          "internalType": "uint128",
          "name": "filled",
          "type": "uint128"
        },
        {
          "internalType": "uint64",
          "name": "timestamp",
          "type": "uint64"
        },
        {
          "internalType": "bool",
          "name": "isActive",
          "type": "bool"
        }
      ],
      "stateMutability": "view",
      "type": "function"
    },
    {
      "inputs": [
        {
          "internalType": "address",
          "name": "maker",
          "type": "address"
        },
        {
          "internalType": "uint64",
          "name": "marketId",
          "type": "uint64"
        },
        {
          "internalType": "bool",
          "name": "isYes",
          "type": "bool"
        },
        {
          "internalType": "uint128",
          "name": "price",
          "type": "uint128"
        },
        {
          "internalType": "uint128",
          "name": "amount",
          "type": "uint128"
        }
      ],
      "name": "placeOrder",
      "outputs": [
        {
          "internalType": "uint64",
          "name": "orderId",
          "type": "uint64"
        }
      ],
      "stateMutability": "nonpayable",
      "type": "function"
    },
    {
      "inputs": [
        {
          "internalType": "uint64",
          "name": "",
          "type": "uint64"
        },
        {
          "internalType": "bool",
          "name": "",
          "type": "bool"
        }
      ],
      "name": "priceBitmap",
      "outputs": [
        {
          "internalType": "uint256",
          "name": "",
          "type": "uint256"
        }
      ],
      "stateMutability": "view",
      "type": "function"
    },
    {
      "inputs": [
        {
          "internalType": "uint64",
          "name": "",
          "type": "uint64"
        },
        {
          "internalType": "bool",
          "name": "",
          "type": "bool"
        }
      ],
      "name": "priceBitmapHigh",
      "outputs": [
        {
          "internalType": "uint256",
          "name": "",
          "type": "uint256"
        }
      ],
      "stateMutability": "view",
      "type": "function"
    },
    {
      "inputs": [
        {
          "internalType": "uint64",
          "name": "",
          "type": "uint64"
        },
        {
          "internalType": "bool",
          "name": "",
          "type": "bool"
        },
        {
          "internalType": "uint256",
          "name": "",
          "type": "uint256"
        },
        {
          "internalType": "uint256",
          "name": "",
          "type": "uint256"
        }
      ],
      "name": "priceOrders",
      "outputs": [
        {
          "internalType": "uint64",
          "name": "",
          "type": "uint64"
        }
      ],
      "stateMutability": "view",
      "type": "function"
    },
    {
      "inputs": [
        {
          "internalType": "address",
          "name": "",
          "type": "address"
        },
        {
          "internalType": "uint64",
          "name": "",
          "type": "uint64"
        },
        {
          "internalType": "uint256",
          "name": "",
          "type": "uint256"
        }
      ],
      "name": "userOrders",
      "outputs": [
        {
          "internalType": "uint64",
          "name": "",
          "type": "uint64"
        }
      ],
      "stateMutability": "view",
      "type": "function"
    }
  ],
  "bytecode": "0x60806040526001600660006101000a81548167ffffffffffffffff021916908367ffffffffffffffff160217905550348015603957600080fd5b506001600081905550614837806100516000396000f3fe608060405234801561001057600080fd5b506004361061011d5760003560e01c80630177833e146101225780630d2511da1461015257806310fe339514610182578063197235fd146101b25780631b24b651146101e25780632a58b330146102125780632e635cc9146102305780634299b8a21461026057806346b81bde1461029057806368118e43146102c0578063780942ba146102dc578063912b7b621461030c57806393cf61f11461033c578063a042acb614610358578063a3085c8f14610388578063a469dffa146103b8578063c94151e5146103f0578063cdf9d07c14610420578063d14552f114610450578063d54bb22014610480578063e1c7392a146104b0578063f2862e67146104ba578063fa26958c146104d6575b600080fd5b61013c600480360381019061013791906136c5565b6104f2565b604051610149919061371d565b60405180910390f35b61016c600480360381019061016791906137a6565b61053f565b604051610179919061381c565b60405180910390f35b61019c60048036038101906101979190613895565b6105a6565b6040516101a99190613993565b60405180910390f35b6101cc60048036038101906101c791906139b5565b610697565b6040516101d99190613a04565b60405180910390f35b6101fc60048036038101906101f79190613a1f565b6106bc565b604051610209919061381c565b60405180910390f35b61021a610716565b604051610227919061381c565b60405180910390f35b61024a60048036038101906102459190613a9e565b610730565b604051610257919061371d565b60405180910390f35b61027a60048036038101906102759190613b05565b6108cc565b6040516102879190613b41565b60405180910390f35b6102aa60048036038101906102a591906136c5565b6108ec565b6040516102b7919061371d565b60405180910390f35b6102da60048036038101906102d59190613bc1565b61091b565b005b6102f660048036038101906102f191906139b5565b610a0b565b6040516103039190613a04565b60405180910390f35b61032660048036038101906103219190613c0e565b610a30565b6040516103339190613993565b60405180910390f35b61035660048036038101906103519190613cb7565b610b1a565b005b610372600480360381019061036d9190613a9e565b611240565b60405161037f9190613e26565b60405180910390f35b6103a2600480360381019061039d9190613e48565b6116e6565b6040516103af919061381c565b60405180910390f35b6103d260048036038101906103cd91906136c5565b611fef565b6040516103e799989796959493929190613ed2565b60405180910390f35b61040a600480360381019061040591906136c5565b612107565b604051610417919061371d565b60405180910390f35b61043a600480360381019061043591906136c5565b612154565b6040516104479190614025565b60405180910390f35b61046a600480360381019061046591906139b5565b612396565b60405161047791906140f0565b60405180910390f35b61049a600480360381019061049591906136c5565b612531565b6040516104a7919061371d565b60405180910390f35b6104b8612560565b005b6104d460048036038101906104cf9190613b05565b612620565b005b6104f060048036038101906104eb9190613b05565b61267a565b005b6000600760008367ffffffffffffffff1667ffffffffffffffff16815260200190815260200160002060009054906101000a90046fffffffffffffffffffffffffffffffff169050919050565b6003602052836000526040600020602052826000526040600020602052816000526040600020818154811061057357600080fd5b90600052602060002090600491828204019190066008029350935050509054906101000a900467ffffffffffffffff1681565b6060600960008473ffffffffffffffffffffffffffffffffffffffff1673ffffffffffffffffffffffffffffffffffffffff16815260200190815260200160002060008367ffffffffffffffff1667ffffffffffffffff16815260200190815260200160002080548060200260200160405190810160405280929190818152602001828054801561068a57602002820191906000526020600020906000905b82829054906101000a900467ffffffffffffffff1667ffffffffffffffff16815260200190600801906020826007010492830192600103820291508084116106455790505b5050505050905092915050565b6005602052816000526040600020602052806000526040600020600091509150505481565b600960205282600052604060002060205281600052604060002081815481106106e457600080fd5b906000526020600020906004918282040191900660080292509250509054906101000a900467ffffffffffffffff1681565b600660009054906101000a900467ffffffffffffffff1681565b60008061073d84866126d5565b90506000600360008867ffffffffffffffff1667ffffffffffffffff1681526020019081526020016000206000871515151581526020019081526020016000206000838152602001908152602001600020905060008180549050856fffffffffffffffffffffffffffffffff16106107b95781805490506107cd565b846fffffffffffffffffffffffffffffffff165b905060005b818110156108c0576000600260008584815481106107f3576107f2614112565b5b90600052602060002090600491828204019190066008029054906101000a900467ffffffffffffffff1667ffffffffffffffff1667ffffffffffffffff16815260200190815260200160002090508060030160189054906101000a900460ff16156108b2578060030160009054906101000a90046fffffffffffffffffffffffffffffffff168160020160109054906101000a90046fffffffffffffffffffffffffffffffff166108a49190614170565b866108af91906141b4565b95505b5080806001019150506107d2565b50505050949350505050565b60016020528060005260406000206000915054906101000a900460ff1681565b60076020528060005260406000206000915054906101000a90046fffffffffffffffffffffffffffffffff1681565b600160003373ffffffffffffffffffffffffffffffffffffffff1673ffffffffffffffffffffffffffffffffffffffff16815260200190815260200160002060009054906101000a900460ff166109a7576040517f08c379a000000000000000000000000000000000000000000000000000000000815260040161099e90614255565b60405180910390fd5b6109af612822565b600082829050905060005b818110156109fd576109f28484838181106109d8576109d7614112565b5b90506020020160208101906109ed91906136c5565b612868565b8060010190506109ba565b5050610a07612ac3565b5050565b6004602052816000526040600020602052806000526040600020600091509150505481565b60606000610a3e83856126d5565b9050600360008667ffffffffffffffff1667ffffffffffffffff1681526020019081526020016000206000851515151581526020019081526020016000206000828152602001908152602001600020805480602002602001604051908101604052809291908181526020018280548015610b0b57602002820191906000526020600020906000905b82829054906101000a900467ffffffffffffffff1667ffffffffffffffff1681526020019060080190602082600701049283019260010382029150808411610ac65790505b50505050509150509392505050565b600160003373ffffffffffffffffffffffffffffffffffffffff1673ffffffffffffffffffffffffffffffffffffffff16815260200190815260200160002060009054906101000a900460ff16610ba6576040517f08c379a0000000000000000000000000000000000000000000000000000000008152600401610b9d90614255565b60405180910390fd5b610bae612822565b60008282905011610bf4576040517f08c379a0000000000000000000000000000000000000000000000000000000008152600401610beb906142c1565b60405180910390fd5b60008282905067ffffffffffffffff811115610c1357610c126142e1565b5b604051908082528060200260200182016040528015610c415781602001602082028036833780820191505090505b50905060008383905067ffffffffffffffff811115610c6357610c626142e1565b5b604051908082528060200260200182016040528015610c915781602001602082028036833780820191505090505b509050600080600090505b8585905081101561112e5736868683818110610cbb57610cba614112565b5b9050608002019050600060026000836000016020810190610cdc91906136c5565b67ffffffffffffffff1667ffffffffffffffff16815260200190815260200160002090508060030160189054906101000a900460ff16610d51576040517f08c379a0000000000000000000000000000000000000000000000000000000008152600401610d489061435c565b60405180910390fd5b6000826040016020810190610d66919061437c565b6fffffffffffffffffffffffffffffffff1611610db8576040517f08c379a0000000000000000000000000000000000000000000000000000000008152600401610daf906143f5565b60405180910390fd5b816040016020810190610dcb919061437c565b8160030160008282829054906101000a90046fffffffffffffffffffffffffffffffff16610df991906141b4565b92506101000a8154816fffffffffffffffffffffffffffffffff02191690836fffffffffffffffffffffffffffffffff1602179055508060020160109054906101000a90046fffffffffffffffffffffffffffffffff166fffffffffffffffffffffffffffffffff168160030160009054906101000a90046fffffffffffffffffffffffffffffffff166fffffffffffffffffffffffffffffffff1610610eb85760008160030160186101000a81548160ff0219169083151502179055505b816000016020810190610ecb91906136c5565b67ffffffffffffffff167f2c812220b2b782866567d3be326eb23cad89696572941d1855b4c150e46f5282836040016020810190610f09919061437c565b846060016020810190610f1c919061437c565b604051610f2a929190614415565b60405180910390a26000805b8581101561103557836020016020810190610f519190613b05565b73ffffffffffffffffffffffffffffffffffffffff16888281518110610f7a57610f79614112565b5b602002602001015173ffffffffffffffffffffffffffffffffffffffff160361102857836060016020810190610fb0919061437c565b6fffffffffffffffffffffffffffffffff16846040016020810190610fd5919061437c565b6fffffffffffffffffffffffffffffffff16610ff1919061443e565b87828151811061100457611003614112565b5b602002602001018181516110189190614480565b9150818152505060019150611035565b8080600101915050610f36565b50801561111e5782602001602081019061104f9190613b05565b87868151811061106257611061614112565b5b602002602001019073ffffffffffffffffffffffffffffffffffffffff16908173ffffffffffffffffffffffffffffffffffffffff16815250508260600160208101906110af919061437c565b6fffffffffffffffffffffffffffffffff168360400160208101906110d4919061437c565b6fffffffffffffffffffffffffffffffff166110f0919061443e565b86868151811061110357611102614112565b5b602002602001018181525050848061111a906144b4565b9550505b5050508080600101915050610c9c565b506000858590501115611231576000600260008787600081811061115557611154614112565b5b905060800201600001602081019061116d91906136c5565b67ffffffffffffffff1667ffffffffffffffff16815260200190815260200160002060000160089054906101000a900467ffffffffffffffff169050600060026000888860008181106111c3576111c2614112565b5b90506080020160000160208101906111db91906136c5565b67ffffffffffffffff1667ffffffffffffffff16815260200190815260200160002060010160149054906101000a900460ff16905080156112245761121f82612acd565b61122e565b61122d82612bd2565b5b50505b50505061123c612ac3565b5050565b60606000826fffffffffffffffffffffffffffffffff16036112b857600067ffffffffffffffff811115611277576112766142e1565b5b6040519080825280602002602001820160405280156112b057816020015b61129d613555565b8152602001906001900390816112955790505b5090506116de565b6112c3858515612cd7565b61132357600067ffffffffffffffff8111156112e2576112e16142e1565b5b60405190808252806020026020018201604052801561131b57816020015b611308613555565b8152602001906001900390816113005790505b5090506116de565b6000606467ffffffffffffffff8111156113405761133f6142e1565b5b60405190808252806020026020018201604052801561137957816020015b611366613555565b81526020019060019003908161135e5790505b50905060008084905086156114775760005b60016101f461139a91906144fc565b811080156113ba57506000826fffffffffffffffffffffffffffffffff16115b15611471576113cb89600083612d69565b1561145e5760006113dd826000612e21565b9050876fffffffffffffffffffffffffffffffff16816fffffffffffffffffffffffffffffffff1611156114115750611471565b60006114228b600085878a8a612e5c565b905084810361143257505061145e565b80945061143f8686613127565b8861144a9190614170565b93506064851061145b575050611471565b50505b8080611469906144b4565b91505061138b565b50611602565b60006114848760016126d5565b9050600060016101f461149791906144fc565b82106114b15760026101f46114ac91906144fc565b6114b3565b815b90505b60016101f46114c591906144fc565b811080156114e557506000836fffffffffffffffffffffffffffffffff16115b156115ff576114f68a600183612d69565b6115165760008103156115ff57808061150e90614530565b9150506115fa565b6000611523826001612e21565b9050886fffffffffffffffffffffffffffffffff16816fffffffffffffffffffffffffffffffff161115611573576000820361155f57506115ff565b818061156a90614530565b925050506115fa565b60006115848c600185888b8b612e5c565b90508581036115b1576000830361159c5750506115ff565b82806115a790614530565b93505050506115fa565b8095506115be8787613127565b896115c99190614170565b9450606486106115da5750506115ff565b600083036115e95750506115ff565b82806115f490614530565b93505050505b6114b6565b50505b60008061160f8585613127565b6fffffffffffffffffffffffffffffffff161461162c578261162f565b60005b90508067ffffffffffffffff81111561164b5761164a6142e1565b5b60405190808252806020026020018201604052801561168457816020015b611671613555565b8152602001906001900390816116695790505b50945060005b818110156116d8578481815181106116a5576116a4614112565b5b60200260200101518682815181106116c0576116bf614112565b5b6020026020010181905250808060010191505061168a565b50505050505b949350505050565b6000600160003373ffffffffffffffffffffffffffffffffffffffff1673ffffffffffffffffffffffffffffffffffffffff16815260200190815260200160002060009054906101000a900460ff16611774576040517f08c379a000000000000000000000000000000000000000000000000000000000815260040161176b90614255565b60405180910390fd5b61177c612822565b6000826fffffffffffffffffffffffffffffffff16116117d1576040517f08c379a00000000000000000000000000000000000000000000000000000000081526004016117c8906145a5565b60405180910390fd5b6000836fffffffffffffffffffffffffffffffff1611801561181e5750670de0b6b3a76400006fffffffffffffffffffffffffffffffff16836fffffffffffffffffffffffffffffffff16105b61185d576040517f08c379a000000000000000000000000000000000000000000000000000000000815260040161185490614611565b60405180910390fd5b600061186984866126d5565b90506101f481106118af576040517f08c379a00000000000000000000000000000000000000000000000000000000081526004016118a69061467d565b60405180910390fd5b6006600081819054906101000a900467ffffffffffffffff16809291906118d59061469d565b91906101000a81548167ffffffffffffffff021916908367ffffffffffffffff16021790555091506040518061012001604052808367ffffffffffffffff1681526020018767ffffffffffffffff1681526020018873ffffffffffffffffffffffffffffffffffffffff1681526020018615158152602001856fffffffffffffffffffffffffffffffff168152602001846fffffffffffffffffffffffffffffffff16815260200160006fffffffffffffffffffffffffffffffff1681526020014267ffffffffffffffff16815260200160011515815250600260008467ffffffffffffffff1667ffffffffffffffff16815260200190815260200160002060008201518160000160006101000a81548167ffffffffffffffff021916908367ffffffffffffffff16021790555060208201518160000160086101000a81548167ffffffffffffffff021916908367ffffffffffffffff16021790555060408201518160010160006101000a81548173ffffffffffffffffffffffffffffffffffffffff021916908373ffffffffffffffffffffffffffffffffffffffff16021790555060608201518160010160146101000a81548160ff02191690831515021790555060808201518160020160006101000a8154816fffffffffffffffffffffffffffffffff02191690836fffffffffffffffffffffffffffffffff16021790555060a08201518160020160106101000a8154816fffffffffffffffffffffffffffffffff02191690836fffffffffffffffffffffffffffffffff16021790555060c08201518160030160006101000a8154816fffffffffffffffffffffffffffffffff02191690836fffffffffffffffffffffffffffffffff16021790555060e08201518160030160106101000a81548167ffffffffffffffff021916908367ffffffffffffffff1602179055506101008201518160030160186101000a81548160ff021916908315150217905550905050600360008767ffffffffffffffff1667ffffffffffffffff16815260200190815260200160002060008615151515815260200190815260200160002060008281526020019081526020016000208290806001815401808255809150506001900390600052602060002090600491828204019190066008029091909190916101000a81548167ffffffffffffffff021916908367ffffffffffffffff160217905550611c55868683613179565b600960008873ffffffffffffffffffffffffffffffffffffffff1673ffffffffffffffffffffffffffffffffffffffff16815260200190815260200160002060008767ffffffffffffffff1667ffffffffffffffff1681526020019081526020016000208290806001815401808255809150506001900390600052602060002090600491828204019190066008029091909190916101000a81548167ffffffffffffffff021916908367ffffffffffffffff1602179055508415611e46576000600760008867ffffffffffffffff1667ffffffffffffffff16815260200190815260200160002060009054906101000a90046fffffffffffffffffffffffffffffffff166fffffffffffffffffffffffffffffffff161480611ddd5750600760008767ffffffffffffffff1667ffffffffffffffff16815260200190815260200160002060009054906101000a90046fffffffffffffffffffffffffffffffff166fffffffffffffffffffffffffffffffff16846fffffffffffffffffffffffffffffffff16115b15611e415783600760008867ffffffffffffffff1667ffffffffffffffff16815260200190815260200160002060006101000a8154816fffffffffffffffffffffffffffffffff02191690836fffffffffffffffffffffffffffffffff1602179055505b611f75565b6000600860008867ffffffffffffffff1667ffffffffffffffff16815260200190815260200160002060009054906101000a90046fffffffffffffffffffffffffffffffff166fffffffffffffffffffffffffffffffff161480611f105750600860008767ffffffffffffffff1667ffffffffffffffff16815260200190815260200160002060009054906101000a90046fffffffffffffffffffffffffffffffff166fffffffffffffffffffffffffffffffff16846fffffffffffffffffffffffffffffffff16105b15611f745783600860008867ffffffffffffffff1667ffffffffffffffff16815260200190815260200160002060006101000a8154816fffffffffffffffffffffffffffffffff02191690836fffffffffffffffffffffffffffffffff1602179055505b5b8673ffffffffffffffffffffffffffffffffffffffff168667ffffffffffffffff168367ffffffffffffffff167f3690dc77aead4541a6b93c008f45158b867b95e9e9fd51825edbbbbfa5d91687888888604051611fd5939291906146cd565b60405180910390a450611fe6612ac3565b95945050505050565b60026020528060005260406000206000915090508060000160009054906101000a900467ffffffffffffffff16908060000160089054906101000a900467ffffffffffffffff16908060010160009054906101000a900473ffffffffffffffffffffffffffffffffffffffff16908060010160149054906101000a900460ff16908060020160009054906101000a90046fffffffffffffffffffffffffffffffff16908060020160109054906101000a90046fffffffffffffffffffffffffffffffff16908060030160009054906101000a90046fffffffffffffffffffffffffffffffff16908060030160109054906101000a900467ffffffffffffffff16908060030160189054906101000a900460ff16905089565b6000600860008367ffffffffffffffff1667ffffffffffffffff16815260200190815260200160002060009054906101000a90046fffffffffffffffffffffffffffffffff169050919050565b61215c6135c1565b600260008367ffffffffffffffff1667ffffffffffffffff168152602001908152602001600020604051806101200160405290816000820160009054906101000a900467ffffffffffffffff1667ffffffffffffffff1667ffffffffffffffff1681526020016000820160089054906101000a900467ffffffffffffffff1667ffffffffffffffff1667ffffffffffffffff1681526020016001820160009054906101000a900473ffffffffffffffffffffffffffffffffffffffff1673ffffffffffffffffffffffffffffffffffffffff1673ffffffffffffffffffffffffffffffffffffffff1681526020016001820160149054906101000a900460ff161515151581526020016002820160009054906101000a90046fffffffffffffffffffffffffffffffff166fffffffffffffffffffffffffffffffff166fffffffffffffffffffffffffffffffff1681526020016002820160109054906101000a90046fffffffffffffffffffffffffffffffff166fffffffffffffffffffffffffffffffff166fffffffffffffffffffffffffffffffff1681526020016003820160009054906101000a90046fffffffffffffffffffffffffffffffff166fffffffffffffffffffffffffffffffff166fffffffffffffffffffffffffffffffff1681526020016003820160109054906101000a900467ffffffffffffffff1667ffffffffffffffff1667ffffffffffffffff1681526020016003820160189054906101000a900460ff1615151515815250509050919050565b60606123a28383612cd7565b6123f757600067ffffffffffffffff8111156123c1576123c06142e1565b5b6040519080825280602002602001820160405280156123ef5781602001602082028036833780820191505090505b50905061252b565b60008060009050600060016101f461240f91906144fc565b905060008290505b8181101561244b5761242a878783612d69565b1561243e57838061243a906144b4565b9450505b8080600101915050612417565b5060008367ffffffffffffffff811115612468576124676142e1565b5b6040519080825280602002602001820160405280156124965781602001602082028036833780820191505090505b5090506000808490505b83811015612521576124b3898983612d69565b15612514576124c28189612e21565b8383806124ce906144b4565b9450815181106124e1576124e0614112565b5b60200260200101906fffffffffffffffffffffffffffffffff1690816fffffffffffffffffffffffffffffffff16815250505b80806001019150506124a0565b5081955050505050505b92915050565b60086020528060005260406000206000915054906101000a90046fffffffffffffffffffffffffffffffff1681565b600660089054906101000a900460ff16156125b0576040517f08c379a00000000000000000000000000000000000000000000000000000000081526004016125a790614750565b60405180910390fd5b6000600660009054906101000a900467ffffffffffffffff1667ffffffffffffffff1603612603576001600660006101000a81548167ffffffffffffffff021916908367ffffffffffffffff1602179055505b6001600660086101000a81548160ff021916908315150217905550565b60018060008373ffffffffffffffffffffffffffffffffffffffff1673ffffffffffffffffffffffffffffffffffffffff16815260200190815260200160002060006101000a81548160ff02191690831515021790555050565b6000600160008373ffffffffffffffffffffffffffffffffffffffff1673ffffffffffffffffffffffffffffffffffffffff16815260200190815260200160002060006101000a81548160ff02191690831515021790555050565b600080836fffffffffffffffffffffffffffffffff161180156127235750670de0b6b3a76400006fffffffffffffffffffffffffffffffff16836fffffffffffffffffffffffffffffffff16105b80156127535750600066071afd498d00008461273f919061479f565b6fffffffffffffffffffffffffffffffff16145b612792576040517f08c379a000000000000000000000000000000000000000000000000000000000815260040161278990614611565b60405180910390fd5b600066071afd498d0000846127a791906147d0565b6fffffffffffffffffffffffffffffffff169050600181101580156127cd57506101f481105b61280c576040517f08c379a000000000000000000000000000000000000000000000000000000000815260040161280390614611565b60405180910390fd5b60018161281991906144fc565b91505092915050565b60026000540361285e576040517f3ee5aeb500000000000000000000000000000000000000000000000000000000815260040160405180910390fd5b6002600081905550565b6000600260008367ffffffffffffffff1667ffffffffffffffff16815260200190815260200160002090508060030160189054906101000a900460ff166128af5750612ac0565b60008160000160089054906101000a900467ffffffffffffffff16905060008260010160149054906101000a900460ff169050600061290e8460020160009054906101000a90046fffffffffffffffffffffffffffffffff16836126d5565b905060008460030160186101000a81548160ff0219169083151502179055508467ffffffffffffffff167f413c1ea791e99e4774c2bdb5634eb463180b94450f02a3712b75fd6f638f38ab60405160405180910390a261296f838383613237565b61297f5761297e838383613337565b5b8115612a22578360020160009054906101000a90046fffffffffffffffffffffffffffffffff166fffffffffffffffffffffffffffffffff16600760008567ffffffffffffffff1667ffffffffffffffff16815260200190815260200160002060009054906101000a90046fffffffffffffffffffffffffffffffff166fffffffffffffffffffffffffffffffff1603612a1d57612a1c83612acd565b5b612abb565b8360020160009054906101000a90046fffffffffffffffffffffffffffffffff166fffffffffffffffffffffffffffffffff16600860008567ffffffffffffffff1667ffffffffffffffff16815260200190815260200160002060009054906101000a90046fffffffffffffffffffffffffffffffff166fffffffffffffffffffffffffffffffff1603612aba57612ab983612bd2565b5b5b505050505b50565b6001600081905550565b6000612ad8826133f7565b90507fffffffffffffffffffffffffffffffffffffffffffffffffffffffffffffffff8103612b65576000600760008467ffffffffffffffff1667ffffffffffffffff16815260200190815260200160002060006101000a8154816fffffffffffffffffffffffffffffffff02191690836fffffffffffffffffffffffffffffffff160217905550612bce565b612b70816001612e21565b600760008467ffffffffffffffff1667ffffffffffffffff16815260200190815260200160002060006101000a8154816fffffffffffffffffffffffffffffffff02191690836fffffffffffffffffffffffffffffffff1602179055505b5050565b6000612bdd826134a9565b90507fffffffffffffffffffffffffffffffffffffffffffffffffffffffffffffffff8103612c6a576000600860008467ffffffffffffffff1667ffffffffffffffff16815260200190815260200160002060006101000a8154816fffffffffffffffffffffffffffffffff02191690836fffffffffffffffffffffffffffffffff160217905550612cd3565b612c75816000612e21565b600860008467ffffffffffffffff1667ffffffffffffffff16815260200190815260200160002060006101000a8154816fffffffffffffffffffffffffffffffff02191690836fffffffffffffffffffffffffffffffff1602179055505b5050565b600080600460008567ffffffffffffffff1667ffffffffffffffff16815260200190815260200160002060008415151515815260200190815260200160002054141580612d6157506000600560008567ffffffffffffffff1667ffffffffffffffff1681526020019081526020016000206000841515151581526020019081526020016000205414155b905092915050565b6000610100821015612dc3576000826001901b600460008767ffffffffffffffff1667ffffffffffffffff168152602001908152602001600020600086151515158152602001908152602001600020541614159050612e1a565b600061010083612dd391906144fc565b6001901b600560008767ffffffffffffffff1667ffffffffffffffff1681526020019081526020016000206000861515151581526020019081526020016000205416141590505b9392505050565b600066071afd498d00006fffffffffffffffffffffffffffffffff16600184612e4a9190614480565b612e54919061443e565b905092915050565b60008190506000600360008967ffffffffffffffff1667ffffffffffffffff1681526020019081526020016000206000881515151581526020019081526020016000206000878152602001908152602001600020905060005b818054905081108015612eda57506000866fffffffffffffffffffffffffffffffff16115b1561311b576000828281548110612ef457612ef3614112565b5b90600052602060002090600491828204019190066008029054906101000a900467ffffffffffffffff1690506000600260008367ffffffffffffffff1667ffffffffffffffff16815260200190815260200160002090508060030160189054906101000a900460ff16612f68575050613108565b60008160030160009054906101000a90046fffffffffffffffffffffffffffffffff168260020160109054906101000a90046fffffffffffffffffffffffffffffffff16612fb69190614170565b90506000816fffffffffffffffffffffffffffffffff1603612fda57505050613108565b6000816fffffffffffffffffffffffffffffffff168a6fffffffffffffffffffffffffffffffff161061300d578161300f565b895b905060405180608001604052808567ffffffffffffffff1681526020018460010160009054906101000a900473ffffffffffffffffffffffffffffffffffffffff1673ffffffffffffffffffffffffffffffffffffffff168152602001826fffffffffffffffffffffffffffffffff1681526020018460020160009054906101000a90046fffffffffffffffffffffffffffffffff166fffffffffffffffffffffffffffffffff168152508988806130c6906144b4565b9950815181106130d9576130d8614112565b5b6020026020010181905250808a6130f09190614170565b995060648710613103575050505061311b565b505050505b8080613113906144b4565b915050612eb5565b50509695505050505050565b60008060005b8381101561316e5784818151811061314857613147614112565b5b6020026020010151604001518261315f91906141b4565b9150808060010191505061312d565b508091505092915050565b6101008110156131d657806001901b600460008567ffffffffffffffff1667ffffffffffffffff16815260200190815260200160002060008415151515815260200190815260200160002060008282541792505081905550613232565b610100816131e491906144fc565b6001901b600560008567ffffffffffffffff1667ffffffffffffffff168152602001908152602001600020600084151515158152602001908152602001600020600082825417925050819055505b505050565b600080600360008667ffffffffffffffff1667ffffffffffffffff1681526020019081526020016000206000851515151581526020019081526020016000206000848152602001908152602001600020905060005b818054905081101561332957600260008383815481106132af576132ae614112565b5b90600052602060002090600491828204019190066008029054906101000a900467ffffffffffffffff1667ffffffffffffffff1667ffffffffffffffff16815260200190815260200160002060030160189054906101000a900460ff161561331c57600192505050613330565b808060010191505061328c565b5060009150505b9392505050565b61010081101561339557806001901b19600460008567ffffffffffffffff1667ffffffffffffffff168152602001908152602001600020600084151515158152602001908152602001600020600082825416925050819055506133f2565b610100816133a391906144fc565b6001901b19600560008567ffffffffffffffff1667ffffffffffffffff168152602001908152602001600020600084151515158152602001908152602001600020600082825416925050819055505b505050565b6000613404826001612cd7565b613430577fffffffffffffffffffffffffffffffffffffffffffffffffffffffffffffffff90506134a4565b60026101f461343f91906144fc565b90505b61344e82600183612d69565b156134645761345f82600183613237565b6134a4575b600081031561348057808061347890614530565b915050613442565b7fffffffffffffffffffffffffffffffffffffffffffffffffffffffffffffffff90505b919050565b60006134b6826000612cd7565b6134e2577fffffffffffffffffffffffffffffffffffffffffffffffffffffffffffffffff9050613550565b600090505b60016101f46134f691906144fc565b81101561352c5761350982600083612d69565b1561351f5761351a82600083613237565b613550575b80806001019150506134e7565b7fffffffffffffffffffffffffffffffffffffffffffffffffffffffffffffffff90505b919050565b6040518060800160405280600067ffffffffffffffff168152602001600073ffffffffffffffffffffffffffffffffffffffff16815260200160006fffffffffffffffffffffffffffffffff16815260200160006fffffffffffffffffffffffffffffffff1681525090565b604051806101200160405280600067ffffffffffffffff168152602001600067ffffffffffffffff168152602001600073ffffffffffffffffffffffffffffffffffffffff16815260200160001515815260200160006fffffffffffffffffffffffffffffffff16815260200160006fffffffffffffffffffffffffffffffff16815260200160006fffffffffffffffffffffffffffffffff168152602001600067ffffffffffffffff1681526020016000151581525090565b600080fd5b600080fd5b600067ffffffffffffffff82169050919050565b6136a281613685565b81146136ad57600080fd5b50565b6000813590506136bf81613699565b92915050565b6000602082840312156136db576136da61367b565b5b60006136e9848285016136b0565b91505092915050565b60006fffffffffffffffffffffffffffffffff82169050919050565b613717816136f2565b82525050565b6000602082019050613732600083018461370e565b92915050565b60008115159050919050565b61374d81613738565b811461375857600080fd5b50565b60008135905061376a81613744565b92915050565b6000819050919050565b61378381613770565b811461378e57600080fd5b50565b6000813590506137a08161377a565b92915050565b600080600080608085870312156137c0576137bf61367b565b5b60006137ce878288016136b0565b94505060206137df8782880161375b565b93505060406137f087828801613791565b925050606061380187828801613791565b91505092959194509250565b61381681613685565b82525050565b6000602082019050613831600083018461380d565b92915050565b600073ffffffffffffffffffffffffffffffffffffffff82169050919050565b600061386282613837565b9050919050565b61387281613857565b811461387d57600080fd5b50565b60008135905061388f81613869565b92915050565b600080604083850312156138ac576138ab61367b565b5b60006138ba85828601613880565b92505060206138cb858286016136b0565b9150509250929050565b600081519050919050565b600082825260208201905092915050565b6000819050602082019050919050565b61390a81613685565b82525050565b600061391c8383613901565b60208301905092915050565b6000602082019050919050565b6000613940826138d5565b61394a81856138e0565b9350613955836138f1565b8060005b8381101561398657815161396d8882613910565b975061397883613928565b925050600181019050613959565b5085935050505092915050565b600060208201905081810360008301526139ad8184613935565b905092915050565b600080604083850312156139cc576139cb61367b565b5b60006139da858286016136b0565b92505060206139eb8582860161375b565b9150509250929050565b6139fe81613770565b82525050565b6000602082019050613a1960008301846139f5565b92915050565b600080600060608486031215613a3857613a3761367b565b5b6000613a4686828701613880565b9350506020613a57868287016136b0565b9250506040613a6886828701613791565b9150509250925092565b613a7b816136f2565b8114613a8657600080fd5b50565b600081359050613a9881613a72565b92915050565b60008060008060808587031215613ab857613ab761367b565b5b6000613ac6878288016136b0565b9450506020613ad78782880161375b565b9350506040613ae887828801613a89565b9250506060613af987828801613a89565b91505092959194509250565b600060208284031215613b1b57613b1a61367b565b5b6000613b2984828501613880565b91505092915050565b613b3b81613738565b82525050565b6000602082019050613b566000830184613b32565b92915050565b600080fd5b600080fd5b600080fd5b60008083601f840112613b8157613b80613b5c565b5b8235905067ffffffffffffffff811115613b9e57613b9d613b61565b5b602083019150836020820283011115613bba57613bb9613b66565b5b9250929050565b60008060208385031215613bd857613bd761367b565b5b600083013567ffffffffffffffff811115613bf657613bf5613680565b5b613c0285828601613b6b565b92509250509250929050565b600080600060608486031215613c2757613c2661367b565b5b6000613c35868287016136b0565b9350506020613c468682870161375b565b9250506040613c5786828701613a89565b9150509250925092565b60008083601f840112613c7757613c76613b5c565b5b8235905067ffffffffffffffff811115613c9457613c93613b61565b5b602083019150836080820283011115613cb057613caf613b66565b5b9250929050565b60008060208385031215613cce57613ccd61367b565b5b600083013567ffffffffffffffff811115613cec57613ceb613680565b5b613cf885828601613c61565b92509250509250929050565b600081519050919050565b600082825260208201905092915050565b6000819050602082019050919050565b613d3981613857565b82525050565b613d48816136f2565b82525050565b608082016000820151613d646000850182613901565b506020820151613d776020850182613d30565b506040820151613d8a6040850182613d3f565b506060820151613d9d6060850182613d3f565b50505050565b6000613daf8383613d4e565b60808301905092915050565b6000602082019050919050565b6000613dd382613d04565b613ddd8185613d0f565b9350613de883613d20565b8060005b83811015613e19578151613e008882613da3565b9750613e0b83613dbb565b925050600181019050613dec565b5085935050505092915050565b60006020820190508181036000830152613e408184613dc8565b905092915050565b600080600080600060a08688031215613e6457613e6361367b565b5b6000613e7288828901613880565b9550506020613e83888289016136b0565b9450506040613e948882890161375b565b9350506060613ea588828901613a89565b9250506080613eb688828901613a89565b9150509295509295909350565b613ecc81613857565b82525050565b600061012082019050613ee8600083018c61380d565b613ef5602083018b61380d565b613f02604083018a613ec3565b613f0f6060830189613b32565b613f1c608083018861370e565b613f2960a083018761370e565b613f3660c083018661370e565b613f4360e083018561380d565b613f51610100830184613b32565b9a9950505050505050505050565b613f6881613738565b82525050565b61012082016000820151613f856000850182613901565b506020820151613f986020850182613901565b506040820151613fab6040850182613d30565b506060820151613fbe6060850182613f5f565b506080820151613fd16080850182613d3f565b5060a0820151613fe460a0850182613d3f565b5060c0820151613ff760c0850182613d3f565b5060e082015161400a60e0850182613901565b5061010082015161401f610100850182613f5f565b50505050565b60006101208201905061403b6000830184613f6e565b92915050565b600081519050919050565b600082825260208201905092915050565b6000819050602082019050919050565b60006140798383613d3f565b60208301905092915050565b6000602082019050919050565b600061409d82614041565b6140a7818561404c565b93506140b28361405d565b8060005b838110156140e35781516140ca888261406d565b97506140d583614085565b9250506001810190506140b6565b5085935050505092915050565b6000602082019050818103600083015261410a8184614092565b905092915050565b7f4e487b7100000000000000000000000000000000000000000000000000000000600052603260045260246000fd5b7f4e487b7100000000000000000000000000000000000000000000000000000000600052601160045260246000fd5b600061417b826136f2565b9150614186836136f2565b925082820390506fffffffffffffffffffffffffffffffff8111156141ae576141ad614141565b5b92915050565b60006141bf826136f2565b91506141ca836136f2565b925082820190506fffffffffffffffffffffffffffffffff8111156141f2576141f1614141565b5b92915050565b600082825260208201905092915050565b7f4f423a206e6f7420617574686f72697a6564206d61726b657400000000000000600082015250565b600061423f6019836141f8565b915061424a82614209565b602082019050919050565b6000602082019050818103600083015261426e81614232565b9050919050565b7f4f423a20656d7074792066696c6c730000000000000000000000000000000000600082015250565b60006142ab600f836141f8565b91506142b682614275565b602082019050919050565b600060208201905081810360008301526142da8161429e565b9050919050565b7f4e487b7100000000000000000000000000000000000000000000000000000000600052604160045260246000fd5b7f4f423a206f7264657220696e6163746976650000000000000000000000000000600082015250565b60006143466012836141f8565b915061435182614310565b602082019050919050565b6000602082019050818103600083015261437581614339565b9050919050565b6000602082840312156143925761439161367b565b5b60006143a084828501613a89565b91505092915050565b7f4f423a207a65726f2066696c6c20616d6f756e74000000000000000000000000600082015250565b60006143df6014836141f8565b91506143ea826143a9565b602082019050919050565b6000602082019050818103600083015261440e816143d2565b9050919050565b600060408201905061442a600083018561370e565b614437602083018461370e565b9392505050565b600061444982613770565b915061445483613770565b925082820261446281613770565b9150828204841483151761447957614478614141565b5b5092915050565b600061448b82613770565b915061449683613770565b92508282019050808211156144ae576144ad614141565b5b92915050565b60006144bf82613770565b91507fffffffffffffffffffffffffffffffffffffffffffffffffffffffffffffffff82036144f1576144f0614141565b5b600182019050919050565b600061450782613770565b915061451283613770565b925082820390508181111561452a57614529614141565b5b92915050565b600061453b82613770565b91506000820361454e5761454d614141565b5b600182039050919050565b7f4f423a207a65726f20616d6f756e740000000000000000000000000000000000600082015250565b600061458f600f836141f8565b915061459a82614559565b602082019050919050565b600060208201905081810360008301526145be81614582565b9050919050565b7f4f423a20696e76616c6964207072696365000000000000000000000000000000600082015250565b60006145fb6011836141f8565b9150614606826145c5565b602082019050919050565b6000602082019050818103600083015261462a816145ee565b9050919050565b7f4f423a20736c6f74206f7574206f662072616e67650000000000000000000000600082015250565b60006146676015836141f8565b915061467282614631565b602082019050919050565b600060208201905081810360008301526146968161465a565b9050919050565b60006146a882613685565b915067ffffffffffffffff82036146c2576146c1614141565b5b600182019050919050565b60006060820190506146e26000830186613b32565b6146ef602083018561370e565b6146fc604083018461370e565b949350505050565b7f4f423a20616c726561647920696e697469616c697a6564000000000000000000600082015250565b600061473a6017836141f8565b915061474582614704565b602082019050919050565b600060208201905081810360008301526147698161472d565b9050919050565b7f4e487b7100000000000000000000000000000000000000000000000000000000600052601260045260246000fd5b60006147aa826136f2565b91506147b5836136f2565b9250826147c5576147c4614770565b5b828206905092915050565b60006147db826136f2565b91506147e6836136f2565b9250826147f6576147f5614770565b5b82820490509291505056fea2646970667358221220ac8ca0e3f0d1783e2db06448098570acc961805e579291d2923aca049b5b624064736f6c634300081a0033",
  "linkReferences": {},
  "deployedLinkReferences": {}
}