{
  "_format": "hh-sol-artifact-1",
  "contractName": "PredictionMarketFactory",
  "sourceName": "contracts/core/PredictionMarketFactory.sol",
  "abi": [
    {
      "inputs": [
        {
          "internalType": "address",
          "name": "_owner",
          "type": "address"
        }
      ],
      "stateMutability": "nonpayable",
      "type": "constructor"
    },
    {
      "inputs": [],
      "name": "FailedDeployment",
      "type": "error"
    },
    {
      "inputs": [
        {
          "internalType": "uint256",
          "name": "balance",
          "type": "uint256"
        },
        {
          "internalType": "uint256",
          "name": "needed",
          "type": "uint256"
        }
      ],
      "name": "InsufficientBalance",
      "type": "error"
    },
    {
      "inputs": [
        {
          "internalType": "address",
          "name": "owner",
          "type": "address"
        }
      ],
      "name": "OwnableInvalidOwner",
      "type": "error"
    },
    {
      "inputs": [
        {
          "internalType": "address",
          "name": "account",
          "type": "address"
        }
      ],
      "name": "OwnableUnauthorizedAccount",
      "type": "error"
    },
    {
      "inputs": [],
      "name": "ZeroAddress",
      "type": "error"
    },
    {
      "anonymous": false,
      "inputs": [
        {
          "indexed": true,
          "internalType": "address",
          "name": "newRecipient",
          "type": "address"
        }
      ],
      "name": "FeeRecipientUpdated",
      "type": "event"
    },
    {
      "anonymous": false,
      "inputs": [
        {
          "indexed": false,
          "internalType": "uint32",
          "name": "newFee",
          "type": "uint32"
        }
      ],
      "name": "LuckyFeeUpdated",
      "type": "event"
    },
    {
      "anonymous": false,
      "inputs": [
        {
          "indexed": true,
          "internalType": "uint64",
          "name": "marketId",
          "type": "uint64"
        },
        {
          "indexed": true,
          "internalType": "address",
          "name": "market",
          "type": "address"
        },
        {
          "indexed": false,
          "internalType": "address",
          "name": "collateral",
          "type": "address"
        },
        {
          "indexed": false,
          "internalType": "bytes32",
          "name": "conditionId",
          "type": "bytes32"
        },
        {
          "indexed": false,
          "internalType": "string",
          "name": "question",
          "type": "string"
        },
        {
          "indexed": false,
          "internalType": "string",
          "name": "dataSource",
          "type": "string"
        }
      ],
      "name": "MarketCreated",
      "type": "event"
    },
    {
      "anonymous": false,
      "inputs": [
        {
          "indexed": true,
          "internalType": "address",
          "name": "previousOwner",
          "type": "address"
        },
        {
          "indexed": true,
          "internalType": "address",
          "name": "newOwner",
          "type": "address"
        }
      ],
      "name": "OwnershipTransferred",
      "type": "event"
    },
    {
      "anonymous": false,
      "inputs": [
        {
          "indexed": false,
          "internalType": "uint32",
          "name": "newFee",
          "type": "uint32"
        }
      ],
      "name": "PlatformFeeUpdated",
      "type": "event"
    },
    {
      "anonymous": false,
      "inputs": [
        {
          "indexed": true,
          "internalType": "address",
          "name": "orderBook",
          "type": "address"
        },
        {
          "indexed": true,
          "internalType": "address",
          "name": "matchingEngine",
          "type": "address"
        },
        {
          "indexed": true,
          "internalType": "address",
          "name": "market",
          "type": "address"
        }
      ],
      "name": "TemplatesUpdated",
      "type": "event"
    },
    {
      "inputs": [],
      "name": "conditionalTokens",
      "outputs": [
        {
          "internalType": "contract IConditionalTokens",
          "name": "",
          "type": "address"
        }
      ],
      "stateMutability": "view",
      "type": "function"
    },
    {
      "inputs": [
        {
          "internalType": "address",
          "name": "collateral",
          "type": "address"
        },
        {
          "internalType": "bytes32",
          "name": "conditionId",
          "type": "bytes32"
        },
        {
          "internalType": "string",
          "name": "question",
          "type": "string"
        },
        {
          "internalType": "string",
          "name": "dataSource",
          "type": "string"
        },
        {
          "internalType": "uint32",
          "name": "_fee",
          "type": "uint32"
        },
        {
          "internalType": "uint64",
          "name": "_startTime",
          "type": "uint64"
        },
        {
          "internalType": "uint64",
          "name": "_endTime",
          "type": "uint64"
        }
      ],
      "name": "createMarket",
      "outputs": [
        {
          "internalType": "uint64",
          "name": "marketId",
          "type": "uint64"
        }
      ],
      "stateMutability": "nonpayable",
      "type": "function"
    },
    {
      "inputs": [],
      "name": "feeRecipient",
      "outputs": [
        {
          "internalType": "address",
          "name": "",
          "type": "address"
        }
      ],
      "stateMutability": "view",
      "type": "function"
    },
    {
      "inputs": [
        {
          "internalType": "uint64",
          "name": "marketId",
          "type": "uint64"
        }
      ],
      "name": "getMarket",
      "outputs": [
        {
          "components": [
            {
              "internalType": "address",
              "name": "creator",
              "type": "address"
            },
            {
              "internalType": "address",
              "name": "market",
              "type": "address"
            },
            {
              "internalType": "address",
              "name": "collateral",
              "type": "address"
            },
            {
              "internalType": "address",
              "name": "conditionTokens",
              "type": "address"
            },
            {
              "internalType": "address",
              "name": "orderBook",
              "type": "address"
            },
            {
              "internalType": "address",
              "name": "matchingEngine",
              "type": "address"
            },
            {
              "internalType": "bytes32",
              "name": "conditionId",
              "type": "bytes32"
            },
            {
              "internalType": "uint64",
              "name": "startTime",
              "type": "uint64"
            },
            {
              "internalType": "uint64",
              "name": "endTime",
              "type": "uint64"
            },
            {
              "internalType": "bool",
              "name": "resolved",
              "type": "bool"
            },
            {
              "internalType": "uint32",
              "name": "fee",
              "type": "uint32"
            },
            {
              "internalType": "string",
              "name": "question",
              "type": "string"
            },
            {
              "internalType": "string",
              "name": "dataSource",
              "type": "string"
            }
          ],
          "internalType": "struct Types.MarketData",
          "name": "",
          "type": "tuple"
        }
      ],
      "stateMutability": "view",
      "type": "function"
    },
    {
      "inputs": [],
      "name": "getMarketCount",
      "outputs": [
        {
          "internalType": "uint64",
          "name": "",
          "type": "uint64"
        }
      ],
      "stateMutability": "view",
      "type": "function"
    },
    {
      "inputs": [],
      "name": "luckyFee",
      "outputs": [
        {
          "internalType": "uint32",
          "name": "",
          "type": "uint32"
        }
      ],
      "stateMutability": "view",
      "type": "function"
    },
    {
      "inputs": [
        {
          "internalType": "uint64",
          "name": "",
          "type": "uint64"
        }
      ],
      "name": "marketExists",
      "outputs": [
        {
          "internalType": "bool",
          "name": "",
          "type": "bool"
        }
      ],
      "stateMutability": "view",
      "type": "function"
    },
    {
      "inputs": [],
      "name": "marketTemplate",
      "outputs": [
        {
          "internalType": "address",
          "name": "",
          "type": "address"
        }
      ],
      "stateMutability": "view",
      "type": "function"
    },
    {
      "inputs": [],
      "name": "matchingEngineTemplate",
      "outputs": [
        {
          "internalType": "address",
          "name": "",
          "type": "address"
        }
      ],
      "stateMutability": "view",
      "type": "function"
    },
    {
      "inputs": [],
      "name": "nextMarketId",
      "outputs": [
        {
          "internalType": "uint64",
          "name": "",
          "type": "uint64"
        }
      ],
      "stateMutability": "view",
      "type": "function"
    },
    {
      "inputs": [],
      "name": "orderBookTemplate",
      "outputs": [
        {
          "internalType": "address",
          "name": "",
          "type": "address"
        }
      ],
      "stateMutability": "view",
      "type": "function"
    },
    {
      "inputs": [],
      "name": "owner",
      "outputs": [
        {
          "internalType": "address",
          "name": "",
          "type": "address"
        }
      ],
      "stateMutability": "view",
      "type": "function"
    },
    {
      "inputs": [],
      "name": "platformFee",
      "outputs": [
        {
          "internalType": "uint32",
          "name": "",
          "type": "uint32"
        }
      ],
      "stateMutability": "view",
      "type": "function"
    },
    {
      "inputs": [],
      "name": "renounceOwnership",
      "outputs": [],
      "stateMutability": "nonpayable",
      "type": "function"
    },
    {
      "inputs": [
        {
          "internalType": "uint64",
          "name": "marketId",
          "type": "uint64"
        },
        {
          "internalType": "uint256[]",
          "name": "payoutNumerators",
          "type": "uint256[]"
        }
      ],
      "name": "resolveMarket",
      "outputs": [],
      "stateMutability": "nonpayable",
      "type": "function"
    },
    {
      "inputs": [
        {
          "internalType": "address",
          "name": "_conditionalTokens",
          "type": "address"
        }
      ],
      "name": "setConditionalTokens",
      "outputs": [],
      "stateMutability": "nonpayable",
      "type": "function"
    },
    {
      "inputs": [
        {
          "internalType": "address",
          "name": "_feeRecipient",
          "type": "address"
        }
      ],
      "name": "setFeeRecipient",
      "outputs": [],
      "stateMutability": "nonpayable",
      "type": "function"
    },
    {
      "inputs": [
        {
          "internalType": "uint32",
          "name": "_luckyFee",
          "type": "uint32"
        }
      ],
      "name": "setLuckyFee",
      "outputs": [],
      "stateMutability": "nonpayable",
      "type": "function"
    },
    {
      "inputs": [
        {
          "internalType": "uint32",
          "name": "_platformFee",
          "type": "uint32"
        }
      ],
      "name": "setPlatformFee",
      "outputs": [],
      "stateMutability": "nonpayable",
      "type": "function"
    },
    {
      "inputs": [
        {
          "internalType": "address",
          "name": "_settlementManager",
          "type": "address"
        }
      ],
      "name": "setSettlementManager",
      "outputs": [],
      "stateMutability": "nonpayable",
      "type": "function"
    },
    {
      "inputs": [
        {
          "internalType": "address",
          "name": "_orderBookTemplate",
          "type": "address"
        },
        {
          "internalType": "address",
          "name": "_matchingEngineTemplate",
          "type": "address"
        },
        {
          "internalType": "address",
          "name": "_marketTemplate",
          "type": "address"
        }
      ],
      "name": "setTemplates",
      "outputs": [],
      "stateMutability": "nonpayable",
      "type": "function"
    },
    {
      "inputs": [],
      "name": "settlementManager",
      "outputs": [
        {
          "internalType": "contract ISettlementManager",
          "name": "",
          "type": "address"
        }
      ],
      "stateMutability": "view",
      "type": "function"
    },
    {
      "inputs": [
        {
          "internalType": "address",
          "name": "newOwner",
          "type": "address"
        }
      ],
      "name": "transferOwnership",
      "outputs": [],
      "stateMutability": "nonpayable",
      "type": "function"
    }
  ],
  "bytecode": "0x608060405260c8600460146101000a81548163ffffffff021916908363ffffffff1602179055506064600460186101000a81548163ffffffff021916908363ffffffff1602179055506001600560006101000a81548167ffffffffffffffff021916908367ffffffffffffffff16021790555034801561007e57600080fd5b50604051613a30380380613a3083398181016040528101906100a09190610250565b80600073ffffffffffffffffffffffffffffffffffffffff168173ffffffffffffffffffffffffffffffffffffffff16036101135760006040517f1e4fbdf700000000000000000000000000000000000000000000000000000000815260040161010a919061028c565b60405180910390fd5b6101228161012960201b60201c565b50506102a7565b60008060009054906101000a900473ffffffffffffffffffffffffffffffffffffffff169050816000806101000a81548173ffffffffffffffffffffffffffffffffffffffff021916908373ffffffffffffffffffffffffffffffffffffffff1602179055508173ffffffffffffffffffffffffffffffffffffffff168173ffffffffffffffffffffffffffffffffffffffff167f8be0079c531659141344cd1fd0a4f28419497f9722a3daafe3b4186f6b6457e060405160405180910390a35050565b600080fd5b600073ffffffffffffffffffffffffffffffffffffffff82169050919050565b600061021d826101f2565b9050919050565b61022d81610212565b811461023857600080fd5b50565b60008151905061024a81610224565b92915050565b600060208284031215610266576102656101ed565b5b60006102748482850161023b565b91505092915050565b61028681610212565b82525050565b60006020820190506102a1600083018461027d565b92915050565b61377a806102b66000396000f3fe608060405234801561001057600080fd5b506004361061011d5760003560e01c80630556df0f14610122578063146fbb791461013e5780631b3e460e1461015a57806326232a2e146101785780632d9637de14610196578063406ef2ef146101b257806346904840146101d05780634c5ad4e2146101ee5780635bd9e2991461020c5780635dbdcdad1461022a5780636e919cda14610248578063715018a61461027857806376c0e0e61461028257806379a6c5d51461029e57806382713e63146102bc5780638da5cb5b146102ec5780639d7d633d1461030a578063d92208241461033a578063e74b981b14610356578063f2d2303114610372578063f2fde38b1461038e578063f9f08673146103aa578063fd69f3c2146103c8575b600080fd5b61013c6004803603810190610137919061252b565b6103e6565b005b61015860048036038101906101539190612594565b610522565b005b6101626105d1565b60405161016f91906125d0565b60405180910390f35b6101806105f7565b60405161018d91906125fa565b60405180910390f35b6101b060048036038101906101ab91906127e4565b61060d565b005b6101ba61077c565b6040516101c7919061284f565b60405180910390f35b6101d8610796565b6040516101e591906125d0565b60405180910390f35b6101f66107bc565b60405161020391906125d0565b60405180910390f35b6102146107e2565b60405161022191906128c9565b60405180910390f35b610232610808565b60405161023f9190612905565b60405180910390f35b610262600480360381019061025d9190612920565b61082e565b60405161026f9190612b4d565b60405180910390f35b610280610cbb565b005b61029c60048036038101906102979190612594565b610ccf565b005b6102a6610d7e565b6040516102b391906125fa565b60405180910390f35b6102d660048036038101906102d19190612bf6565b610d94565b6040516102e3919061284f565b60405180910390f35b6102f4611319565b60405161030191906125d0565b60405180910390f35b610324600480360381019061031f9190612920565b611342565b6040516103319190612ce7565b60405180910390f35b610354600480360381019061034f9190612d02565b611362565b005b610370600480360381019061036b919061252b565b6114be565b005b61038c6004803603810190610387919061252b565b611556565b005b6103a860048036038101906103a3919061252b565b6116b4565b005b6103b261173a565b6040516103bf91906125d0565b60405180910390f35b6103d0611760565b6040516103dd919061284f565b60405180910390f35b6103ee61178a565b6103f781611811565b80600860006101000a81548173ffffffffffffffffffffffffffffffffffffffff021916908373ffffffffffffffffffffffffffffffffffffffff160217905550600073ffffffffffffffffffffffffffffffffffffffff16600960009054906101000a900473ffffffffffffffffffffffffffffffffffffffff1673ffffffffffffffffffffffffffffffffffffffff161461051f57600960009054906101000a900473ffffffffffffffffffffffffffffffffffffffff1673ffffffffffffffffffffffffffffffffffffffff1663711bf9b28260016040518363ffffffff1660e01b81526004016104ec929190612d55565b600060405180830381600087803b15801561050657600080fd5b505af115801561051a573d6000803e3d6000fd5b505050505b50565b61052a61178a565b620f42408163ffffffff161115610576576040517f08c379a000000000000000000000000000000000000000000000000000000000815260040161056d90612ddb565b60405180910390fd5b80600460146101000a81548163ffffffff021916908363ffffffff1602179055507fbf062c46483c672aedd460ec7701b6c145ea92f019587d07d976f9061582a639816040516105c691906125fa565b60405180910390a150565b600360009054906101000a900473ffffffffffffffffffffffffffffffffffffffff1681565b600460149054906101000a900463ffffffff1681565b61061561178a565b600073ffffffffffffffffffffffffffffffffffffffff16600860009054906101000a900473ffffffffffffffffffffffffffffffffffffffff1673ffffffffffffffffffffffffffffffffffffffff16036106a6576040517f08c379a000000000000000000000000000000000000000000000000000000000815260040161069d90612e47565b60405180910390fd5b600860009054906101000a900473ffffffffffffffffffffffffffffffffffffffff1673ffffffffffffffffffffffffffffffffffffffff16632d9637de83836040518363ffffffff1660e01b8152600401610703929190612f25565b600060405180830381600087803b15801561071d57600080fd5b505af1158015610731573d6000803e3d6000fd5b505050506001600660008467ffffffffffffffff1667ffffffffffffffff16815260200190815260200160002060070160106101000a81548160ff0219169083151502179055505050565b600560009054906101000a900467ffffffffffffffff1681565b600460009054906101000a900473ffffffffffffffffffffffffffffffffffffffff1681565b600260009054906101000a900473ffffffffffffffffffffffffffffffffffffffff1681565b600960009054906101000a900473ffffffffffffffffffffffffffffffffffffffff1681565b600860009054906101000a900473ffffffffffffffffffffffffffffffffffffffff1681565b61083661233e565b600760008367ffffffffffffffff1667ffffffffffffffff16815260200190815260200160002060009054906101000a900460ff166108aa576040517f08c379a00000000000000000000000000000000000000000000000000000000081526004016108a190612fa1565b60405180910390fd5b600660008367ffffffffffffffff1667ffffffffffffffff168152602001908152602001600020604051806101a00160405290816000820160009054906101000a900473ffffffffffffffffffffffffffffffffffffffff1673ffffffffffffffffffffffffffffffffffffffff1673ffffffffffffffffffffffffffffffffffffffff1681526020016001820160009054906101000a900473ffffffffffffffffffffffffffffffffffffffff1673ffffffffffffffffffffffffffffffffffffffff1673ffffffffffffffffffffffffffffffffffffffff1681526020016002820160009054906101000a900473ffffffffffffffffffffffffffffffffffffffff1673ffffffffffffffffffffffffffffffffffffffff1673ffffffffffffffffffffffffffffffffffffffff1681526020016003820160009054906101000a900473ffffffffffffffffffffffffffffffffffffffff1673ffffffffffffffffffffffffffffffffffffffff1673ffffffffffffffffffffffffffffffffffffffff1681526020016004820160009054906101000a900473ffffffffffffffffffffffffffffffffffffffff1673ffffffffffffffffffffffffffffffffffffffff1673ffffffffffffffffffffffffffffffffffffffff1681526020016005820160009054906101000a900473ffffffffffffffffffffffffffffffffffffffff1673ffffffffffffffffffffffffffffffffffffffff1673ffffffffffffffffffffffffffffffffffffffff168152602001600682015481526020016007820160009054906101000a900467ffffffffffffffff1667ffffffffffffffff1667ffffffffffffffff1681526020016007820160089054906101000a900467ffffffffffffffff1667ffffffffffffffff1667ffffffffffffffff1681526020016007820160109054906101000a900460ff161515151581526020016007820160119054906101000a900463ffffffff1663ffffffff1663ffffffff168152602001600882018054610ba090612ff0565b80601f0160208091040260200160405190810160405280929190818152602001828054610bcc90612ff0565b8015610c195780601f10610bee57610100808354040283529160200191610c19565b820191906000526020600020905b815481529060010190602001808311610bfc57829003601f168201915b50505050508152602001600982018054610c3290612ff0565b80601f0160208091040260200160405190810160405280929190818152602001828054610c5e90612ff0565b8015610cab5780601f10610c8057610100808354040283529160200191610cab565b820191906000526020600020905b815481529060010190602001808311610c8e57829003601f168201915b5050505050815250509050919050565b610cc361178a565b610ccd600061187a565b565b610cd761178a565b620f42408163ffffffff161115610d23576040517f08c379a0000000000000000000000000000000000000000000000000000000008152600401610d1a90612ddb565b60405180910390fd5b80600460186101000a81548163ffffffff021916908363ffffffff1602179055507f0ea4f41a1c09b8081c1ff1e1599f1eb96c0768a0c1079ba5a8ee5a7de6e96a5e81604051610d7391906125fa565b60405180910390a150565b600460189054906101000a900463ffffffff1681565b6000610d9e611319565b73ffffffffffffffffffffffffffffffffffffffff163373ffffffffffffffffffffffffffffffffffffffff161480610e245750600860009054906101000a900473ffffffffffffffffffffffffffffffffffffffff1673ffffffffffffffffffffffffffffffffffffffff163373ffffffffffffffffffffffffffffffffffffffff16145b610e63576040517f08c379a0000000000000000000000000000000000000000000000000000000008152600401610e5a9061306d565b60405180910390fd5b600073ffffffffffffffffffffffffffffffffffffffff168a73ffffffffffffffffffffffffffffffffffffffff161480610eec5750600073ffffffffffffffffffffffffffffffffffffffff16600460009054906101000a900473ffffffffffffffffffffffffffffffffffffffff1673ffffffffffffffffffffffffffffffffffffffff16145b15610f23576040517fd92e233d00000000000000000000000000000000000000000000000000000000815260040160405180910390fd5b600073ffffffffffffffffffffffffffffffffffffffff16600160009054906101000a900473ffffffffffffffffffffffffffffffffffffffff1673ffffffffffffffffffffffffffffffffffffffff161480610fce5750600073ffffffffffffffffffffffffffffffffffffffff16600360009054906101000a900473ffffffffffffffffffffffffffffffffffffffff1673ffffffffffffffffffffffffffffffffffffffff16145b15611005576040517fd92e233d00000000000000000000000000000000000000000000000000000000815260040160405180910390fd5b6000888890501161104b576040517f08c379a0000000000000000000000000000000000000000000000000000000008152600401611042906130d9565b60405180910390fd5b60008686905011611091576040517f08c379a000000000000000000000000000000000000000000000000000000000815260040161108890613145565b60405180910390fd5b8167ffffffffffffffff168367ffffffffffffffff16106110e7576040517f08c379a00000000000000000000000000000000000000000000000000000000081526004016110de906131b1565b60405180910390fd5b6005600081819054906101000a900467ffffffffffffffff168092919061110d90613200565b91906101000a81548167ffffffffffffffff021916908367ffffffffffffffff1602179055509050600061116c828c8c60008963ffffffff161161116357600460149054906101000a900463ffffffff16611165565b885b888861193e565b9050600073ffffffffffffffffffffffffffffffffffffffff16600860009054906101000a900473ffffffffffffffffffffffffffffffffffffffff1673ffffffffffffffffffffffffffffffffffffffff161461125257600860009054906101000a900473ffffffffffffffffffffffffffffffffffffffff1673ffffffffffffffffffffffffffffffffffffffff16630ebc99568383600001516040518363ffffffff1660e01b8152600401611225929190613230565b600060405180830381600087803b15801561123f57600080fd5b505af1925050508015611250575060015b505b61126482828d8d88888f8f8f8f611dcb565b6001600760008467ffffffffffffffff1667ffffffffffffffff16815260200190815260200160002060006101000a81548160ff021916908315150217905550806000015173ffffffffffffffffffffffffffffffffffffffff168267ffffffffffffffff167f86d6e8d7d83b9a15990908d7e52ad704df08f828b8816b1d1d44332179da07df8d8d8d8d8d8d604051611303969594939291906132a4565b60405180910390a3509998505050505050505050565b60008060009054906101000a900473ffffffffffffffffffffffffffffffffffffffff16905090565b60076020528060005260406000206000915054906101000a900460ff1681565b61136a61178a565b61137383611811565b61137c82611811565b61138581611811565b82600160006101000a81548173ffffffffffffffffffffffffffffffffffffffff021916908373ffffffffffffffffffffffffffffffffffffffff16021790555081600260006101000a81548173ffffffffffffffffffffffffffffffffffffffff021916908373ffffffffffffffffffffffffffffffffffffffff16021790555080600360006101000a81548173ffffffffffffffffffffffffffffffffffffffff021916908373ffffffffffffffffffffffffffffffffffffffff1602179055508073ffffffffffffffffffffffffffffffffffffffff168273ffffffffffffffffffffffffffffffffffffffff168473ffffffffffffffffffffffffffffffffffffffff167fe0f7410eb9329019efebf2249173d31c1a0236fefda447f4c2f2b45302179ac060405160405180910390a4505050565b6114c661178a565b6114cf81611811565b80600460006101000a81548173ffffffffffffffffffffffffffffffffffffffff021916908373ffffffffffffffffffffffffffffffffffffffff1602179055508073ffffffffffffffffffffffffffffffffffffffff167f7a7b5a0a132f9e0581eb8527f66eae9ee89c2a3e79d4ac7e41a1f1f4d48a7fc260405160405180910390a250565b61155e61178a565b61156781611811565b80600960006101000a81548173ffffffffffffffffffffffffffffffffffffffff021916908373ffffffffffffffffffffffffffffffffffffffff160217905550600073ffffffffffffffffffffffffffffffffffffffff16600860009054906101000a900473ffffffffffffffffffffffffffffffffffffffff1673ffffffffffffffffffffffffffffffffffffffff16146116b157600960009054906101000a900473ffffffffffffffffffffffffffffffffffffffff1673ffffffffffffffffffffffffffffffffffffffff1663711bf9b2600860009054906101000a900473ffffffffffffffffffffffffffffffffffffffff1660016040518363ffffffff1660e01b815260040161167e929190612d55565b600060405180830381600087803b15801561169857600080fd5b505af11580156116ac573d6000803e3d6000fd5b505050505b50565b6116bc61178a565b600073ffffffffffffffffffffffffffffffffffffffff168173ffffffffffffffffffffffffffffffffffffffff160361172e5760006040517f1e4fbdf700000000000000000000000000000000000000000000000000000000815260040161172591906125d0565b60405180910390fd5b6117378161187a565b50565b600160009054906101000a900473ffffffffffffffffffffffffffffffffffffffff1681565b60006001600560009054906101000a900467ffffffffffffffff1661178591906132fb565b905090565b61179261208e565b73ffffffffffffffffffffffffffffffffffffffff166117b0611319565b73ffffffffffffffffffffffffffffffffffffffff161461180f576117d361208e565b6040517f118cdaa700000000000000000000000000000000000000000000000000000000815260040161180691906125d0565b60405180910390fd5b565b600073ffffffffffffffffffffffffffffffffffffffff168173ffffffffffffffffffffffffffffffffffffffff1603611877576040517fd92e233d00000000000000000000000000000000000000000000000000000000815260040160405180910390fd5b50565b60008060009054906101000a900473ffffffffffffffffffffffffffffffffffffffff169050816000806101000a81548173ffffffffffffffffffffffffffffffffffffffff021916908373ffffffffffffffffffffffffffffffffffffffff1602179055508173ffffffffffffffffffffffffffffffffffffffff168173ffffffffffffffffffffffffffffffffffffffff167f8be0079c531659141344cd1fd0a4f28419497f9722a3daafe3b4186f6b6457e060405160405180910390a35050565b611946612449565b611971600160009054906101000a900473ffffffffffffffffffffffffffffffffffffffff16612096565b816020019073ffffffffffffffffffffffffffffffffffffffff16908173ffffffffffffffffffffffffffffffffffffffff1681525050806020015173ffffffffffffffffffffffffffffffffffffffff1663e1c7392a6040518163ffffffff1660e01b8152600401600060405180830381600087803b1580156119f457600080fd5b505af1158015611a08573d6000803e3d6000fd5b50505050611a37600260009054906101000a900473ffffffffffffffffffffffffffffffffffffffff16612096565b816040019073ffffffffffffffffffffffffffffffffffffffff16908173ffffffffffffffffffffffffffffffffffffffff1681525050806040015173ffffffffffffffffffffffffffffffffffffffff1663184b9559826020015188600460009054906101000a900473ffffffffffffffffffffffffffffffffffffffff166040518463ffffffff1660e01b8152600401611ad593929190613337565b600060405180830381600087803b158015611aef57600080fd5b505af1158015611b03573d6000803e3d6000fd5b5050505083816060019063ffffffff16908163ffffffff1681525050600087604051602001611b32919061284f565b604051602081830303815290604052805190602001209050611b76600360009054906101000a900473ffffffffffffffffffffffffffffffffffffffff16826120aa565b826000019073ffffffffffffffffffffffffffffffffffffffff16908173ffffffffffffffffffffffffffffffffffffffff1681525050600960009054906101000a900473ffffffffffffffffffffffffffffffffffffffff1673ffffffffffffffffffffffffffffffffffffffff1663711bf9b2836000015160016040518363ffffffff1660e01b8152600401611c0f929190612d55565b600060405180830381600087803b158015611c2957600080fd5b505af1158015611c3d573d6000803e3d6000fd5b50505050611c6d600360009054906101000a900473ffffffffffffffffffffffffffffffffffffffff16826120bf565b826000019073ffffffffffffffffffffffffffffffffffffffff16908173ffffffffffffffffffffffffffffffffffffffff1681525050816000015173ffffffffffffffffffffffffffffffffffffffff166337e77d1888888888888e89602001518a60400151600960009054906101000a900473ffffffffffffffffffffffffffffffffffffffff166040518a63ffffffff1660e01b8152600401611d1b99989796959493929190613402565b600060405180830381600087803b158015611d3557600080fd5b505af1158015611d49573d6000803e3d6000fd5b50505050816020015173ffffffffffffffffffffffffffffffffffffffff1663f2862e6783600001516040518263ffffffff1660e01b8152600401611d8e91906125d0565b600060405180830381600087803b158015611da857600080fd5b505af1158015611dbc573d6000803e3d6000fd5b50505050509695505050505050565b6000600660008c67ffffffffffffffff1667ffffffffffffffff1681526020019081526020016000209050338160000160006101000a81548173ffffffffffffffffffffffffffffffffffffffff021916908373ffffffffffffffffffffffffffffffffffffffff16021790555089600001518160010160006101000a81548173ffffffffffffffffffffffffffffffffffffffff021916908373ffffffffffffffffffffffffffffffffffffffff160217905550888160020160006101000a81548173ffffffffffffffffffffffffffffffffffffffff021916908373ffffffffffffffffffffffffffffffffffffffff160217905550600960009054906101000a900473ffffffffffffffffffffffffffffffffffffffff168160030160006101000a81548173ffffffffffffffffffffffffffffffffffffffff021916908373ffffffffffffffffffffffffffffffffffffffff16021790555089602001518160040160006101000a81548173ffffffffffffffffffffffffffffffffffffffff021916908373ffffffffffffffffffffffffffffffffffffffff16021790555089604001518160050160006101000a81548173ffffffffffffffffffffffffffffffffffffffff021916908373ffffffffffffffffffffffffffffffffffffffff160217905550878160060181905550868160070160006101000a81548167ffffffffffffffff021916908367ffffffffffffffff160217905550858160070160086101000a81548167ffffffffffffffff021916908367ffffffffffffffff16021790555060008160070160106101000a81548160ff02191690831515021790555089606001518160070160116101000a81548163ffffffff021916908363ffffffff160217905550848482600801918261206c92919061363c565b50828282600901918261208092919061363c565b505050505050505050505050565b600033905090565b60006120a38260006120d5565b9050919050565b60006120b78383306121cd565b905092915050565b60006120cd83836000612244565b905092915050565b60008147101561211e5747826040517fcf47918100000000000000000000000000000000000000000000000000000000815260040161211592919061371b565b60405180910390fd5b763d602d80600a3d3981f3363d3d373d3d3d363d730000008360601b60e81c176000526e5af43d82803e903d91602b57fd5bf38360781b176020526037600983f09050600073ffffffffffffffffffffffffffffffffffffffff168173ffffffffffffffffffffffffffffffffffffffff16036121c7576040517fb06ebf3d00000000000000000000000000000000000000000000000000000000815260040160405180910390fd5b92915050565b60006040518260388201526f5af43d82803e903d91602b57fd5bf3ff6024820152846014820152733d602d80600a3d3981f3363d3d373d3d3d363d7381528360588201526037600c820120607882015273ffffffffffffffffffffffffffffffffffffffff60556043830120169150509392505050565b60008147101561228d5747826040517fcf47918100000000000000000000000000000000000000000000000000000000815260040161228492919061371b565b60405180910390fd5b763d602d80600a3d3981f3363d3d373d3d3d363d730000008460601b60e81c176000526e5af43d82803e903d91602b57fd5bf38460781b17602052826037600984f59050600073ffffffffffffffffffffffffffffffffffffffff168173ffffffffffffffffffffffffffffffffffffffff1603612337576040517fb06ebf3d00000000000000000000000000000000000000000000000000000000815260040160405180910390fd5b9392505050565b604051806101a00160405280600073ffffffffffffffffffffffffffffffffffffffff168152602001600073ffffffffffffffffffffffffffffffffffffffff168152602001600073ffffffffffffffffffffffffffffffffffffffff168152602001600073ffffffffffffffffffffffffffffffffffffffff168152602001600073ffffffffffffffffffffffffffffffffffffffff168152602001600073ffffffffffffffffffffffffffffffffffffffff16815260200160008019168152602001600067ffffffffffffffff168152602001600067ffffffffffffffff168152602001600015158152602001600063ffffffff16815260200160608152602001606081525090565b6040518060800160405280600073ffffffffffffffffffffffffffffffffffffffff168152602001600073ffffffffffffffffffffffffffffffffffffffff168152602001600073ffffffffffffffffffffffffffffffffffffffff168152602001600063ffffffff1681525090565b6000604051905090565b600080fd5b600080fd5b600073ffffffffffffffffffffffffffffffffffffffff82169050919050565b60006124f8826124cd565b9050919050565b612508816124ed565b811461251357600080fd5b50565b600081359050612525816124ff565b92915050565b600060208284031215612541576125406124c3565b5b600061254f84828501612516565b91505092915050565b600063ffffffff82169050919050565b61257181612558565b811461257c57600080fd5b50565b60008135905061258e81612568565b92915050565b6000602082840312156125aa576125a96124c3565b5b60006125b88482850161257f565b91505092915050565b6125ca816124ed565b82525050565b60006020820190506125e560008301846125c1565b92915050565b6125f481612558565b82525050565b600060208201905061260f60008301846125eb565b92915050565b600067ffffffffffffffff82169050919050565b61263281612615565b811461263d57600080fd5b50565b60008135905061264f81612629565b92915050565b600080fd5b6000601f19601f8301169050919050565b7f4e487b7100000000000000000000000000000000000000000000000000000000600052604160045260246000fd5b6126a38261265a565b810181811067ffffffffffffffff821117156126c2576126c161266b565b5b80604052505050565b60006126d56124b9565b90506126e1828261269a565b919050565b600067ffffffffffffffff8211156127015761270061266b565b5b602082029050602081019050919050565b600080fd5b6000819050919050565b61272a81612717565b811461273557600080fd5b50565b60008135905061274781612721565b92915050565b600061276061275b846126e6565b6126cb565b9050808382526020820190506020840283018581111561278357612782612712565b5b835b818110156127ac57806127988882612738565b845260208401935050602081019050612785565b5050509392505050565b600082601f8301126127cb576127ca612655565b5b81356127db84826020860161274d565b91505092915050565b600080604083850312156127fb576127fa6124c3565b5b600061280985828601612640565b925050602083013567ffffffffffffffff81111561282a576128296124c8565b5b612836858286016127b6565b9150509250929050565b61284981612615565b82525050565b60006020820190506128646000830184612840565b92915050565b6000819050919050565b600061288f61288a612885846124cd565b61286a565b6124cd565b9050919050565b60006128a182612874565b9050919050565b60006128b382612896565b9050919050565b6128c3816128a8565b82525050565b60006020820190506128de60008301846128ba565b92915050565b60006128ef82612896565b9050919050565b6128ff816128e4565b82525050565b600060208201905061291a60008301846128f6565b92915050565b600060208284031215612936576129356124c3565b5b600061294484828501612640565b91505092915050565b612956816124ed565b82525050565b6000819050919050565b61296f8161295c565b82525050565b61297e81612615565b82525050565b60008115159050919050565b61299981612984565b82525050565b6129a881612558565b82525050565b600081519050919050565b600082825260208201905092915050565b60005b838110156129e85780820151818401526020810190506129cd565b60008484015250505050565b60006129ff826129ae565b612a0981856129b9565b9350612a198185602086016129ca565b612a228161265a565b840191505092915050565b60006101a083016000830151612a46600086018261294d565b506020830151612a59602086018261294d565b506040830151612a6c604086018261294d565b506060830151612a7f606086018261294d565b506080830151612a92608086018261294d565b5060a0830151612aa560a086018261294d565b5060c0830151612ab860c0860182612966565b5060e0830151612acb60e0860182612975565b50610100830151612ae0610100860182612975565b50610120830151612af5610120860182612990565b50610140830151612b0a61014086018261299f565b50610160830151848203610160860152612b2482826129f4565b915050610180830151848203610180860152612b4082826129f4565b9150508091505092915050565b60006020820190508181036000830152612b678184612a2d565b905092915050565b612b788161295c565b8114612b8357600080fd5b50565b600081359050612b9581612b6f565b92915050565b600080fd5b60008083601f840112612bb657612bb5612655565b5b8235905067ffffffffffffffff811115612bd357612bd2612b9b565b5b602083019150836001820283011115612bef57612bee612712565b5b9250929050565b600080600080600080600080600060e08a8c031215612c1857612c176124c3565b5b6000612c268c828d01612516565b9950506020612c378c828d01612b86565b98505060408a013567ffffffffffffffff811115612c5857612c576124c8565b5b612c648c828d01612ba0565b975097505060608a013567ffffffffffffffff811115612c8757612c866124c8565b5b612c938c828d01612ba0565b95509550506080612ca68c828d0161257f565b93505060a0612cb78c828d01612640565b92505060c0612cc88c828d01612640565b9150509295985092959850929598565b612ce181612984565b82525050565b6000602082019050612cfc6000830184612cd8565b92915050565b600080600060608486031215612d1b57612d1a6124c3565b5b6000612d2986828701612516565b9350506020612d3a86828701612516565b9250506040612d4b86828701612516565b9150509250925092565b6000604082019050612d6a60008301856125c1565b612d776020830184612cd8565b9392505050565b600082825260208201905092915050565b7f466163746f72793a2066656520746f6f20686967680000000000000000000000600082015250565b6000612dc5601583612d7e565b9150612dd082612d8f565b602082019050919050565b60006020820190508181036000830152612df481612db8565b9050919050565b7f466163746f72793a206e6f20736574746c656d656e74206d616e616765720000600082015250565b6000612e31601e83612d7e565b9150612e3c82612dfb565b602082019050919050565b60006020820190508181036000830152612e6081612e24565b9050919050565b600081519050919050565b600082825260208201905092915050565b6000819050602082019050919050565b612e9c81612717565b82525050565b6000612eae8383612e93565b60208301905092915050565b6000602082019050919050565b6000612ed282612e67565b612edc8185612e72565b9350612ee783612e83565b8060005b83811015612f18578151612eff8882612ea2565b9750612f0a83612eba565b925050600181019050612eeb565b5085935050505092915050565b6000604082019050612f3a6000830185612840565b8181036020830152612f4c8184612ec7565b90509392505050565b7f466163746f72793a206d61726b6574206e6f7420657869737473000000000000600082015250565b6000612f8b601a83612d7e565b9150612f9682612f55565b602082019050919050565b60006020820190508181036000830152612fba81612f7e565b9050919050565b7f4e487b7100000000000000000000000000000000000000000000000000000000600052602260045260246000fd5b6000600282049050600182168061300857607f821691505b60208210810361301b5761301a612fc1565b5b50919050565b7f466163746f72793a20756e617574686f72697a65640000000000000000000000600082015250565b6000613057601583612d7e565b915061306282613021565b602082019050919050565b600060208201905081810360008301526130868161304a565b9050919050565b7f466163746f72793a20656d707479207175657374696f6e000000000000000000600082015250565b60006130c3601783612d7e565b91506130ce8261308d565b602082019050919050565b600060208201905081810360008301526130f2816130b6565b9050919050565b7f466163746f72793a20656d707479206461746120736f75726365000000000000600082015250565b600061312f601a83612d7e565b915061313a826130f9565b602082019050919050565b6000602082019050818103600083015261315e81613122565b9050919050565b7f466163746f72793a20696e76616c69642074696d652072616e67650000000000600082015250565b600061319b601b83612d7e565b91506131a682613165565b602082019050919050565b600060208201905081810360008301526131ca8161318e565b9050919050565b7f4e487b7100000000000000000000000000000000000000000000000000000000600052601160045260246000fd5b600061320b82612615565b915067ffffffffffffffff8203613225576132246131d1565b5b600182019050919050565b60006040820190506132456000830185612840565b61325260208301846125c1565b9392505050565b6132628161295c565b82525050565b82818337600083830152505050565b60006132838385612d7e565b9350613290838584613268565b6132998361265a565b840190509392505050565b60006080820190506132b960008301896125c1565b6132c66020830188613259565b81810360408301526132d9818688613277565b905081810360608301526132ee818486613277565b9050979650505050505050565b600061330682612615565b915061331183612615565b9250828203905067ffffffffffffffff811115613331576133306131d1565b5b92915050565b600060608201905061334c60008301866125c1565b61335960208301856125c1565b61336660408301846125c1565b949350505050565b600061337982612896565b9050919050565b6133898161336e565b82525050565b60006133aa6133a56133a084612558565b61286a565b612717565b9050919050565b6133ba8161338f565b82525050565b60006133cb82612896565b9050919050565b6133db816133c0565b82525050565b60006133ec82612896565b9050919050565b6133fc816133e1565b82525050565b600061012082019050613418600083018c613380565b613425602083018b613259565b613432604083018a6133b1565b61343f6060830189612840565b61344c6080830188612840565b61345960a0830187612840565b61346660c08301866133d2565b61347360e08301856133f3565b6134816101008301846128ba565b9a9950505050505050505050565b600082905092915050565b60008190508160005260206000209050919050565b60006020601f8301049050919050565b600082821b905092915050565b6000600883026134fc7fffffffffffffffffffffffffffffffffffffffffffffffffffffffffffffffff826134bf565b61350686836134bf565b95508019841693508086168417925050509392505050565b600061353961353461352f84612717565b61286a565b612717565b9050919050565b6000819050919050565b6135538361351e565b61356761355f82613540565b8484546134cc565b825550505050565b600090565b61357c61356f565b61358781848461354a565b505050565b5b818110156135ab576135a0600082613574565b60018101905061358d565b5050565b601f8211156135f0576135c18161349a565b6135ca846134af565b810160208510156135d9578190505b6135ed6135e5856134af565b83018261358c565b50505b505050565b600082821c905092915050565b6000613613600019846008026135f5565b1980831691505092915050565b600061362c8383613602565b9150826002028217905092915050565b613646838361348f565b67ffffffffffffffff81111561365f5761365e61266b565b5b6136698254612ff0565b6136748282856135af565b6000601f8311600181146136a35760008415613691578287013590505b61369b8582613620565b865550613703565b601f1984166136b18661349a565b60005b828110156136d9578489013582556001820191506020850194506020810190506136b4565b868310156136f657848901356136f2601f891682613602565b8355505b6001600288020188555050505b50505050505050565b61371581612717565b82525050565b6000604082019050613730600083018561370c565b61373d602083018461370c565b939250505056fea2646970667358221220dd76caa6b7a40cc68382fe260147b4df4f5f9e05ab9f3bd2540846808d70e61964736f6c634300081a0033",
  "linkReferences": {},
  "deployedLinkReferences": {}
}