{
  "_format": "hh-sol-artifact-1",
  "contractName": "SettlementManager",
  "sourceName": "contracts/core/SettlementManager.sol",
  "abi": [
    {
      "inputs": [
        {
          "internalType": "contract IConditionalTokens",
          "name": "_conditionalTokens",
          "type": "address"
        }
      ],
      "stateMutability": "nonpayable",
      "type": "constructor"
    },
    {
      "inputs": [
        {
          "internalType": "address",
          "name": "owner",
          "type": "address"
        }
      ],
      "name": "OwnableInvalidOwner",
      "type": "error"
    },
    {
      "inputs": [
        {
          "internalType": "address",
          "name": "account",
          "type": "address"
        }
      ],
      "name": "OwnableUnauthorizedAccount",
      "type": "error"
    },
    {
      "inputs": [],
      "name": "ReentrancyGuardReentrantCall",
      "type": "error"
    },
    {
      "anonymous": false,
      "inputs": [
        {
          "indexed": true,
          "internalType": "uint64",
          "name": "marketId",
          "type": "uint64"
        },
        {
          "indexed": true,
          "internalType": "address",
          "name": "market",
          "type": "address"
        }
      ],
      "name": "MarketRegistered",
      "type": "event"
    },
    {
      "anonymous": false,
      "inputs": [
        {
          "indexed": true,
          "internalType": "uint64",
          "name": "marketId",
          "type": "uint64"
        },
        {
          "indexed": true,
          "internalType": "bytes32",
          "name": "conditionId",
          "type": "bytes32"
        },
        {
          "indexed": false,
          "internalType": "uint256[]",
          "name": "payoutNumerators",
          "type": "uint256[]"
        },
        {
          "indexed": false,
          "internalType": "uint256",
          "name": "payoutDenominator",
          "type": "uint256"
        }
      ],
      "name": "MarketResolved",
      "type": "event"
    },
    {
      "anonymous": false,
      "inputs": [
        {
          "indexed": true,
          "internalType": "address",
          "name": "previousOwner",
          "type": "address"
        },
        {
          "indexed": true,
          "internalType": "address",
          "name": "newOwner",
          "type": "address"
        }
      ],
      "name": "OwnershipTransferred",
      "type": "event"
    },
    {
      "anonymous": false,
      "inputs": [
        {
          "indexed": true,
          "internalType": "address",
          "name": "user",
          "type": "address"
        },
        {
          "indexed": true,
          "internalType": "uint64",
          "name": "marketId",
          "type": "uint64"
        },
        {
          "indexed": false,
          "internalType": "bytes32",
          "name": "conditionId",
          "type": "bytes32"
        },
        {
          "indexed": false,
          "internalType": "uint256",
          "name": "collateralOut",
          "type": "uint256"
        }
      ],
      "name": "Redeemed",
      "type": "event"
    },
    {
      "inputs": [
        {
          "internalType": "address",
          "name": "user",
          "type": "address"
        },
        {
          "internalType": "uint64",
          "name": "marketId",
          "type": "uint64"
        }
      ],
      "name": "computePayout",
      "outputs": [
        {
          "internalType": "uint256",
          "name": "totalPayout",
          "type": "uint256"
        }
      ],
      "stateMutability": "view",
      "type": "function"
    },
    {
      "inputs": [],
      "name": "conditionalTokens",
      "outputs": [
        {
          "internalType": "contract IConditionalTokens",
          "name": "",
          "type": "address"
        }
      ],
      "stateMutability": "view",
      "type": "function"
    },
    {
      "inputs": [
        {
          "internalType": "bytes32",
          "name": "conditionId",
          "type": "bytes32"
        }
      ],
      "name": "getPayoutNumerators",
      "outputs": [
        {
          "internalType": "uint256[]",
          "name": "",
          "type": "uint256[]"
        }
      ],
      "stateMutability": "view",
      "type": "function"
    },
    {
      "inputs": [
        {
          "internalType": "uint64",
          "name": "marketId",
          "type": "uint64"
        }
      ],
      "name": "isMarketResolved",
      "outputs": [
        {
          "internalType": "bool",
          "name": "",
          "type": "bool"
        }
      ],
      "stateMutability": "view",
      "type": "function"
    },
    {
      "inputs": [
        {
          "internalType": "uint64",
          "name": "",
          "type": "uint64"
        }
      ],
      "name": "markets",
      "outputs": [
        {
          "internalType": "address",
          "name": "",
          "type": "address"
        }
      ],
      "stateMutability": "view",
      "type": "function"
    },
    {
      "inputs": [],
      "name": "owner",
      "outputs": [
        {
          "internalType": "address",
          "name": "",
          "type": "address"
        }
      ],
      "stateMutability": "view",
      "type": "function"
    },
    {
      "inputs": [
        {
          "internalType": "bytes32",
          "name": "",
          "type": "bytes32"
        }
      ],
      "name": "payoutDenominators",
      "outputs": [
        {
          "internalType": "uint256",
          "name": "",
          "type": "uint256"
        }
      ],
      "stateMutability": "view",
      "type": "function"
    },
    {
      "inputs": [
        {
          "internalType": "bytes32",
          "name": "",
          "type": "bytes32"
        },
        {
          "internalType": "uint256",
          "name": "",
          "type": "uint256"
        }
      ],
      "name": "payoutNumerators",
      "outputs": [
        {
          "internalType": "uint256",
          "name": "",
          "type": "uint256"
        }
      ],
      "stateMutability": "view",
      "type": "function"
    },
    {
      "inputs": [
        {
          "internalType": "address",
          "name": "user",
          "type": "address"
        },
        {
          "internalType": "uint64",
          "name": "marketId",
          "type": "uint64"
        }
      ],
      "name": "redeemForUser",
      "outputs": [
        {
          "internalType": "uint256",
          "name": "totalCollateralOut",
          "type": "uint256"
        }
      ],
      "stateMutability": "nonpayable",
      "type": "function"
    },
    {
      "inputs": [
        {
          "internalType": "uint64",
          "name": "marketId",
          "type": "uint64"
        },
        {
          "internalType": "address",
          "name": "market",
          "type": "address"
        }
      ],
      "name": "registerMarket",
      "outputs": [],
      "stateMutability": "nonpayable",
      "type": "function"
    },
    {
      "inputs": [],
      "name": "renounceOwnership",
      "outputs": [],
      "stateMutability": "nonpayable",
      "type": "function"
    },
    {
      "inputs": [
        {
          "internalType": "uint64",
          "name": "marketId",
          "type": "uint64"
        },
        {
          "internalType": "uint256[]",
          "name": "_payoutNumerators",
          "type": "uint256[]"
        }
      ],
      "name": "resolveMarket",
      "outputs": [],
      "stateMutability": "nonpayable",
      "type": "function"
    },
    {
      "inputs": [
        {
          "internalType": "uint64",
          "name": "",
          "type": "uint64"
        }
      ],
      "name": "resolvedMarkets",
      "outputs": [
        {
          "internalType": "bool",
          "name": "",
          "type": "bool"
        }
      ],
      "stateMutability": "view",
      "type": "function"
    },
    {
      "inputs": [
        {
          "internalType": "address",
          "name": "newOwner",
          "type": "address"
        }
      ],
      "name": "transferOwnership",
      "outputs": [],
      "stateMutability": "nonpayable",
      "type": "function"
    }
  ],
  "bytecode": "0x60a060405234801561001057600080fd5b50604051612c49380380612c498339818101604052810190610032919061029e565b33600073ffffffffffffffffffffffffffffffffffffffff168173ffffffffffffffffffffffffffffffffffffffff16036100a55760006040517f1e4fbdf700000000000000000000000000000000000000000000000000000000815260040161009c91906102da565b60405180910390fd5b6100b48161016560201b60201c565b5060018081905550600073ffffffffffffffffffffffffffffffffffffffff168173ffffffffffffffffffffffffffffffffffffffff160361012b576040517f08c379a000000000000000000000000000000000000000000000000000000000815260040161012290610352565b60405180910390fd5b8073ffffffffffffffffffffffffffffffffffffffff1660808173ffffffffffffffffffffffffffffffffffffffff168152505050610372565b60008060009054906101000a900473ffffffffffffffffffffffffffffffffffffffff169050816000806101000a81548173ffffffffffffffffffffffffffffffffffffffff021916908373ffffffffffffffffffffffffffffffffffffffff1602179055508173ffffffffffffffffffffffffffffffffffffffff168173ffffffffffffffffffffffffffffffffffffffff167f8be0079c531659141344cd1fd0a4f28419497f9722a3daafe3b4186f6b6457e060405160405180910390a35050565b600080fd5b600073ffffffffffffffffffffffffffffffffffffffff82169050919050565b60006102598261022e565b9050919050565b600061026b8261024e565b9050919050565b61027b81610260565b811461028657600080fd5b50565b60008151905061029881610272565b92915050565b6000602082840312156102b4576102b3610229565b5b60006102c284828501610289565b91505092915050565b6102d48161024e565b82525050565b60006020820190506102ef60008301846102cb565b92915050565b600082825260208201905092915050565b7f534d3a207a65726f20636f6e646974696f6e616c20746f6b656e730000000000600082015250565b600061033c601b836102f5565b915061034782610306565b602082019050919050565b6000602082019050818103600083015261036b8161032f565b9050919050565b6080516128a06103a960003960008181610396015281816108f001528181610adb01528181610e8a015261107901526128a06000f3fe608060405234801561001057600080fd5b50600436106100ba5760003560e01c80630504c814146100bf5780630e267cce146100ef5780630ebc99561461011f5780632d9637de1461013b5780634f9a244d1461015757806353f8c602146101875780635bd9e299146101b75780636d996c91146101d5578063715018a61461020557806384dd2dfc1461020f5780638da5cb5b1461023f578063c48b33241461025d578063e17649ca1461028d578063f2fde38b146102bd575b600080fd5b6100d960048036038101906100d491906118f8565b6102d9565b6040516100e69190611947565b60405180910390f35b61010960048036038101906101049190611a00565b61030a565b6040516101169190611947565b60405180910390f35b61013960048036038101906101349190611a40565b6104ae565b005b61015560048036038101906101509190611bd9565b6106e0565b005b610171600480360381019061016c9190611c35565b610aa1565b60405161017e9190611c7d565b60405180910390f35b6101a1600480360381019061019c9190611c98565b610ac1565b6040516101ae9190611947565b60405180910390f35b6101bf610ad9565b6040516101cc9190611d24565b60405180910390f35b6101ef60048036038101906101ea9190611c98565b610afd565b6040516101fc9190611dfd565b60405180910390f35b61020d610b68565b005b61022960048036038101906102249190611c35565b610b7c565b6040516102369190611c7d565b60405180910390f35b610247610bba565b6040516102549190611e2e565b60405180910390f35b61027760048036038101906102729190611c35565b610be3565b6040516102849190611e2e565b60405180910390f35b6102a760048036038101906102a29190611a00565b610c16565b6040516102b49190611947565b60405180910390f35b6102d760048036038101906102d29190611e49565b61119f565b005b600460205281600052604060002081815481106102f557600080fd5b90600052602060002001600091509150505481565b6000600360008367ffffffffffffffff1667ffffffffffffffff16815260200190815260200160002060009054906101000a900460ff1661034e57600090506104a8565b600061035983611225565b905060006005600083815260200190815260200160002054905060008103610386576000925050506104a8565b60005b60028110156104a45760007f000000000000000000000000000000000000000000000000000000000000000073ffffffffffffffffffffffffffffffffffffffff1663e7af2b8d8886856040518463ffffffff1660e01b81526004016103f193929190611e85565b602060405180830381865afa15801561040e573d6000803e3d6000fd5b505050506040513d601f19601f820116820180604052508101906104329190611ed1565b9050600081036104425750610497565b8260046000868152602001908152602001600020838154811061046857610467611efe565b5b90600052602060002001548261047e9190611f5c565b6104889190611fcd565b856104939190611ffe565b9450505b8080600101915050610389565b5050505b92915050565b6104b661137c565b60008267ffffffffffffffff1603610503576040517f08c379a00000000000000000000000000000000000000000000000000000000081526004016104fa9061208f565b60405180910390fd5b600073ffffffffffffffffffffffffffffffffffffffff168173ffffffffffffffffffffffffffffffffffffffff1603610572576040517f08c379a0000000000000000000000000000000000000000000000000000000008152600401610569906120fb565b60405180910390fd5b600073ffffffffffffffffffffffffffffffffffffffff16600260008467ffffffffffffffff1667ffffffffffffffff16815260200190815260200160002060009054906101000a900473ffffffffffffffffffffffffffffffffffffffff1673ffffffffffffffffffffffffffffffffffffffff1614610628576040517f08c379a000000000000000000000000000000000000000000000000000000000815260040161061f90612167565b60405180910390fd5b80600260008467ffffffffffffffff1667ffffffffffffffff16815260200190815260200160002060006101000a81548173ffffffffffffffffffffffffffffffffffffffff021916908373ffffffffffffffffffffffffffffffffffffffff1602179055508073ffffffffffffffffffffffffffffffffffffffff168267ffffffffffffffff167fa5b5ccc2e34328196edd412944be8cfd7b86219a3832df8425aa2edcc8c50d0960405160405180910390a35050565b6106e861137c565b6106f0611403565b600073ffffffffffffffffffffffffffffffffffffffff16600260008467ffffffffffffffff1667ffffffffffffffff16815260200190815260200160002060009054906101000a900473ffffffffffffffffffffffffffffffffffffffff1673ffffffffffffffffffffffffffffffffffffffff16036107a6576040517f08c379a000000000000000000000000000000000000000000000000000000000815260040161079d906121d3565b60405180910390fd5b600360008367ffffffffffffffff1667ffffffffffffffff16815260200190815260200160002060009054906101000a900460ff161561081b576040517f08c379a00000000000000000000000000000000000000000000000000000000081526004016108129061223f565b60405180910390fd5b600281511461085f576040517f08c379a0000000000000000000000000000000000000000000000000000000008152600401610856906122ab565b60405180910390fd5b60008160018151811061087557610874611efe565b5b602002602001015111151560008260008151811061089657610895611efe565b5b6020026020010151111515036108e1576040517f08c379a00000000000000000000000000000000000000000000000000000000081526004016108d890612317565b60405180910390fd5b60006108ec83611225565b90507f000000000000000000000000000000000000000000000000000000000000000073ffffffffffffffffffffffffffffffffffffffff16631ad685d882846040518363ffffffff1660e01b8152600401610949929190612337565b600060405180830381600087803b15801561096357600080fd5b505af1158015610977573d6000803e3d6000fd5b50505050816004600083815260200190815260200160002090805190602001906109a292919061180e565b50816001815181106109b7576109b6611efe565b5b6020026020010151826000815181106109d3576109d2611efe565b5b60200260200101516109e59190611ffe565b60056000838152602001908152602001600020819055506001600360008567ffffffffffffffff1667ffffffffffffffff16815260200190815260200160002060006101000a81548160ff021916908315150217905550808367ffffffffffffffff167f803b40db5175e90f1465e0aad092b9885244ffe6fdcdcde74eee2e147bc59106846005600086815260200190815260200160002054604051610a8c929190612367565b60405180910390a350610a9d611449565b5050565b60036020528060005260406000206000915054906101000a900460ff1681565b60056020528060005260406000206000915090505481565b7f000000000000000000000000000000000000000000000000000000000000000081565b606060046000838152602001908152602001600020805480602002602001604051908101604052809291908181526020018280548015610b5c57602002820191906000526020600020905b815481526020019060010190808311610b48575b50505050509050919050565b610b7061137c565b610b7a6000611452565b565b6000600360008367ffffffffffffffff1667ffffffffffffffff16815260200190815260200160002060009054906101000a900460ff169050919050565b60008060009054906101000a900473ffffffffffffffffffffffffffffffffffffffff16905090565b60026020528060005260406000206000915054906101000a900473ffffffffffffffffffffffffffffffffffffffff1681565b6000610c20611403565b600073ffffffffffffffffffffffffffffffffffffffff168373ffffffffffffffffffffffffffffffffffffffff1603610c8f576040517f08c379a0000000000000000000000000000000000000000000000000000000008152600401610c86906123e3565b60405180910390fd5b600073ffffffffffffffffffffffffffffffffffffffff16600260008467ffffffffffffffff1667ffffffffffffffff16815260200190815260200160002060009054906101000a900473ffffffffffffffffffffffffffffffffffffffff1673ffffffffffffffffffffffffffffffffffffffff1603610d45576040517f08c379a0000000000000000000000000000000000000000000000000000000008152600401610d3c906121d3565b60405180910390fd5b600360008367ffffffffffffffff1667ffffffffffffffff16815260200190815260200160002060009054906101000a900460ff16610db9576040517f08c379a0000000000000000000000000000000000000000000000000000000008152600401610db09061244f565b60405180910390fd5b6000610dc483611225565b905060006005600083815260200190815260200160002054905060008111610e21576040517f08c379a0000000000000000000000000000000000000000000000000000000008152600401610e18906124bb565b60405180910390fd5b6000600260008667ffffffffffffffff1667ffffffffffffffff16815260200190815260200160002060009054906101000a900473ffffffffffffffffffffffffffffffffffffffff1690506000610e7882611516565b905060005b600281101561118c5760007f000000000000000000000000000000000000000000000000000000000000000073ffffffffffffffffffffffffffffffffffffffff1663e7af2b8d8a88856040518463ffffffff1660e01b8152600401610ee593929190611e85565b602060405180830381865afa158015610f02573d6000803e3d6000fd5b505050506040513d601f19601f82011682018060405250810190610f269190611ed1565b90506000811480610f6657506000600460008881526020019081526020016000208381548110610f5957610f58611efe565b5b9060005260206000200154145b15610f71575061117f565b600085600460008981526020019081526020016000208481548110610f9957610f98611efe565b5b906000526020600020015483610faf9190611f5c565b610fb99190611fcd565b9050808473ffffffffffffffffffffffffffffffffffffffff166370a08231876040518263ffffffff1660e01b8152600401610ff59190611e2e565b602060405180830381865afa158015611012573d6000803e3d6000fd5b505050506040513d601f19601f820116820180604052508101906110369190611ed1565b1015611077576040517f08c379a000000000000000000000000000000000000000000000000000000000815260040161106e9061254d565b60405180910390fd5b7f000000000000000000000000000000000000000000000000000000000000000073ffffffffffffffffffffffffffffffffffffffff1663014635978b8986866040518563ffffffff1660e01b81526004016110d6949392919061256d565b600060405180830381600087803b1580156110f057600080fd5b505af1158015611104573d6000803e3d6000fd5b50505050611113858b83611620565b808861111f9190611ffe565b97508867ffffffffffffffff168a73ffffffffffffffffffffffffffffffffffffffff167ff1dfd8eebbfa98016fe121fc52fe760e75c22b968794aea2adba20238f3e530b89846040516111749291906125b2565b60405180910390a350505b8080600101915050610e7d565b5050505050611199611449565b92915050565b6111a761137c565b600073ffffffffffffffffffffffffffffffffffffffff168173ffffffffffffffffffffffffffffffffffffffff16036112195760006040517f1e4fbdf70000000000000000000000000000000000000000000000000000000081526004016112109190611e2e565b60405180910390fd5b61122281611452565b50565b600080600260008467ffffffffffffffff1667ffffffffffffffff16815260200190815260200160002060009054906101000a900473ffffffffffffffffffffffffffffffffffffffff16905060008173ffffffffffffffffffffffffffffffffffffffff166040516024016040516020818303038152906040527f2ddc7de7000000000000000000000000000000000000000000000000000000007bffffffffffffffffffffffffffffffffffffffffffffffffffffffff19166020820180517bffffffffffffffffffffffffffffffffffffffffffffffffffffffff838183161783525050505060405161131b919061264c565b600060405180830381855afa9150503d8060008114611356576040519150601f19603f3d011682016040523d82523d6000602084013e61135b565b606091505b50915050808060200190518101906113739190612678565b92505050919050565b611384611806565b73ffffffffffffffffffffffffffffffffffffffff166113a2610bba565b73ffffffffffffffffffffffffffffffffffffffff1614611401576113c5611806565b6040517f118cdaa70000000000000000000000000000000000000000000000000000000081526004016113f89190611e2e565b60405180910390fd5b565b60026001540361143f576040517f3ee5aeb500000000000000000000000000000000000000000000000000000000815260040160405180910390fd5b6002600181905550565b60018081905550565b60008060009054906101000a900473ffffffffffffffffffffffffffffffffffffffff169050816000806101000a81548173ffffffffffffffffffffffffffffffffffffffff021916908373ffffffffffffffffffffffffffffffffffffffff1602179055508173ffffffffffffffffffffffffffffffffffffffff168173ffffffffffffffffffffffffffffffffffffffff167f8be0079c531659141344cd1fd0a4f28419497f9722a3daafe3b4186f6b6457e060405160405180910390a35050565b6000808273ffffffffffffffffffffffffffffffffffffffff166040516024016040516020818303038152906040527fd8dfeb45000000000000000000000000000000000000000000000000000000007bffffffffffffffffffffffffffffffffffffffffffffffffffffffff19166020820180517bffffffffffffffffffffffffffffffffffffffffffffffffffffffff83818316178352505050506040516115c0919061264c565b600060405180830381855afa9150503d80600081146115fb576040519150601f19603f3d011682016040523d82523d6000602084013e611600565b606091505b509150508080602001905181019061161891906126e3565b915050919050565b60008111611663576040517f08c379a000000000000000000000000000000000000000000000000000000000815260040161165a9061275c565b60405180910390fd5b6000808473ffffffffffffffffffffffffffffffffffffffff16848460405160240161169092919061277c565b6040516020818303038152906040527fbd0b5186000000000000000000000000000000000000000000000000000000007bffffffffffffffffffffffffffffffffffffffffffffffffffffffff19166020820180517bffffffffffffffffffffffffffffffffffffffffffffffffffffffff838183161783525050505060405161171a919061264c565b6000604051808303816000865af19150503d8060008114611757576040519150601f19603f3d011682016040523d82523d6000602084013e61175c565b606091505b5091509150816117a1576040517f08c379a0000000000000000000000000000000000000000000000000000000008152600401611798906127f1565b60405180910390fd5b6000815111156117ff57808060200190518101906117bf919061283d565b6117fe576040517f08c379a00000000000000000000000000000000000000000000000000000000081526004016117f5906127f1565b60405180910390fd5b5b5050505050565b600033905090565b82805482825590600052602060002090810192821561184a579160200282015b8281111561184957825182559160200191906001019061182e565b5b509050611857919061185b565b5090565b5b8082111561187457600081600090555060010161185c565b5090565b6000604051905090565b600080fd5b600080fd5b6000819050919050565b61189f8161188c565b81146118aa57600080fd5b50565b6000813590506118bc81611896565b92915050565b6000819050919050565b6118d5816118c2565b81146118e057600080fd5b50565b6000813590506118f2816118cc565b92915050565b6000806040838503121561190f5761190e611882565b5b600061191d858286016118ad565b925050602061192e858286016118e3565b9150509250929050565b611941816118c2565b82525050565b600060208201905061195c6000830184611938565b92915050565b600073ffffffffffffffffffffffffffffffffffffffff82169050919050565b600061198d82611962565b9050919050565b61199d81611982565b81146119a857600080fd5b50565b6000813590506119ba81611994565b92915050565b600067ffffffffffffffff82169050919050565b6119dd816119c0565b81146119e857600080fd5b50565b6000813590506119fa816119d4565b92915050565b60008060408385031215611a1757611a16611882565b5b6000611a25858286016119ab565b9250506020611a36858286016119eb565b9150509250929050565b60008060408385031215611a5757611a56611882565b5b6000611a65858286016119eb565b9250506020611a76858286016119ab565b9150509250929050565b600080fd5b6000601f19601f8301169050919050565b7f4e487b7100000000000000000000000000000000000000000000000000000000600052604160045260246000fd5b611ace82611a85565b810181811067ffffffffffffffff82111715611aed57611aec611a96565b5b80604052505050565b6000611b00611878565b9050611b0c8282611ac5565b919050565b600067ffffffffffffffff821115611b2c57611b2b611a96565b5b602082029050602081019050919050565b600080fd5b6000611b55611b5084611b11565b611af6565b90508083825260208201905060208402830185811115611b7857611b77611b3d565b5b835b81811015611ba15780611b8d88826118e3565b845260208401935050602081019050611b7a565b5050509392505050565b600082601f830112611bc057611bbf611a80565b5b8135611bd0848260208601611b42565b91505092915050565b60008060408385031215611bf057611bef611882565b5b6000611bfe858286016119eb565b925050602083013567ffffffffffffffff811115611c1f57611c1e611887565b5b611c2b85828601611bab565b9150509250929050565b600060208284031215611c4b57611c4a611882565b5b6000611c59848285016119eb565b91505092915050565b60008115159050919050565b611c7781611c62565b82525050565b6000602082019050611c926000830184611c6e565b92915050565b600060208284031215611cae57611cad611882565b5b6000611cbc848285016118ad565b91505092915050565b6000819050919050565b6000611cea611ce5611ce084611962565b611cc5565b611962565b9050919050565b6000611cfc82611ccf565b9050919050565b6000611d0e82611cf1565b9050919050565b611d1e81611d03565b82525050565b6000602082019050611d396000830184611d15565b92915050565b600081519050919050565b600082825260208201905092915050565b6000819050602082019050919050565b611d74816118c2565b82525050565b6000611d868383611d6b565b60208301905092915050565b6000602082019050919050565b6000611daa82611d3f565b611db48185611d4a565b9350611dbf83611d5b565b8060005b83811015611df0578151611dd78882611d7a565b9750611de283611d92565b925050600181019050611dc3565b5085935050505092915050565b60006020820190508181036000830152611e178184611d9f565b905092915050565b611e2881611982565b82525050565b6000602082019050611e436000830184611e1f565b92915050565b600060208284031215611e5f57611e5e611882565b5b6000611e6d848285016119ab565b91505092915050565b611e7f8161188c565b82525050565b6000606082019050611e9a6000830186611e1f565b611ea76020830185611e76565b611eb46040830184611938565b949350505050565b600081519050611ecb816118cc565b92915050565b600060208284031215611ee757611ee6611882565b5b6000611ef584828501611ebc565b91505092915050565b7f4e487b7100000000000000000000000000000000000000000000000000000000600052603260045260246000fd5b7f4e487b7100000000000000000000000000000000000000000000000000000000600052601160045260246000fd5b6000611f67826118c2565b9150611f72836118c2565b9250828202611f80816118c2565b91508282048414831517611f9757611f96611f2d565b5b5092915050565b7f4e487b7100000000000000000000000000000000000000000000000000000000600052601260045260246000fd5b6000611fd8826118c2565b9150611fe3836118c2565b925082611ff357611ff2611f9e565b5b828204905092915050565b6000612009826118c2565b9150612014836118c2565b925082820190508082111561202c5761202b611f2d565b5b92915050565b600082825260208201905092915050565b7f534d3a207a65726f206d61726b65744964000000000000000000000000000000600082015250565b6000612079601183612032565b915061208482612043565b602082019050919050565b600060208201905081810360008301526120a88161206c565b9050919050565b7f534d3a207a65726f206d61726b65740000000000000000000000000000000000600082015250565b60006120e5600f83612032565b91506120f0826120af565b602082019050919050565b60006020820190508181036000830152612114816120d8565b9050919050565b7f534d3a206d61726b657420616c72656164792072656769737465726564000000600082015250565b6000612151601d83612032565b915061215c8261211b565b602082019050919050565b6000602082019050818103600083015261218081612144565b9050919050565b7f534d3a206d61726b6574206e6f74207265676973746572656400000000000000600082015250565b60006121bd601983612032565b91506121c882612187565b602082019050919050565b600060208201905081810360008301526121ec816121b0565b9050919050565b7f534d3a20616c7265616479207265736f6c766564000000000000000000000000600082015250565b6000612229601483612032565b9150612234826121f3565b602082019050919050565b600060208201905081810360008301526122588161221c565b9050919050565b7f534d3a206d7573742062652062696e617279206d61726b657400000000000000600082015250565b6000612295601983612032565b91506122a08261225f565b602082019050919050565b600060208201905081810360008301526122c481612288565b9050919050565b7f534d3a20696e76616c6964207061796f75740000000000000000000000000000600082015250565b6000612301601283612032565b915061230c826122cb565b602082019050919050565b60006020820190508181036000830152612330816122f4565b9050919050565b600060408201905061234c6000830185611e76565b818103602083015261235e8184611d9f565b90509392505050565b600060408201905081810360008301526123818185611d9f565b90506123906020830184611938565b9392505050565b7f534d3a207a65726f207573657200000000000000000000000000000000000000600082015250565b60006123cd600d83612032565b91506123d882612397565b602082019050919050565b600060208201905081810360008301526123fc816123c0565b9050919050565b7f534d3a206d61726b6574206e6f74207265736f6c766564207965740000000000600082015250565b6000612439601b83612032565b915061244482612403565b602082019050919050565b600060208201905081810360008301526124688161242c565b9050919050565b7f534d3a207061796f7574206e6f74207365740000000000000000000000000000600082015250565b60006124a5601283612032565b91506124b08261246f565b602082019050919050565b600060208201905081810360008301526124d481612498565b9050919050565b7f534d3a20696e73756666696369656e74206d61726b657420636f6c6c6174657260008201527f616c000000000000000000000000000000000000000000000000000000000000602082015250565b6000612537602283612032565b9150612542826124db565b604082019050919050565b600060208201905081810360008301526125668161252a565b9050919050565b60006080820190506125826000830187611e1f565b61258f6020830186611e76565b61259c6040830185611938565b6125a96060830184611938565b95945050505050565b60006040820190506125c76000830185611e76565b6125d46020830184611938565b9392505050565b600081519050919050565b600081905092915050565b60005b8381101561260f5780820151818401526020810190506125f4565b60008484015250505050565b6000612626826125db565b61263081856125e6565b93506126408185602086016125f1565b80840191505092915050565b6000612658828461261b565b915081905092915050565b60008151905061267281611896565b92915050565b60006020828403121561268e5761268d611882565b5b600061269c84828501612663565b91505092915050565b60006126b082611962565b9050919050565b6126c0816126a5565b81146126cb57600080fd5b50565b6000815190506126dd816126b7565b92915050565b6000602082840312156126f9576126f8611882565b5b6000612707848285016126ce565b91505092915050565b7f534d3a207a65726f20616d6f756e740000000000000000000000000000000000600082015250565b6000612746600f83612032565b915061275182612710565b602082019050919050565b6000602082019050818103600083015261277581612739565b9050919050565b60006040820190506127916000830185611e1f565b61279e6020830184611938565b9392505050565b7f534d3a207061796f7574206661696c6564000000000000000000000000000000600082015250565b60006127db601183612032565b91506127e6826127a5565b602082019050919050565b6000602082019050818103600083015261280a816127ce565b9050919050565b61281a81611c62565b811461282557600080fd5b50565b60008151905061283781612811565b92915050565b60006020828403121561285357612852611882565b5b600061286184828501612828565b9150509291505056fea2646970667358221220b2e7700cd2fd93537bc6ebeb56649116e6bba0f14aac0332d83d8f2953a5bc4a64736f6c634300081a0033",
  "linkReferences": {},
  "deployedLinkReferences": {}
}